:020000040800F2
:10000000081B0020450100082513000821130008E3
:1000100023130008B90E0008DD2C000800000000C2
:100020000000000000000000000000009D16000815
:10003000BB0E00080000000085150008112800080C
:100040005F0100085F0100085F0100085F01000810
:100050005F0100085F0100085F0100085F01000800
:100060005F0100085F0100085F0100085F010008F0
:100070005F0100085F0100085F0100085F010008E0
:100080005F0100085F0100085F0100085F010008D0
:100090005F0100085F0100085F0100085F010008C0
:1000A0005F0100085F0100085F0100085F010008B0
:1000B0005F010008652800085F0100085F01000873
:1000C0005F0100085F0100085F0100085F01000890
:1000D0005F010008392A0008A12A00080D2B00083A
:1000E000751100085F0100085F0100085F0100084A
:1000F0005F0100085F0100085F0100085F01000860
:100100005F0100085F0100085F0100085F0100084F
:100110005F0100085F0100085F0100085F0100083F
:100120005F0100085F0100085F0100085F0100082F
:10013000DFF80CD000F080FB004800479138000841
:10014000081B00200648804706480047FEE7FEE7F8
:10015000FEE7FEE7FEE7FEE7FEE7FEE7FEE7FEE777
:100160001528000831010008A0F14101192900D823
:1001700020307047D2B201E000F8012B491EFBD2BB
:1001800070470022F6E710B513460A4604461946A2
:10019000FFF7F0FF204610BD30B5054600200346AE
:1001A00000E05B1C934205D2EC5CC85C201A01D1D4
:1001B000002CF6D130BD2DE9FE4F804681EA0300C8
:1001C000C00F0C46009021F0004123F00045B8EB31
:1001D0000200A94105D24046214690461C460B46E6
:1001E000024623F00040104347D0270DC7F30A0012
:1001F000C3F30A510290401A019040286BDAC3F30E
:10020000130040F4801B0098924620B10023D2EBEB
:10021000030A63EB0B0B01985946C0F140025046AC
:1002200000F0BDF906460D4650465946019A00F0C9
:10023000D5F910EB08006141002487EA115284EAE5
:10024000E7731A4340D0009A62B3019A012A4FEA39
:10025000075215DC001B61EB02014FF0004202EA7D
:100260000752CDE90042001C41F5801132462B4671
:1002700000F00CFA03B0BDE8F08F40462146F9E7E4
:10028000001B61EB0201001C41F5801300185B416B
:100290002018A2F5001747EB030140EAD570B61904
:1002A0006D4111E06D084FEA360645EAC0754FEA28
:1002B0000752001B61EB0201001C41F58011490847
:1002C0004FEA30000019514132462B4603B0BDE8D9
:1002D000F04F00F0CCB90098012240000023D0EB91
:1002E000020263EBE073009821464FEAE074B8EB3A
:1002F000000061EB0401E9E783F000435BE781F074
:10030000004158E72DE9FE4F81EA030404F0004460
:1003100021F0004100944FF0000B23F0004350EA1D
:1003200001045ED052EA03045BD0C3F30A54C1F364
:100330000A552C44A4F2F3340194A0FB0254C1F3F7
:10034000130141F48011C3F3130343F4801301FB41
:10035000024400FB034E840A970A44EA815447EAA8
:100360008357A4FB076802958D0A05FB07854FEAB2
:10037000932C04FB0C542705029D4FEA065847EACC
:100380001637B5EB08056EEB070C870E920E47EAA1
:10039000811742EA8312A7FB0201B6EB0B0164EB63
:1003A00000042B0D43EA0C335E1844EB1C50DA4674
:1003B0005146E7FB0201C5F313044FEA0B3343EA4E
:1003C00014534FEA0432019C43EA0603A4F10C04DF
:1003D0000294009CCDE900B400F058F903B0BDE8E8
:1003E000F08F00200146F9E770B521F00043034388
:1003F0000CD0C1F30A550024D5EB040564EB0403CB
:10040000D617AD1AB34102DB0020014670BD20189B
:1004100041EB025170BD96230022114600F0F9B85D
:100420000EB5C10F80EAE0700844CA07002140F20F
:1004300033438DE80E000A460B4600F027F903B05F
:1004400000BD70B5C1F30A5201F000450024C1F3AC
:10045000130140F2FF3341F480119A4201DA002087
:1004600070BD40F233439A42A2F2334203DC52425F
:1004700000F0A4F800E090402C43F1D0404270BD61
:1004800000F0004230F000400AD0C10D01F560716B
:10049000C0F3160042EA0151C208400711437047F9
:1004A000002001467047000030B5041E71F10004C1
:1004B00004DB4FF00044404264EB0101141E73F171
:1004C000000405DB1C464FF00043524263EB04037B
:1004D000994208BF904230BD01F0004330B421F092
:1004E000004150EA010206D00A0DA2F56072C1F384
:1004F0001301002A02DC30BC00207047440F44EA9C
:10050000C104C100E01830BC00EBC25000F078B864
:1005100030B50B46014600202022012409E021FAD3
:1005200002F59D4205D303FA02F5491B04FA02F5D0
:100530002844151EA2F10102F1DC30BD2DE9F05F67
:100540000546002092469B46884606468146402442
:100550001BE0284641464746224600F02FF8534606
:100560005A46C01A914110D311461846224600F04F
:1005700016F82D1A67EB01084F462246012000218C
:1005800000F00DF817EB00094E41201EA4F1010404
:10059000DFDC484631462A464346BDE8F09F202A24
:1005A00004DB203A00FA02F1002070479140C2F1CA
:1005B000200320FA03F3194390407047202A04DBFC
:1005C000203A21FA02F00021704721FA02F3D040CC
:1005D000C2F120029140084319467047202A06DBE9
:1005E000CB17203A41FA02F043EAE07306E041FA01
:1005F00002F3D040C2F120029140084319467047EF
:100600000029A8BF7047401C490008BF20F0010026
:10061000704710B4B0FA80FC00FA0CF050EA010404
:1006200004BF10BC704749B1CCF1200421FA04F496
:1006300011FA0CF118BF012121430843A3EB0C016F
:10064000CB1D4FEA00614FEA102042BF002010BCD2
:10065000704700EBC35010440029A4BF10BC704782
:10066000401C490008BF20F0010010BC704710B5C5
:10067000141E73F1000408DA401C41F100019218C5
:100680005B411A4301D120F0010010BD2DE9F04D6E
:1006900092469B4611B1B1FA81F202E0B0FA80F2C3
:1006A00020329046FFF77BFF04460F4640EA0A00DF
:1006B00041EA0B0153465A46084313D0114653EA08
:1006C000010019D0C8F140025046FFF777FF0546F8
:1006D0000E46504659464246FFF761FF084305D093
:1006E000012004E020463946BDE8F08D0020054396
:1006F00046EAE0762C4337430A986305E40AA0EB08
:1007000008000022FD0A44EA47540A3002D50020BE
:100710000146E9E7010510196941DDE908450019BD
:100720006941BDE8F04DA2E72DE9F04D81EA0304EF
:1007300004F0004B21F0004514464FF0000A23F06E
:10074000004150EA050220D054EA01021DD0C5F351
:100750000A570246C5F31303C1F31300C1F30A5647
:1007600040F4801543F48013A7EB0608101BD6460F
:1007700008F2FD3873EB050002D308F1010801E02F
:1007800092185B41B8F1000F03DA00200146BDE882
:10079000F08D00204FF48011064684460EE0171BB2
:1007A00073EB050705D3121B63EB050306434CEA05
:1007B000010C49084FEA300092185B4150EA0107EA
:1007C000EDD152EA030012D082EA040083EA050167
:1007D000084305D0101BAB4106D20122002306E0DE
:1007E00000224FF0004302E06FF0010253101AEBB9
:1007F00006004CEB085110EB0A0041EB0B01BDE881
:10080000F04DFFF734BFC1F30A52C1F3130140F2B8
:10081000FF3341F480119A4202DA0020014670470A
:1008200040F233439A42A2F2334202DC5242FFF7D3
:10083000C5BEFFF7B4BE0000064C074D06E0E068F9
:1008400040F0010394E8070098471034AC42F6D317
:10085000FFF772FCD0580008F05800082DE9F04D61
:1008600000231A461B1A8A4103DB00200146BDE81B
:10087000F08DC1F30A52C1F3130141F480154FF01A
:10088000000BD10702D100186D41521E002704460B
:1008900040F2FF11384601EB620A3E4680460246AE
:1008A00000204FF48011FFF789FEC2197141BB1877
:1008B00046EB0100B4EB030C75EB000C04D3E41A17
:1008C00065EB000517460E46241908F101006D413D
:1008D00080463428E3DDF91946EB0600091BA841E0
:1008E00003D24FF0FF32134601E0002213461BEB08
:1008F000070046EB0A51BDE8F04DFFF7B8BE0029EE
:1009000004D0816841F0010181607047816821F065
:10091000010181607047000010B5154988420AD175
:1009200044150121204600F055FE2046BDE8104048
:10093000002100F04FBE0F4988420AD10415012161
:10094000204600F047FE2046BDE81040002100F0A0
:1009500041BE094988420AD10121CC03204600F05A
:1009600039FE2046BDE81040002100F033BE10BD26
:100970000024014000280140003C014001460020C5
:100980008968490700D501207047C06C80B2704764
:100990000246002012680A4200D00120704701463A
:1009A00000208968090700D50120704770B5002430
:1009B0000025194E012207231146304600F054F855
:1009C0000121304600F08FF802213046FFF7E0FFAA
:1009D0000028F9D03046FFF7D8FF0544022000F088
:1009E0006DFA641CE4B2052CE4D30520B5FBF0F0ED
:1009F000FFF711FDFFF744FD4FF06632074BFFF79D
:100A000081FC6FF00B02FFF7EFFC0122FFF7ECFC1B
:100A1000BDE87040FFF760BD0024014066660A40F3
:100A200010B542680E4B1A400C790B6842EA04225A
:100A30001343436082680B4B1A40D1E902432343BE
:100A40004C7942EA440213438360C26A22F4700282
:100A5000097C491EC9B242EA0151C16210BD0000C1
:100A6000FFFEF0FFFDF7F1FF70B5072609290AD94F
:100A7000C568A1F10A0404EB4404A640B543A340B1
:100A80001D43C56007E0056901EB4104A640B5437D
:100A9000A3401D4305611F23072A09D2446B521E40
:100AA00002EB820293409C4391400C43446370BD2F
:100AB0000D2A09D2046BD21F02EB820293409C43A1
:100AC00091400C43046370BDC46A0D3A02EB82028C
:100AD00093409C4391400C43C46270BD816841F0D7
:100AE000080181607047002904D0816841F4A001A9
:100AF00081607047816821F4A0018160704781683E
:100B000041F004018160704730B587B001214FF496
:100B1000017000F051FD4FF4004000F035FD02205F
:100B2000ADF8040000248DF8074001A9184800F032
:100B300099FB184D2846FFF7EFFE02948DF80C4004
:100B40008DF80D404FF460210491059401218DF83A
:100B5000181002A92846FFF763FF01212846FFF776
:100B6000CEFE2846FFF7BAFF2846FFF718FF0028F9
:100B7000FAD12846FFF7C3FF2846FFF7FFFE0028FB
:100B8000FAD101212846FFF7AEFF07B030BD0000C3
:100B9000000801400024014010B56FF0040001F08E
:100BA00029FE094809490068B0FBF1F00849C0B2C4
:100BB000087000EB4002C2EBC0104FF6FF7202EA71
:100BC000C000488010BD00000000002000127A0024
:100BD000280000202DE9FF410121182000F0ECFC45
:100BE0000121084600F0E8FC43F20200ADF80C00D9
:100BF00010208DF80F0003208DF80E00244C03A95F
:100C0000204600F02FFB0221204600F085FB6114F6
:100C1000204600F081FBA114204600F07DFB4FF43C
:100C2000C040ADF80C0048208DF80F00194F03A903
:100C3000384600F017FB4FF4C06000F0A7FB2824F3
:100C40008DF8004000258DF801508DF802500126E6
:100C50008DF80360684600F067FBF003ADF80C0008
:100C60008DF80F4003A9384600F0FCFA0F2102204E
:100C700000F0E4FA01948DF8085008208DF809007E
:100C80008DF80A6001A800F09FFABDE8FF8100001E
:100C9000000C014000100140012080F3138805483A
:100CA0000168054A01F4E06111430160BFF34F8F11
:100CB000FEE700000CED00E00400FA057FB501211D
:100CC000022000F06BFC0920ADF8080041F61F403F
:100CD000ADF804000024ADF80A40ADF806400E4D12
:100CE00001A9284601F05AFE01224121284601F0BF
:100CF0004AFE1D218DF800108DF8014003218DF86A
:100D0000021001218DF80310684600F00DFB01214F
:100D1000284601F020FE7FBD0004004070B586B07B
:100D200005460121880400F039FC0121082000F06B
:100D300043FC4FF48060ADF8140003248DF8164096
:100D400018218DF817101F4E05A9304600F08AFAB9
:100D5000F114ADF8141004218DF8171005A93046D0
:100D600000F080FA4FF4A06000F010FB27208DF80F
:100D700000008DF801408DF8024001208DF803003D
:100D8000684600F0D1FA01950020ADF80800ADF8F2
:100D90000A00ADF80C00ADF810000C20ADF80E0004
:100DA000094C01A9204601F037FF012240F22551EC
:100DB000204601F016FF0121204601F0DFFE06B0BB
:100DC00070BD0000000C01400048004070B54FF4B9
:100DD00000512C4800F099FA2B4C0025A8B1A572BF
:100DE000A089B0F5967F4BD3A078642801D2401C2F
:100DF000A070FFF7DBFD6060244988423EDD244996
:100E0000884205DD6420607239E00120A072E7E7C6
:100E10002049884202DD5A20607230E01E49884233
:100E200002DB502060722AE01C49884202DB462027
:100E3000607224E01A49884202DD3C2060721EE0A4
:100E40001849884202DD3220607218E01649884253
:100E500002DD2820607212E01449884202DB1E2065
:100E600060720CE01249884202DB1420607206E0D6
:100E70001049884203DB0A20607200E06572A58198
:100E800070BD000000100140AC040020B81E654099
:100E9000B81E85405C8F82407B147E409A997940D1
:100EA0008FC275405C8F7240D7A3704052B86E40BD
:100EB000A4706D409A996940FEE770470B494988D4
:100EC00048434FF0E021486100238B61086940F0FE
:100ED000010008610869C20701D0C003FAD508699A
:100EE00020F0010008618B6170470000280000209D
:100EF0000B49097848434FF0E021486100238B619A
:100F0000086940F0010008610869C20701D0C00308
:100F1000FAD5086920F0010008618B617047000074
:100F2000280000202DE9F0412D4C0127FD03207EF3
:100F30002C4E4FF0020800281AD12946304600F006
:100F4000E4F9A0B1C820FFF7B9FF2946304600F008
:100F5000DCF968B1A910244800F0E0F929463046D0
:100F600000F0D3F90028F9D184F8198000E0677601
:100F7000207E012814D12946304600F0C6F978B108
:100F8000C820FFF79BFF2946304600F0BEF938B174
:100F90002946304600F0B9F90028F9D184F81980C3
:100FA000207E022817D12946304600F0AEF90028ED
:100FB00011D0C820FFF782FF2946304600F0A5F97E
:100FC000002808D02946304600F09FF90028F9D1C2
:100FD000A07A10B16776BDE8F08103206076FAE769
:100FE000AC04002000100140000C01402DE9F0414C
:100FF0002E4C207E627E904256D02D4D0127AE149D
:101000004FF40058022A16D14146284600F086F9CE
:101010003146284600F080F900F09CFB207E08B99C
:1010200000F026FDA77600F099FA3146284600F038
:1010300075F902202076607E01281FD10221284602
:1010400000F06AF93146284600F066F9227E12B1B6
:10105000022A07D011E000F00BFD3146284600F0CF
:101060005DF90AE0002000F07FFF00F001FD0020A4
:1010700020723146284600F051F92776607E032819
:1010800012D14FF47A70FFF719FF0221284600F0C1
:1010900043F93146284600F03FF94146284600F022
:1010A0003BF903202076FEE7BDE8F081AC04002088
:1010B000000C01402DE9F041234F388800043AD557
:1010C000224C00254FF4FA78207802282ED1204EA9
:1010D00030787B282AD141461E48FFF752F86580B8
:1010E0001C496088325C0A547D2A02D0401C608012
:1010F000F7E7184802F048FB6060F0B116A102F073
:1011000025FB0269134816A1283801F0E9FD15A155
:10111000606802F01BFB02690E4811A1143801F04F
:10112000DFFD03202070606802F0ECFA41460848B9
:10113000FFF727F83D80BDE8F08141460448FFF7FE
:1011400020F80B480580F6E7340000203800002026
:10115000C4000020040500207373696400000000CF
:101160002573000070617373776F72640000000074
:101170003600002010B54FF40044204600F014F86B
:10118000002808D0204600F009F80348007E002817
:1011900001D1FFF781FD10BDAC04002001490860BA
:1011A000704700001404014001460020054A1268FF
:1011B0000A40044B14331B680B4202D0002A00D0B3
:1011C000012070470004014030B51B4A8379016853
:1011D000002B2AD013688B431360111D0B68046821
:1011E000A3430B60017911440B68046823430B602F
:1011F000114C08342168036899432160231D196844
:101200000568A94319604179102905D011440A687D
:10121000006802430A6030BD216802681143216002
:10122000196800680143196030BD007910440268F4
:101230008A43026030BD00000004014010B58A07F7
:10124000120F0F23934021F00304054921448C68B9
:101250009C438C608B68904003438B6010BD000002
:10126000000001402DE9F0410022CC7804F00F038A
:10127000E40601D58C7823430C784FF00F0714F067
:10128000FF0F4FF0010C1CD005680CFA02F40E8819
:101290002640A64211D1960007FA06F825EA08056D
:1012A00003FA06F848EA0505CE78282E02D0482E23
:1012B00002D002E0446100E00461521C082AE4D339
:1012C00005600A88FF2A1ED94568002202F1080637
:1012D0000CFA06F40E882640A64210D1960007FAB2
:1012E00006F825EA080503FA06F848EA0505CE7867
:1012F000282E00D14461CE78482E00D10461521CC2
:10130000082AE3D34560BDE8F081024600209268D8
:101310000A4200D001207047416170470161704767
:10132000FEE7FEE77047000070B50F23C278012684
:101330000178002A1ED0144A126802F4E062C2F555
:10134000E062120AC2F10404D3404578A5408278D5
:101350001A402A43120101F1E02181F800240078AB
:1013600000F01F018E404009800000F1E020C0F82D
:10137000006170BD01F01F0086404809800000F147
:10138000E020C0F8806170BD0CED00E00249084328
:1013900002490860704700000000FA050CED00E00B
:1013A00010B50021002400220378422B10D143788D
:1013B0004D2B0DD1435C1A4492B2491CC9B21E296F
:1013C000F8D3C17F807F01EB0020904200D1FF2441
:1013D000204610BD2DE9F0475C4C5D4D4FF00006F6
:1013E000208800041AD55B48FFF7DAFFFF280FD1E9
:1013F00058484179027901EB02212985C179827926
:1014000001EB02216985417A007A01EB0020A88571
:1014100026804FF4FA714F48FEF7B3FE288AB0F5E4
:10142000FA6F00D32E82698C288D4B4F0A266FF0FD
:10143000130A4FF482794FF06408814227D039882B
:101440000AEB9104B0FBF8F0C2B204F1080080B2DC
:101450001032494600F0EAFE288DB0FBF6F0B0FBF2
:10146000F6F106FB110204F1100080B21032494679
:1014700000F0DCFE288DB0FBF6F106FB11021834FB
:10148000A0B21032494600F0D1FE288D6884A98CA4
:10149000688D814229D039880AEB51044FF0500AF7
:1014A000B0FBF8F0C2B204F1080080B2103251462D
:1014B00000F0BCFE688DB0FBF6F0B0FBF6F106FB69
:1014C000110204F1100080B21032514600F0AEFE5D
:1014D000688DB0FBF6F106FB11021834A0B2103291
:1014E000514600F0A3FE688DA884A88DE98C88423F
:1014F00029D03988890801EB4104103CB0FBF8F091
:10150000C2B204F1080080B21032494600F08EFEEB
:10151000A88DB0FBF6F0B0FBF6F106FB110204F16A
:10152000100080B21032494600F080FEA88DB0FB5A
:10153000F6F106FB11021834A0B21032494600F051
:1015400075FEA88DE884BDE8F08700003600002015
:10155000AC040020B8020020F806002010B50221DB
:101560000748FFF7DBFEC820FFF7A8FC4FF4165032
:10157000FFF7D4FBBDE81040C820FFF79FBC000078
:10158000000C014070470000034A516821F44041BB
:10159000014351607047000000100240054A0029D5
:1015A00003D0D1690143D1617047D1698143D161D1
:1015B0007047000000100240054A002903D09169DD
:1015C00001439161704791698143916170470000C7
:1015D00000100240054A002903D0D1680143D160C0
:1015E0007047D1688143D16070470000001002400D
:1015F00010B5264A516801F00C01254B002927D06F
:10160000042927D0082927D00360516801F0F00190
:101610000909204B5C5C0168E1404160546804F4B6
:10162000E064240A1C5D21FA04F48460546804F424
:101630006054E40A1B5DD940C160526802F4404224
:10164000920B144B1B1F9A5CB1FBF2F1016110BDB0
:101650000360DAE70360D8E7516801F4701153685A
:1016600003F48033022404EB914133B153689B03AC
:1016700007D5094B59430160C7E7074B5943016040
:10168000C3E7034B59430160BFE70000001002406D
:1016900000127A001800002000093D00704700F099
:1016A00001B800000CB500220192009227480168A1
:1016B00041F4803101604FF4A063016801F400310E
:1016C00000910199491C0191009911B90199994220
:1016D000F3D10168890302D50121009100E0009255
:1016E0000099012930D11A490A6842F010020A60B3
:1016F0000A6822F003020A600A6842F002020A60E5
:101700004168416041684160416841F480614160E5
:10171000416821F47C114160416841F4E811416065
:10172000016841F08071016001688901FCD5416860
:1017300021F003014160416841F0020141604168CC
:10174000C1F381010229FAD10CBD00000010024052
:10175000002002402DE9F0412D4C2088400861888E
:101760000325B1FBF5F10A3189B22A4E47F6FF7223
:1017700032805A23642200F0B1FC2088800800EBFC
:10178000400061880627B1FBF7F2B1FBF5F102EBEF
:10179000410189B24FF6E07232802D23322200F0EF
:1017A0009DFC208880086188B1FBF7F2B1FBF5F160
:1017B00002EB410189B248F21F4232802D233222CE
:1017C00000F08CFC20886FF0170101EB500080B214
:1017D000282100F004FF20886FF0130505EB50006E
:1017E00080B2B42100F020FF208805EB900080B289
:1017F000E625294600F0CEFE2088800800EB400058
:10180000103880B22946BDE8F04100F0A5BE0000C6
:10181000F8060020420000202DE9F041914FF889A0
:10182000B0F5FA7F7CD3B878022879D3387E0028C7
:1018300076D00024B97A012902D0022803D004E02E
:101840004FF4FC6401E04FF6FF74787A397A002691
:1018500088427DD0DFF8108250282ED3A8F80040AF
:101860000C242346CD222146CA2000F0DDFB641C57
:10187000E4B2132CF5D30C242346D2222146CF20E8
:1018800000F0D2FB641CE4B2132CF5D30C242346E5
:10189000D7222146D42000F0C7FB641CE4B2132CED
:1018A000F5D30C242346DC222146D92000F0BCFBD2
:1018B000641CE4B2132CF5D3CAE03C2831D3A8F859
:1018C00000600C252B46CD222946CA2000F0ACFB37
:1018D0006D1CEDB2132DF5D3A8F800400C2423465F
:1018E000D2222146CF2000F09FFB641CE4B2132CCF
:1018F000F5D30C242346D7222146D42000F094FBB4
:10190000641CE4B2132CF5D30C242346DC222146BC
:10191000D92000F089FB641CE4B2132CF5D397E0C6
:101920009EE0282832D3A8F800600C252B46CD2253
:101930002946CA2000F078FB6D1CEDB2132DF5D3BB
:101940000C252B46D2222946CF2000F06DFB00E06B
:1019500085E06D1CEDB2132DF3D3A8F800400C24E4
:101960002346D7222146D42000F05EFB641CE4B25B
:10197000132CF5D30C242346DC222146D92000F079
:1019800053FB641CE4B2132CF5D361E0142830D36C
:10199000A8F800600C252B46CD222946CA2000F06D
:1019A00043FB6D1CEDB2132DF5D30C252B46D22233
:1019B0002946CF2000F038FB6D1CEDB2132DF5D376
:1019C0000C252B46D7222946D42000F02DFB6D1C78
:1019D000EDB2132DF5D3A8F800400C242346DC22E9
:1019E0002146D92000F020FB641CE4B2132CF5D36F
:1019F0002EE068B3A8F800600C242346CD222146CF
:101A0000CA2000F011FB641CE4B2132CF5D30C24A3
:101A10002346D2222146CF2000F006FB641CE4B20C
:101A2000132CF5D30C242346D7222146D42000F0D2
:101A3000FBFA641CE4B2132CF5D30C242346DC22FD
:101A40002146D92000F0F0FA641CE4B2132CF5D33F
:101A50004FF480510548FFF761FC787A3872FE81B7
:101A6000BDE8F081AC04002042000020000C0140E1
:101A700010B518494FF6FF7008800923DE22194679
:101A8000C82000F0D1FA1523DE221946C82000F044
:101A9000CBFAC82215230921104600F0C5FADE2230
:101AA00015230921104600F0BFFA0D23C82219465C
:101AB000C52000F0B9FAC52211230D21104600F00F
:101AC000B3FA1123C822BDE810401946C52000F022
:101AD000ABBA00004200002070B5404DA88BB0F5B5
:101AE000FA6F7AD30024A87E3D49002647F6FF729C
:101AF000012808D0022814D0032821D004282ED091
:101B000005283BD068E00A80234620222146002099
:101B100000F08AFA641CE4B20D2CF5D30220A876FA
:101B20005AE00A800F24234618222146002000F0A4
:101B30007BFA641CE4B21C2CF5D30320A8764BE09E
:101B40000A801E24234610222146002000F06CFA51
:101B5000641CE4B22B2CF5D30420A8763CE00A8068
:101B60002D24234608222146002000F05DFA641C43
:101B7000E4B23A2CF5D30520A8762DE00E8023465A
:101B800020222146002000F04FFA641CE4B20D2C04
:101B9000F5D30F24234618222146002000F044FAF2
:101BA000641CE4B21C2CF5D31E24234610222146CB
:101BB000002000F039FA641CE4B22B2CF5D32D245C
:101BC000234608222146002000F02EFA641CE4B2CD
:101BD0003A2CF5D30120A876AE8370BDAC0400206A
:101BE0004200002010B5112000F044FD1420FFF742
:101BF00065F9D02000F03EFD072000F05DFD422099
:101C000000F05AFD1D2000F057FDD12000F032FDFC
:101C1000002000F051FD1A2000F04EFD092000F0D8
:101C20004BFDD22000F026FD012000F045FD2220D2
:101C300000F042FDC02000F01DFD102000F03CFD32
:101C40003B2000F039FD002000F036FD022000F0BE
:101C500033FD112000F030FDC52000F00BFD032006
:101C600000F02AFDC82000F005FD002000F024FD52
:101C7000252000F021FD212000F01EFD052000F0B0
:101C80001BFD002000F018FD0A2000F015FD652066
:101C900000F012FD252000F00FFD772000F00CFD74
:101CA000502000F009FD0F2000F006FD002000F09C
:101CB00003FDF82000F0DEFC012000F0FDFCFE201A
:101CC00000F0D8FC002000F0F7FC022000F0F4FC4B
:101CD000202000F0CFFC362000F0CCFC082000F0E3
:101CE000EBFC3A2000F0C6FC552000F0E5FC2B2070
:101CF00000F0C0FC002000F0DFFC002000F0DCFC65
:101D0000012000F0D9FC3F2000F0D6FC2A2000F092
:101D1000B1FC002000F0D0FC002000F0CDFC012040
:101D200000F0CAFCDF2000F0C7FC7820FFF7C6F8FF
:101D3000BDE81040292000F09DBC10B5CF2000F078
:101D400099FC002000F0B8FCC12000F0B5FC302068
:101D500000F0B2FCED2000F08DFC642000F0ACFC43
:101D6000032000F0A9FC122000F0A6FC812000F066
:101D7000A3FCE82000F07EFC852000F09DFC1020F4
:101D800000F09AFC7A2000F097FCCB2000F072FC67
:101D9000392000F091FC2C2000F08EFC002000F097
:101DA0008BFC342000F088FC022000F085FCF7203A
:101DB00000F060FC202000F07FFCEA2000F05AFCDC
:101DC000002000F079FC002000F076FCC02000F03C
:101DD00051FC1B2000F070FCC12000F04BFC0120E6
:101DE00000F06AFCC52000F045FC302000F064FCE7
:101DF000302000F061FCC72000F03CFCB72000F070
:101E00005BFC362000F036FC482000F055FC3A2000
:101E100000F030FC552000F04FFCB12000F02AFC0F
:101E2000002000F049FC1A2000F046FCB62000F02B
:101E300021FC0A2000F040FCA22000F03DFCF22032
:101E400000F018FC002000F037FC262000F012FC07
:101E5000012000F031FCE02000F00CFC0F2000F02D
:101E60002BFC2A2000F028FC282000F025FC08206C
:101E700000F022FC0E2000F01FFC082000F01CFCEB
:101E8000542000F019FCA92000F016FC432000F0BB
:101E900013FC0A2000F010FC0F2000F00DFC0020C5
:101EA00000F00AFC002000F007FC002000F004FC19
:101EB000002000F001FCE12000F0DCFB002000F03D
:101EC000FBFB152000F0F8FB172000F0F5FB0720C6
:101ED00000F0F2FB112000F0EFFB062000F0ECFB1D
:101EE0002B2000F0E9FB562000F0E6FB3C2000F040
:101EF000E3FB052000F0E0FB102000F0DDFB0F20ED
:101F000000F0DAFB3F2000F0D7FB3F2000F0D4FBCD
:101F10000F2000F0D1FB2B2000F0ACFB002000F0E4
:101F2000CBFB002000F0C8FB012000F0C5FB3F20E8
:101F300000F0C2FB2A2000F09DFB002000F0BCFB5B
:101F4000002000F0B9FB002000F0B6FBEF2000F00D
:101F5000B3FB112000F08EFB7820FEF7AFFFBDE849
:101F60001040292000F086BB70B5064600240948C1
:101F7000018845884D430021084600F077FA00F0BB
:101F8000BDFB03E0304600F097FB641CAC42F9D384
:101F900070BD0000F80600202DE9F003214A2C272F
:101FA0002A252B2691884FF0F00C49F241384FF446
:101FB000A07446F6040300280CD0994227D00120D3
:101FC00090711480A2F802C0414516D1D7711572E4
:101FD00056721CE000209071A2F800C05480414568
:101FE00001D0994213D1D7711572567299420ED110
:101FF00014804FF4F070508009E02220A1F50943CD
:10200000893B09D0D0712120107220205072BDE888
:10201000F003002000F07CB9D0714F2010724E20E8
:102020005072F4E7F80600202DE9FE4F4FF0000B48
:1020300000250026171AA3EB010881468A46681E70
:10204000002F03DD4FF00101019107E003D14FF0B4
:102050000001019102E00190C7F10007B8F1000F03
:1020600003DD4FF00100009007E003D14FF00000C6
:10207000009002E00090C8F10008474501DD3C46B1
:1020800000E04446601C029015E01FFA8AF11FFA36
:1020900089F000F015F83D444644A54202DD2D1BB1
:1020A00001988144A64202DD361B009882440BF160
:1020B000010B1FFA8BFB02988345E6DDBDE8FE8F1E
:1020C00010B500F0D3F900F019FB03484088BDE8D3
:1020D000104000F0F1BA0000400000202DE9FC5F44
:1020E00080468B4617469A4229D302FB02FA5B438D
:1020F0000093ABEB070085B20BEB070001901BE0F0
:10210000A8EB070084B208EB0709A5EB0B060FE06C
:10211000A4EB0800404306FB0600504506D8009992
:10212000884203D929462046FFF7CAFF641CA4B29F
:10213000A145EDD86D1CADB20198A842E0D8BDE82C
:10214000FC9F0000F8B501211C20FFF735FA4FF481
:102150007070ADF8000010208DF8030003208DF89A
:10216000020069462F48FFF77DF82E484FF40071B2
:102170001030016040210160802101608115016003
:1021800000F0FAFA3220FEF799FE3220FEF796FEB2
:10219000254C46F6040649F24135A088FF2806D3AF
:1021A000A0F57F41FF3902D0B0F5134F29D1D320DC
:1021B00000F060FA00F08CF800F08AF800F088F87F
:1021C0000002A08000F084F8A188C0B20843A0807B
:1021D000A84210D0BF2000F04DFA00F079F800F0CE
:1021E00077F800F075F80002A08000F071F8A1887F
:1021F000C0B20843A080A088A84202D0B04200D05C
:10220000A580A088A84202D1FFF797FD03E0B04265
:1022100001D1FFF7E7FC0020FFF7BEFE0020FFF72B
:10222000A3FEF8BD000C0140F80600202DE9F84F90
:1022300007460C464FF00008A1462248DFF888A068
:1022400000EB0210DFF884B00090009810F80860EE
:102250000025300604D54FF6FF70AAF8020002E010
:102260000020AAF8020021463846FFF729FF700631
:10227000060E641CA4B2BBF80000B84205D84FF6A5
:10228000FF70AAF80200BDE8F88FA4EB090010283F
:102290000BD06D1CEDB2082DDBD308F1010808F05E
:1022A000FF08B8F1100FD0D3EDE74C467F1CBFB24A
:1022B000BBF80000B842F0D84FF6FF70AAF8020051
:1022C000E1E700000C4E000840000020F806002066
:1022D0002DE9F04100F028FA0C4C4FF4807020609A
:1022E000802020604026201D0660451505600120E5
:1022F000FEF7FEFD00F008FA07460120FEF7F8FDA4
:10230000266025603846BDE8F0810000100C0140D1
:1023100070B50024544D46F604022946AB798988ED
:10232000012B18D1914216D0082814D2DFE800F012
:102330000406080A0C0E101206200CE007200AE022
:10234000042008E0052006E0012004E0002002E06F
:10235000032000E00220A1F51343413B01D091424C
:1023600059D1082812D2DFE800F0110406080A0C3F
:102370000E1080240AE0402408E0C02406E0202457
:1023800004E0602402E0A02400E0E024362044F0D1
:102390000804914201D144F0020400F06BF9204698
:1023A00000F08AF9A00606D528886988884208D2F4
:1023B0002980688005E028886988884201D92980B9
:1023C0006880287A00F056F9002000F075F90020A6
:1023D00000F072F92888401EC0F30F2000F06CF95D
:1023E0002878401EC0B200F067F9687A00F042F920
:1023F000002000F061F9002000F05EF96888401EBE
:10240000C0F30F2000F058F9A878BDE87040401ED6
:10241000C0B200F051B9082812D2DFE800F004067B
:1024200008110A0C0E1030240AE0102408E02024C1
:1024300006E0382404E0282402E0182400E0082400
:10244000A1F50940893809D0032044F4805400F0F4
:1024500011F92046BDE8704000F02EB9112046F277
:1024600040010C43F3E70000F806002070B5044675
:102470000E461A4D2846AA88007AA2F51341413922
:1024800007D0A2F5D041043903D0A979012913D08E
:1024900016E000F0EFF8200A00F00EF9E0B200F0CC
:1024A0000BF9687A00F0E6F8300A00F005F9F0B2AE
:1024B000BDE8704000F000B92988091B491E8CB2A4
:1024C00000F0D8F8204600F0F7F8287A00F0D2F8AB
:1024D0003046BDE8704000F0EFB80000F80600207C
:1024E0002DE9F84F82460C460027A046184902EB1A
:1024F000C20001EB8000DFF85C9000900098C65DA0
:1025000000254FF6FF7B300602D5A9F802B002E0A5
:102510000020A9F8020021465046FFF7D1FD7006C1
:10252000060E641CA4B2A4EB0800182809D06D1C88
:10253000EDB2082DE7D37F1CFFB2242FDED3BDE818
:10254000F88F44460AF1010A1FFA8AFAF3E70000FD
:10255000FC5300084000002070B504460D463022B0
:1025600029462046FFF762FE04F1080080B22D22C2
:102570002946FFF75BFE04F1100080B211222946C4
:10258000FFF754FE1834A0B22946BDE8704010226F
:10259000FFF74CBE70B504460D4630222946204652
:1025A000FFF744FE04F1080080B22D222946FFF710
:1025B0003DFE04F1100080B211222946FFF736FEDD
:1025C00004F1180080B20E222946FFF72FFE2034B6
:1025D000A0B22946BDE870401022FFF727BE70B5B3
:1025E00004460D46002229462046FFF779FF04F1F4
:1025F0000C0080B201222946FFF772FF04F1180097
:1026000080B202222946FFF76BFF04F1240080B25A
:1026100003222946FFF764FF3034A0B22946BDE803
:1026200070400422FFF75CBF70B504460D4655228A
:1026300029462046FFF7FAFD04F1080080B2472240
:102640002946FFF7F3FD04F1100080B20F2229465E
:10265000FFF7ECFD04F1180080B24D222946FFF788
:10266000E5FD2034A0B22946BDE870401322FFF7F3
:10267000DDBD00002DE9F041064600F07DF80D4C6F
:102680004FF4807020604020251F2860C70027601D
:102690000120FEF72DFC304600F096F80120FEF7F1
:1026A00027FC802626600120FEF722FC2E602F608A
:1026B000BDE8F081140C01402DE9F041064600F020
:1026C0005BF80D4C4FF48070206040202060C50006
:1026D000271D3D600120FEF70BFC304600F074F82A
:1026E0000120FEF705FC80263E600120FEF700FC7D
:1026F00026602560BDE8F081100C01400148C079DA
:10270000FFF7B8BFF806002005488068C1B2054849
:1027100000684FF47F4202EAC000084480B270476C
:102720000010014008080140F8B5104C207801283D
:102730001AD0FF20ADF8000004268DF803600325B1
:102740008DF8025069460A48FEF78CFD4FF4FF50A1
:10275000ADF800008DF803608DF802506946054819
:10276000FEF780FD01202070F8BD00004000002031
:102770000010014000080140F8B5104C20780228F4
:102780001AD0FF20ADF8000010268DF80360032555
:102790008DF8025069460A48FEF764FD4FF4FF5079
:1027A000ADF800008DF803608DF8025069460548C9
:1027B000FEF758FD02202070F8BD00004000002008
:1027C0000010014000080140C1B2084A1161C9432C
:1027D000C9B25161010A4901054A11606FEA10202E
:1027E0000006C00C111D0860704700000010014079
:1027F000100801404FF0E021042804D0086920F0BF
:10280000040008617047086940F0040008617047DF
:102810007047000010B50F48016841F001010160E8
:1028200041680D4A1140416001680C4A1140016045
:10283000016821F480210160416821F4FE014160BA
:102840004FF41F018160FEF72AFF05494FF0006039
:10285000086010BD001002400000FFF8FFFFF6FE08
:1028600008ED00E010B5354C0121204600F07FF85E
:10287000002861D00121204600F06AF8304C314B2D
:1028800000212088A8B1020413D41A78C82A01D8DC
:10289000521C1A701A78142A0DD35A88824205D114
:1028A00040F4004020805980197004E0588019706D
:1028B00001E019705980244C2088A8B1020413D477
:1028C0005A78642A01D8521C5A705A78142A0DD3A7
:1028D0009A88824205D140F4004020809980597046
:1028E00004E09880597001E05970998017494FF6BB
:1028F000E852088A904201D2401C0882C88990425E
:1029000001D2401CC8818889904201D2401C888134
:10291000888B904201D2401C8883088C904201D25F
:10292000401C0884888A904201D2401C8882C88A50
:10293000904201D2401CC88210BD0000000400403B
:10294000340000202C00002036000020AC040020C1
:10295000C94301827047002904D0018841F0010178
:1029600001807047018821F0010101807047024613
:102970000020138A0B4092890A40002B02D0002AC3
:1029800000D001207047002A03D082890A43828147
:10299000704782898A4382817047000030B502887F
:1029A0001B4C1C4DA0420DD0A8420BD0B0F1804F63
:1029B00008D0194B984205D0184B984202D0184BBA
:1029C000984203D122F070034A881A43154B98426B
:1029D00006D0154B984203D022F44073CA881A439C
:1029E00002808A8882850A880285A0420AD0A8428D
:1029F00008D00E4A904205D00D4A904202D00D4AAE
:102A0000904201D1097A01860121818230BD000006
:102A1000002C014000340140000400400008004048
:102A2000000C004000100040001400400040014035
:102A3000004401400048014070B5164C40F2255555
:102A40002946204600F0ADF888B1204600F042F952
:102A5000C3B211480288110409D410498B54521C86
:102A600092B202805A2A02D342F400410180082126
:102A7000204600F08FF8012806D1204600F02AF900
:102A80000821204600F076F829462046BDE870402F
:102A900000F070B8003801403200002060000020D3
:102AA00070B5174D40F225563146284600F079F8AA
:102AB00090B1284600F00EF9C4B212490B881804F0
:102AC0000AD4581C82B210480A80C454B2F5F07F70
:102AD00002D342F4004008800821284600F05AF84A
:102AE000012806D1284600F0F5F80821284600F014
:102AF00041F831462846BDE8704000F03BB8000080
:102B00000044004034000020C400002070B5164D81
:102B100040F225563146284600F043F888B1284651
:102B200000F0D8F8C4B211490B88180409D4581C15
:102B300082B20F480A80C4543B2A02D342F40040B8
:102B400008800821284600F025F8012806D12846EB
:102B500000F0C0F80821284600F00CF8314628465D
:102B6000BDE8704000F006B8004800403600002084
:102B7000B80200208A05C94301807047002904D0AB
:102B8000818941F4005181817047818921F400518C
:102B9000818170470246002012880A4200D001203D
:102BA000704770B5002440F66A12C1F3421301F079
:102BB0001F05012606FA05F2012B0CD0022B0DD0C1
:102BC000838A1340090A8E40008830400BB100B15F
:102BD0000124204670BD83891340F3E7038A134024
:102BE000F0E710B540F66A13C1F3421301F01F0479
:102BF0000121A140012B07D0022B07D014303AB19C
:102C000002680A43026010BD0C30F8E71030F6E7A6
:102C100002688A43026010BD30B585B004460D4697
:102C2000208A4CF6FF710840E98801432182A0897F
:102C30004EF6F3110840A9882A8911436A89024394
:102C40001143A181A08A4FF6FF410840A9890143A1
:102C5000A1826846FEF7CCFC1D48844201D103984E
:102C600000E00298A189090408D500EBC00101EB3E
:102C7000001029684900B0FBF1F007E000EBC0014B
:102C800001EB001029688900B0FBF1F06422B0FB71
:102C9000F2F109010B096FF018056B4300EB83009B
:102CA000A3891D044FF0320307D503EBC000B0FB2E
:102CB000F2F000F00700084306E003EB0010B0FB61
:102CC000F2F000F00F000843208105B030BD000095
:102CD000003801408088C0F308007047FEE700001C
:102CE0000FB4084B10B504A902AA039800F06EF9BE
:102CF000044602A9002000F000FD204610BC5DF84B
:102D000014FB0000FB360008490050EAC12018BF40
:102D100004204A0D18BF40F0010040F2FF72B2EBF0
:102D2000515F08BF40F00200012808BF052070472E
:102D30002DE9F0414F1E00EBC7010446D1E9000127
:102D400015461E4637F006020DD02A463346FDF7DB
:102D5000D9FA7F1E04EBC703D3E90023FDF72BFA52
:102D600037F00602F1D1022F25D0042F13D0062F01
:102D700018BFBDE8F0812A463346FDF7C3FAD4E90F
:102D80000A23FDF718FA2A463346FDF7BBFAD4E9C1
:102D90000823FDF710FA2A463346FDF7B3FAD4E9C3
:102DA0000623FDF708FA2A463346FDF7ABFAD4E9C5
:102DB0000423FDF700FA2A463346FDF7A3FAD4E9C7
:102DC0000223FDF7F8F92A463346FDF79BFAD4E9CA
:102DD0000023BDE8F041FDF7EEB9000000221346E4
:102DE00010460149FDF7A0BC0000F03FFDF7E3B934
:102DF0000022134610461146FDF796BC40F2013200
:102E000000204FF0E041FDF7EFBA0000024A002039
:102E10001107FDF7E9BA000001FDFFFF02E008C855
:102E2000121F08C1002AFAD170477047002001E044
:102E300001C1121F002AFBD1704700000149086040
:102E4000704700005C0000202DE9FF5F82B0002188
:102E5000DDE90430020DDDF840B0034318D044F63C
:102E60001050A2F2FF3242431514119801281FD0CE
:102E7000A5EB0B00401C5FEA000A4FF000064E4F26
:102E8000DFF83891B046504615D5CAF1000413E07A
:102E9000119801244AA3012801D16FEA0B0102987D
:102EA000119AC0E90031C0E9024206B0BDE8F09FC6
:102EB000CBF10000DFE704460021404A491842EB0D
:102EC0000450CDE9001012E0E00707D032463B463F
:102ED00040464946FDF716FA8046894632463B464B
:102EE00010461946FDF70EFA06460F466410002CF0
:102EF000EAD1DDE90401DDE90023BAF1000F06DAC9
:102F0000FDF700FA42464B46FDF7FCF905E0FDF7F8
:102F10000BFC42464B46FDF707FC04460E460022DA
:102F2000284BFDF7C1FA03D84FF0FF30014607E008
:102F30000022254B20463146FDF73DF9FDF763FCA5
:102F4000102409E0002C0ADB0A220023FDF7F6FA20
:102F5000039B30321A55641E50EA0102F2D1641C00
:102F6000039AC4F111031444119A012A03D00122D7
:102F700008430DD10AE0084304D000204FF0110BA4
:102F8000119072E7A3EB0B056D1E0DE05B4504DDB0
:102F90004FF0000205F1010504E003DA4FF00002F2
:102FA000A5F10105002AECD002981199C0E902317F
:102FB000C0E9004579E70000000014400000F03F40
:102FC000300000000000F0430000E03F2DE9FF4F1B
:102FD00095B09B468946064600250FE2252877D105
:102FE00000242746F84A0121059400E0044316F81E
:102FF000013F203B01FA03F01042F7D130782A2834
:1030000011D06FF02F033078A0F13002092A16D8C2
:10301000059A44F0020402EB820203EB42021044E0
:10302000761C0590EFE759F8042B0592002A03DA85
:10303000504244F40054059044F00204761C307869
:103040002E2816D116F8010F44F004042A280DD0BA
:103050006FF02F023078A0F13003092B09D807EB6D
:10306000870302EB4303C718761CF3E759F8047B88
:10307000761C30786C280FD006DC4C2817D06828D6
:103080000DD06A2814D104E0742810D07A280FD10A
:103090000DE044F400140AE044F4801401E044F428
:1030A00040147278824202D104F58014761C761C9A
:1030B000307866280BD013DC582877D009DC00283C
:1030C00075D04528F6D04628F4D047281AD19DE17E
:1030D00018E0632835D0642879D0652812D195E1AD
:1030E000702873D008DC6728F1D069286FD06E286B
:1030F0000DD06F2806D1B5E073282CD0752875D077
:10310000782874D05A46179990476D1C75E1C4F31E
:103110000250022809D003280DD0D9F80010042845
:103120000DD00D6009F1040967E1D9F80010EA1724
:10313000C1E90052F6E7D9F800100D80F2E70D70F2
:10314000F0E719F8041B8DF8001000208DF801003D
:10315000EA46012003E059F804AB4FF0FF30610765
:103160004FF0000102D40DE008F101018846B94298
:103170000FDA8045F8DB1AF808100029F4D108E0CE
:1031800008F1010188468142FADB1AF8081000298B
:10319000F6D105985B46A0EB080721463846179AFA
:1031A00000F094FA284400EB080507E04DE029E11F
:1031B0000DE01AF8010B5A4617999047B8F101082B
:1031C000F7D25B4621463846179A13E142E00A22BD
:1031D0000092C4F302524FF0000A022A08D059F8B4
:1031E00004CB032A4FEAEC710AD00DE029E02AE073
:1031F00009F1070121F00702F2E802C1914609E056
:103200000FFA8CFC4FEAEC71042A03D14FFA8CFCC4
:103210004FEAEC71002907DA0A460021DCF1000CC4
:1032200061EB02012D2202E0220504D52B228DF84C
:103230000420012203E0E20701D02022F7E79046B4
:1032400059E00A2102E010220DE010214FF0000A9F
:1032500000910BE010224FF0000A44F0040408270C
:10326000009203E008224FF0000A0092C4F30252D9
:10327000022A05D059F804CB0021032A08D009E01E
:1032800009F1070121F00702F2E802C1914605E0C9
:103290001FFA8CFC042A01D10CF0FF0C4FF000083F
:1032A000220728D5702806D0009B83F0100353EA2C
:1032B0000A0305D00EE040228DF80420012208E028
:1032C0005CEA010206D030228DF804208DF805005A
:1032D00002229046009B83F0080353EA0A030AD1B6
:1032E0005CEA010201D1620705D530228DF8042085
:1032F0004FF001087F1E582804D034A003900EA878
:1033000002900DE036A0F9E753466046009AFDF7BB
:1033100015F984460398825C0298401E0290027060
:103320005CEA0100F0D1029806A9081A00F1200A0F
:10333000600702D524F4803400E00127574502DD00
:10334000A7EB0A0000E0002000EB0A0100900598BE
:103350004144401A0590E00306D45B462146179A83
:10336000059800F0B3F90544002706E001A85A4685
:10337000C05D179990476D1C7F1C4745F6DBE00345
:103380000CD55B462146179A059800F09FF9054435
:1033900004E030205A46179990476D1C0099481E4A
:1033A00000900029F5DC08E0029802995A4600785E
:1033B000491C0291179990476D1CBAF10001AAF1BE
:1033C000010AF1DC65E100000928010030313233E7
:1033D0003435363738396162636465660000000051
:1033E000303132333435363738394142434445463B
:1033F0000000000000F058F90544761C30780028E1
:103400007FF4ECAD19B02846BDE8F08F620700D418
:10341000062709F1070222F0070CFCE80223E14627
:1034200003F000485FEA080C02D00FF2702C0DE0A8
:103430005FEA045C02D50FF2682C07E05FEAC47C07
:1034400002D00FF2602C01E0AFF2700C4FF0FF38A9
:1034500023F00043CDF850C065280CD006DC452889
:1034600009D046281DD047283DD13DE0662818D018
:1034700067287ED138E00021112F01DB112000E008
:10348000781CCDE9000106A90EA8FFF7DDFCDDE9F7
:103490000F010E9A03910021009207F1010A049195
:1034A0004DE04FF000400097CDE9011006A90EA8AD
:1034B000FFF7CAFCDDE90F0203920E9B119900226F
:1034C000DDF80CA00093049211B9791C00EB010AFD
:1034D000B7EB0A0004D4C0F1FF3007F1010A0490F1
:1034E000AAEB0700019044E0012F00DA0127002138
:1034F000112F01DD112000E03846CDE9000106A9B9
:103500000EA8FFF7A1FCDDE90F010E9A039100213F
:1035100004910092BA4621070CD40399514500DA70
:103520008A46BAF1010F05DD009AAAF10101515C4A
:10353000302908D0B84202DA10F1040F06DA01216E
:10354000CDE9011015E0AAF10101E9E7002805DC49
:10355000049901440491AAEB000102E0411C514589
:1035600000DD8A460499401A401C01904FF000404B
:103570000290200704D40198504501DBCDF8048067
:1035800000208DF84F0002980DF14F07B0F1004F69
:1035900025D02B200E9002984FF0020800280CDA5C
:1035A000404202902D200E9007E00A210298FCF77D
:1035B000AFFF3031029007F8011DB8F10001A8F10A
:1035C0000108F2DC02980028EFD1791E0E980870ED
:1035D000307800F0200040F0450007F8020D12A8F6
:1035E000C01B00F107081498007800B1012000EB1F
:1035F0000A01019801EBE07105984144401A401E10
:103600000590E00306D45B462146179A059800F022
:103610005DF805441498007818B15A4617999047F8
:103620006D1CE00324D55B462146179A059800F0EF
:103630004DF805441CE00498002807DBDDE9030190
:10364000884203DD0098405C179901E0179930200B
:103650005A469047049805F10105401C04900198D2
:10366000401E019004D12E205A46179990476D1C98
:10367000BAF10001AAF1010ADDDC05E017F8010B3F
:103680005A46179990476D1CB8F10001A8F101083E
:10369000F4DC5B462146179A0598ABE62D00000046
:1036A0002B000000200000002DE9F0410446002519
:1036B0001E461746880404D405E039462020B0474A
:1036C0006D1C641EF9D52846BDE8F0812DE9F04156
:1036D000044600251E469046C80301D5302700E069
:1036E0002027880404D505E041463846B0476D1CC4
:1036F000641EF9D52846BDE8F0810A68531C0B60AA
:103700001070704770B504460F4E19E02568A08907
:10371000C00503D4A06808B1FFF7F4FFA089C00575
:1037200003D4206908B171688847A089800503D453
:10373000206A08B1716888477168204688472C461E
:10374000002CE3D170BD00004800002070B50D468C
:10375000846800E024682CB12946206A00F04AF809
:103760000028F7D1204670BD10B506492820096809
:10377000884704461CB128212046FCF702FD20465C
:1037800010BD00004800002000221146AFF3008069
:103790002DE9F04104460D469046FFF7E5FF064649
:1037A000134F0020B860C6B1204601F0C5F80146AD
:1037B000304600F077FB04468CB1B8F1000F13D00F
:1037C000204601F0B9F80446207868B13046FFF78A
:1037D00099FFBC600020BDE8F0810020FBE7304687
:1037E000FFF790FF0020F6E705B12C603046F2E7C6
:1037F0004800002070B504460D46002C01D02DB1C4
:103800000AE00DB1012070BD002070BD012070BD27
:10381000207898B1641C6D1C2078FCF7A5FC064646
:103820002878FCF7A1FC8642F2D02078FCF79CFCBB
:1038300004462878FCF798FC201A70BD002070BD63
:1038400010B5002821D0114B0022001F196803E099
:10385000814203D80A4649680029F9D152B1136858
:10386000841A9C4204D1006818441060104602E09B
:10387000506000E0186039B102680B1A934203D11E
:103880000B681A4402604968416010BD5400002072
:10389000FDF782F9FDF712FAFDF79CF9C820FDF754
:1038A0000DFBFDF731F94FF47A70FDF707FBFEF7DA
:1038B00049FC0E4C40F6B8302082E081A081A08304
:1038C000C8206084A084E084FDF7F4FBFDF77EFA55
:1038D000FDF728FBFDF78AFB207E022803D1FEF7C7
:1038E000FBF8FDF777FDFDF797FFEDE7AC0400204F
:1038F000F0B50B30154D20F007010024144A0FE0FD
:1039000003688B420BD38B4205D95E1A4318476874
:10391000C3E9006700E04368136002C004E0021DD1
:1039200010680028ECD12046002802D1286808B190
:103930000020F0BD064A07481060074A121A22F01C
:103940000702C0E9002401202860D7E758000020C2
:10395000540000200C070020081700202DE9F0413A
:1039600007460878234E5B2803D0B1600020BDE8ED
:10397000F0810520F860481C00F0DEFF0446207846
:103980005D2811D0FFF7F0FE0546B86070B1204603
:1039900000F0D2FF0146284600F084FA00F0CCFF88
:1039A0000446200004D016E0601CE0E70020DEE7BB
:1039B0000020DCE7FFF7D8FEB0B12860456005467F
:1039C000601C00F0B9FF0146284600F06BFA00F0D9
:1039D000B3FF044654B120782C28EBD020785D2822
:1039E00006D0B4600020C2E70020C0E70020BEE798
:1039F000601CBCE7480000200178A1F13002092AD0
:103A000001D811460AE0A1F14102052A01D837394F
:103A100004E0A1F16102052A0AD857390A01401CC5
:103A20000178A1F13003092B04D8303A11440EE09B
:103A300000207047A1F14103052B02D8373A114409
:103A400005E0A1F16103052B0BD8573A11440A0197
:103A5000401C0178A1F13003092B04D8303A1144FD
:103A60000EE000207047A1F14103052B02D8373A40
:103A7000114405E0A1F16103052B0AD8573A11441E
:103A800009014078A0F13002092A04D830390844ED
:103A9000704700207047A0F14102052A02D837394B
:103AA00008447047A0F16102052A02D8573908443A
:103AB00070470020704700002DE9F34F85B08A461B
:103AC0000024254659490020CDE902010026374649
:103AD0008346012001909AF800002D2805D1544911
:103AE0000020CDE902010AF1010A9AF8000030280D
:103AF00001D10AF1010A9AF800003138082817D8D4
:103B00009AF800003038FCF78BFC8046894600228A
:103B1000484B20462946FCF7F5FB42464B46FCF74E
:103B20004AFB04460D461AF8010F30380928E7D938
:103B30009AF800002E2827D19AF80100302823D3C4
:103B4000392821D80AF1010A9AF800003038FCF728
:103B500067FC804689460022364B20462946FCF702
:103B6000D1FB42464B46FCF726FB04460D4600229D
:103B70002E4B30463946FCF7BFFB06460F461AF877
:103B8000010F30380928DFD99AF80000652801D0E4
:103B900045281DD11AF8010F2B2802D02D2803D05B
:103BA00010E00AF1010A0DE04FF0FF3001900AF138
:103BB000010A07E00BEB8B0100EB410B0AF1010A54
:103BC000ABF1300B9AF80000A0F130010929F1D9CE
:103BD00001980BFB00F0FCF723FC32463B46FCF758
:103BE000EAFA02460B460020124900F0B9F90646EF
:103BF0000F46DDE9020122462B46FCF783FB3246E5
:103C00003B46FCF77FFB04460D460598C0E9064598
:103C100020462946FCF715FC0599486105980321C3
:103C2000C16007B05046BDE8F08F00000000F03FD3
:103C30000000F0BF000024402DE9F041074608785D
:103C4000384E7B2803D0B1600020BDE8F08106200B
:103C5000F860481C00F070FE054628787D2818D0D2
:103C6000FFF782FD0446B860A8B1284600F064FE64
:103C70000146204600F058F800F05EFE68B1216968
:103C800021620027276101783A2908D0B06000201E
:103C9000DBE7681CD9E70020D7E70020D5E7401C08
:103CA00000F04AFE0146204600F0FCF800F044FE19
:103CB0000546280028D1C8E7FFF756FDA8B12060C7
:103CC00044600446681C00F037FE0146204600F0C0
:103CD0002BF800F031FE50B1216921622761017893
:103CE0003A2906D0B0600020AFE70020ADE7002001
:103CF000ABE7401C00F020FE0146204600F0D2F861
:103D000000F01AFE054645B128782C28D4D0287832
:103D10007D2804D0B560002097E7002095E7681C57
:103D200093E70000480000202DE9F04780460D464B
:103D30006C1C00202A785949222A06D08D60BDE8E3
:103D4000F087641C5C2A00D1641C2278222A02D0ED
:103D50000AB1401CF5D10968401C88470746380065
:103D600004D0681C3C464FF480691AE00020E6E766
:103D70005C2903D004F8011B401C12E0461C30787B
:103D8000722825D006DC622816D0662818D06E2846
:103D900004D119E074281FD0752821D004F8010B34
:103DA000701C0178222901D00029E1D10021217065
:103DB000017822296AD06AE0082004F8010BEFE7B5
:103DC0000C2004F8010BEBE70A2004F8010BE7E7ED
:103DD0000D2004F8010BE3E7092004F8010BDFE7ED
:103DE000701CFFF709FE0546361DA5F55C404845E9
:103DF000D6D3002DD4D0A5F55840484513D27078BD
:103E00005C28CDD1B0787528CAD1F01CFFF7F4FD3D
:103E1000B61DA0F55C414945C2D2C5F3090161F365
:103E20009F2000F580350421802D01D2012108E07A
:103E3000B5F5006F01D2022103E0B5F5803F00D255
:103E40000321601801291AD0022911D0032908D0B2
:103E5000042919D105F0BF0242F0800200F8012DBB
:103E6000AD0905F0BF0242F0800200F8012DAD0956
:103E700005F0BF0242F0800200F8012DAD09084AAA
:103E8000525C2A4300F8012D441889E7401CC8F809
:103E900010700421C8F80C1051E700004800002001
:103EA0003458000870B505460C46002C20D004227A
:103EB00024A12046FCF770F9E0B1052223A1204699
:103EC000FCF76AF9D0B1042222A12046FCF764F97C
:103ED000C0B1207822281AD02D2803D0A0F13001BB
:103EE00009291AD821462846BDE87040FFF7E4BDED
:103EF000002070BD0220E860201D70BD0020E86039
:103F0000601D70BD0120E8606861201D70BD214604
:103F10002846BDE87040FFF707BF5B2805D07B2827
:103F200009D00E488460002070BD21462846BDE8B7
:103F30007040FFF713BD21462846BDE87040FFF7EB
:103F40007BBE00006E756C6C0000000066616C73D7
:103F500065000000747275650000000048000020D4
:103F60002DE9F04D1D460C4698B0174621F0004152
:103F700023F00043002814BF4FF0010C4FF0000C59
:103F80000CEB440CFE4A0CEB02064FEA620C664551
:103F90002BD33E0018BF012606EB45061644F94A0E
:103FA000964222D3F84A53EA070C02D0944205D134
:103FB00048B918B000201146BDE8F08D002808BFB0
:103FC0004FF0000C01D04FF0010C0CEB440212F545
:103FD000001F0AD8002F14BF4FF0010C4FF0000C47
:103FE0000CEB450212F5001F07D918B03A462B46D4
:103FF0002146BDE8F04DFEF7F9BE0022DFF88CA3A4
:10400000002CB8BF534526DADFF884C36345A8BF48
:10401000022220DADFF870C39C451CDCDFF874C391
:104020000CEB235CBCF1140F08DDCCF1340627FA4D
:1040300006FC0CFA06F6BE420DD108E05FB9CCF1E1
:10404000140623FA06FC0CFA06F69E4203D10CF085
:104050000102C2F1020251EA000C19D1002D17DA57
:10406000002C18BF022A01D0012A07D00220FEF737
:10407000E5FE18B0BDE8F04DFEF7B0BE0220FEF739
:10408000DDFEFEF7ABFE18B081F00041BDE8F08D1B
:10409000B7F1000C6CD1534525D104F1804212F5E3
:1040A000801201BF00280020B74918B008BFBDE842
:1040B000F08DB548884207DC002DA1BF6046294637
:1040C00018B0BDE8F08D07E0281E05DA80F0004149
:1040D00018B06046BDE8F08DAF497944D1E90001E0
:1040E00018B0BDE8F08DDFF8A0C2634525D1002DE2
:1040F0001FDA19B1514512D1D8B909E0002840F0B2
:10410000EC82A24A214618B062F31E01BDE8F08D90
:104110000020214618B060F31E01BDE8F08D08DADA
:1041200018B02346BDE8F04D024600206146FCF77A
:10413000FBBA18B02146BDE8F08D514518DAB5F14B
:10414000804F0DD0A5F1005CBCF1FF5C10D1B4F143
:10415000000C0DDB18B06146BDE8F04D00F0F6BB79
:10416000234618B00246BDE8F04D1946FCF7CAB820
:10417000060024F0004C3BD1D9B1514533D1002C7D
:1041800006DD002DA1BF0020514618B0BDE8F08D1E
:10419000002C01DD002D1BDB002C13DA002D11DBC0
:1041A000012A4FF0000014BF78497C4918B0BDE8DF
:1041B000F08D022A18BF002C0AD0012A08D1002C49
:1041C00006DA0AE0002CB8BF002D11DA012A04D06B
:1041D000002018B00146BDE8F08D18B000204FF067
:1041E0000041BDE8F08DA1F14050B0F17F601AD0E0
:1041F000012000EBE47050EA020421D0624C521E10
:104200004FF0000B104304BF4FF0000B644C6548A7
:1042100083427CDD644A654893421FDD884217DB98
:10422000002D25DB37E0002C00DA4AB1022A0CBF52
:1042300001204FF0FF3018B0BDE8F04DFCF7F0B8AA
:104240000120FEF7FBFD18B0BDE8F04DFEF7D0BD34
:104250004D4A8A4202DC002D0ADC1CE0814202DA6F
:10426000002D18DA04E0484B994220DD002D12DDC4
:104270000220FEF7E3FDFEF7C1FD05460E460022D3
:10428000534658462146FCF73DF818B066F31E0128
:104290002846BDE8F08D0220FEF7D0FDFEF7B6FD02
:1042A0000A46214618B062F31E01BDE8F08D0022D7
:1042B00030466146FCF720F880460E466FF001025A
:1042C000FCF792F84FF05532394BFCF718F842469C
:1042D0003346FCF717F80022364BFCF710F88246FD
:1042E00042463346049110461946FCF70BF85246F5
:1042F000049BFCF707F88A4600904FF0C0422E4B13
:1043000040463146FBF7FEFF2C4A2B4B00E027E0EE
:10431000CDE9060151460098FBF7F4FF8246019172
:10432000274A284B40463146FBF7ECFF5246019B9B
:10433000FBF7E2FF82460B4602460591DDE90601E6
:10434000FBF739FFDDE90623002688463046FBF7F8
:10435000D3FF5246059BFBF7D2FF024600F07EB921
:104360000020B1F5801F07DA352230466146FCF7A0
:104370003BF806466FF0340000EB215024E00000CB
:10438000FFFF1F00FFFF0F000000F03F0000F07F65
:104390000000404301FCFFFFEA1700000000F0FFAF
:1043A0000000F0BF0000E0410000F043FFFFEF3FDE
:1043B0005555D53F0000E03F4715F73FFE822B657E
:1043C00044DF5DF80BAE543EA0F2FF300190C1F324
:1043D000130040F07F6141F040510291FE49884254
:1043E000D8BF002004DDFD498142C8BF012001DDA6
:1043F0000D9008E000200D900198401C019002985B
:10440000A0F5801002900299F54878440B910D991F
:1044100000EBC100D0E900230F9330460A920B99BC
:10442000FBF76AFFCDE90601DDE90A2130460F9B63
:10443000FBF7C1FE02460B460020EA49FCF774F97F
:10444000059102460B460090DDE90601FBF75AFF95
:104450001490E5488A464FF00008784402990068B5
:1044600012904FF0005040EA61010D980F9B01EB54
:10447000804000F5002109910A9A1298FBF73CFF51
:1044800032460B9BFBF73BFF42465346FBF73AFF96
:104490000646029140465146099B129AFBF732FFAD
:1044A000DDE90623FBF72BFF3246029BFBF724FFD7
:1044B000059B009AFBF726FF0091149A049053463F
:1044C00010461946FBF71EFF06460246C7480B4634
:1044D000029106217844FEF72BFCCDE90510029BE2
:1044E000324610461946FBF70DFFDDE90532FBF7B2
:1044F00009FF05910646534640461946149AFBF7B4
:104500005AFE009B049AFBF7FDFE3246059BFBF723
:1045100052FECDE905104246534610461946FBF7B8
:10452000F1FE0022B24B02910A90FBF744FEDDE956
:104530000532FBF740FE0E464246AD4B4046FBF7C8
:10454000DBFE029B0A9AFBF7D7FEDDE90532FBF79B
:10455000D6FE424602910A90334610465146FBF77A
:10456000D1FECDE906015346149A02990A98FBF749
:10457000C9FE8A4602903346424600990498FBF7EA
:10458000C1FE5346029AFBF716FE82460B460246D0
:104590000591DDE90601FBF70EFEDDE906230020AB
:1045A00088460646FBF7A8FE5246059BFBF7A7FE8A
:1045B000824609914FF060428E4B30464146FBF7F0
:1045C000A1FE049006918C4A8A4B50460999FBF74C
:1045D00099FE82460291894A894B30464146FBF753
:1045E00091FE5246029BFBF7E6FD864B7B440D9AFB
:1045F00003EBC203D3E90023FBF7DDFD0E90079127
:104600000198FBF70DFF0591DDE9061382460E9A2E
:104610000498FBF7D0FD7C4A7A440D9B02EBC30360
:10462000D3E9002300930292FBF7C5FD5246059B98
:10463000FBF7C1FD0026884652463046059BFBF736
:104640005BFE009B029AFBF757FE069B049AFBF762
:1046500053FE079B0E9AFBF752FE024600200B46C4
:10466000029038462946FBF74DFE824601912B46C3
:1046700038461946029AFBF73FFE32464346FBF79F
:1046800041FE5246019BFBF796FD07468A4632469D
:10469000434629460298FBF735FE05460E463A4644
:1046A0005346FBF788FD594A8846914221DBA8EB27
:1046B000020353EA000210D12A463346FBF71CFEE0
:1046C000CDE90401524A534B38465146FBF773FD7E
:1046D000DDE90423FBF7E8FE21D20220FEF7AEFB62
:1046E000FEF78CFB0A46214618B062F31E01BDE8B6
:1046F000F08D494B28F000429A4210D3474A08EB0C
:10470000020353EA00027FF4C6AD2A463346FBF7A4
:10471000F3FD3A465346FBF7C7FE7FF6BCAD0022D9
:10472000019228F000403E493E4A01EB205182426E
:1047300023DA481C4FF4801121FA00F040443A4A31
:10474000C0F30A517A44394BA1F2FF31CB4020EA41
:104750000303C0F3130040F48010C1F11401C840FA
:1047600012680190B8F1000FBCBF4042019028468A
:104770003146FBF7C1FD05460E462A46334638460C
:104780005146FBF718FD4FF000084246284B4046C3
:104790000591FBF7B7FDCDE90601264A264B4046B9
:1047A0000599FBF7AFFD009102902A46334640463B
:1047B0000599FBF7A1FD3A465346FBF7A0FD1F4ABA
:1047C0001F4BFBF79FFD009B029AFBF7F4FC07468B
:1047D000884602460B4635E08E9803007AB60B00F9
:1047E000321400000000F03F6A140000981300002B
:1047F0000000084009C7EE3FFD033ADCF5015B14F9
:10480000E02F3EBE70120000341200000000904005
:10481000FE822B654715973C00CC904000346F3FDB
:1048200001FCFFFF0000E03F80110000FFFF0F00D0
:10483000432EE63F396CA80C615C20BEEF39FAFECE
:10484000422EE63FDDE90601FBF7B5FCDDE9062374
:1048500005460E46FBF750FD3A464346FBF74FFD33
:104860000F462A463346009010461946FBF74AFD8C
:10487000824602462E4888460B4605217844FEF7BC
:1048800057FA52464346FBF73DFD2A463346FBF7AF
:1048900036FD80468A463B4628463146009AFBF75D
:1048A00031FD3B46009AFBF786FC06910090002202
:1048B0004FF0804340465146FBF71EFD0F460C90DB
:1048C0004246534628463146FBF71CFD3B460C9AB0
:1048D000FBF72AFF069B009AFBF70EFD2A4633469C
:1048E000FBF70AFD0022134BFBF709FD0546019873
:1048F0000E4601EB00510815002810DC2846314611
:10490000019AFBF771FDFEF7FFF9042808BFFEF7D7
:104910007DFA28463146019AFBF766FD05460B46AF
:1049200018B02A4658462146BDE8F04DFBF7EABCD0
:10493000201000000000F03F00E0401C002804D0E0
:104940000178002901D02029F7D970472DE9F041DD
:1049500006460F46FBF782FF041E0D4618BF0120D6
:10496000284320F00040C0F17F6000F1E040C00F1C
:104970000ED0301C18BF0120384320F00040C0F199
:104980007F6000F1E040C00F04BF0120FEF756FA3F
:1049900020462946BDE8F08100000000000000002C
:1049A00000000000000000003F4000000000000088
:1049B00000003000400030004000000009000BC043
:1049C0003D000BC03D00090018C024407FE022409C
:1049D00031800000180024C01B000D80324001808F
:1049E00003801C4027401C800740004010006000EE
:1049F00000000000000000000000000000001F8018
:104A0000204040200000402020401F800000000087
:104A1000090006001F8006000900000004000400D1
:104A20003F8004000400000000100060000000004F
:104A30000000000004000400040004000400000062
:104A4000000000400000000000000000002001C045
:104A500006003800400000001F8020402040204019
:104A60001F800000000010403FC000400000000018
:104A700018C02140224024401840000010802040EF
:104A8000244024401B80000002000D0011003FC0A4
:104A9000014000003C80244024402440238000004A
:104AA0001F80244024403440038000003000200058
:104AB00027C03800200000001B80244024402440F0
:104AC0001B8000001C0022C0224022401F800000EA
:104AD000000000000840000000000000000000008E
:104AE0000460000000000000000004000A00110043
:104AF0002080404009000900090009000900000069
:104B000000004040208011000A000400180020002E
:104B100023402400180000001F8020402740294027
:104B20001F400000004007C039000F0001C00040D6
:104B300020403FC0244024401B8000001F802040B4
:104B4000204020403080000020403FC020402040D6
:104B50001F80000020403FC024402E4030C0000095
:104B600020403FC024402E00300000000F00108085
:104B7000204022403380020020403FC00400040057
:104B80003FC02040204020403FC020402040000047
:104B90000060202020203FC02000200020403FC097
:104BA00024400B0030C0204020403FC02040004047
:104BB000004000C03FC03C0003C03C003FC00000BC
:104BC00020403FC00C4023003FC020001F802040F9
:104BD000204020401F80000020403FC0244024008F
:104BE000180000001F802140214020E01FA000008D
:104BF00020403FC02440260019C0004018C0244077
:104C00002440224031800000300020403FC020403E
:104C10003000000020003F80004000403F80200026
:104C200020003E0001C0070038002000380007C007
:104C30003C0007C038000000204039C0060039C0E1
:104C4000204000002000384007C03840200000000D
:104C5000304021C02640384020C000000000000045
:104C60007FE0402040200000000070000C00038026
:104C7000004000000000402040207FE000000000D5
:104C80000000200040002000000000000010001084
:104C90000010001000100010000000004000000094
:104CA00000000000000002800540054003C00040F5
:104CB00020003FC004400440038000000000038047
:104CC00004400440064000000000038004402440EB
:104CD0003FC0004000000380054005400340000045
:104CE000000004401FC0244024402000000002E0D7
:104CF000055005500650042020403FC004400400E9
:104D000003C000400000044027C000400000000035
:104D100000100010041027E00000000020403FC0F9
:104D20000140070004C00440204020403FC0004034
:104D30000040000007C0040007C0040003C00000DA
:104D4000044007C00440040003C00040000003808A
:104D50000440044003800000041007F004500440A5
:104D600003800000000003800440045007F000109E
:104D7000044007C002400400040000000000064098
:104D80000540054004C00000000004001F800440EE
:104D900000400000040007800040044007C00040BD
:104DA0000400070004C0018006000400060001C0E2
:104DB000070001C006000000044006C0010006C054
:104DC000044000000410071004E001800600040005
:104DD0000000044005C00640044000000000000040
:104DE00004007BE040200000000000000000FFF015
:104DF00000000000000040207BE0040000000000F4
:104E00004000800040002000200040000000000022
:104E10000000000000000000000000000000000092
:104E200000001FCC000C0000000000000000080083
:104E3000300060000800300060000000022003FC29
:104E40001E20022003FC1E200220000000000E187D
:104E500011043FFF10840C78000000000F00108444
:104E60000F3800C0077818840078000000780F849D
:104E700010C411240E9800E40084000808006800A3
:104E800070000000000000000000000000000000B2
:104E9000000007E018182004400200000000400253
:104EA0002004181807E00000000000000240024043
:104EB00001800FF00180024002400000008000806D
:104EC00000800FF800800080008000000001000DCD
:104ED000000E000000000000000000000000008044
:104EE0000080008000800080008000800000000CB6
:104EF000000C0000000000000000000000000006A0
:104F0000001800600180060018002000000007F073
:104F1000080810041004080807F000000000080446
:104F200008041FFC000400040000000000000E0C38
:104F300010141024104411840E0C000000000C18F2
:104F400010041104110412880C700000000000E02D
:104F50000320042408241FFC0024000000001F98E4
:104F6000108411041104108810700000000007F074
:104F700008881104110418880070000000001C004B
:104F8000100010FC13001C001000000000000E3880
:104F900011441084108411440E38000000000700F2
:104FA000088C10441044088807F00000000000003E
:104FB0000000030C030C00000000000000000000D3
:104FC0000001010600000000000000000000008059
:104FD00001400220041008081004000002200220F2
:104FE0000220022002200220022000000000100403
:104FF00008080410022001400080000000000E009C
:105000001200100C106C10800F00000003E00C1850
:1050100013E4142417C4082807D000000004003C3F
:1050200003C41C40074000E4001C000410041FFCE3
:105030001104110411040E880070000003E00C1824
:1050400010041004100410081C10000010041FFCB1
:10505000100410041004080807F0000010041FFCDE
:105060001104110417C410040818000010041FFCD8
:105070001104110017C010000800000003E00C1814
:105080001004100410441C780040000010041FFCA1
:1050900010840080008010841FFC100400001004A5
:1050A00010041FFC100410040000000000030001A5
:1050B000100110011FFE10001000000010041FFC62
:1050C000110403801464181C1004000010041FFC59
:1050D0001004000400040004000C000010041FFC75
:1050E0001F0000FC1F001FFC1004000010041FFC28
:1050F0000C04030000E010181FFC100007F0080863
:10510000100410041004080807F0000010041FFC2D
:1051100010841080108010800F00000007F0081825
:1051200010241024101C080A07F2000010041FFCB1
:105130001104110011C011300E0C000400000E1CEF
:1051400011041084108410441C3800001800100052
:1051500010041FFC100410001800000010001FF8BD
:1051600010040004000410041FF8100010001E00BA
:1051700011E0001C007013801C0010001FC0103CC8
:1051800000E01F0000E0103C1FC000001004180CDD
:10519000163401C001C01634180C100410001C0095
:1051A000130400FC13041C00100000000804101C71
:1051B0001064108413041C04101800000000000088
:1051C00000007FFE4002400240020000000030006C
:1051D0000C0003800060001C00030000000040027F
:1051E000400240027FFE00000000000000000000BE
:1051F00020004000400040002000000000010001AD
:105200000001000100010001000100010000400058
:105210004000200000000000000000000000009896
:10522000012401440144014400FC000410001FFC5F
:105230000088010401040088007000000000007074
:1052400000880104010401040088000000000070CF
:1052500000880104010411081FFC0004000000F88C
:10526000014401440144014400C80000000001045D
:1052700001040FFC1104110411001800000000D6F5
:1052800001290129012901C90106000010041FFCA0
:10529000008401000100010400FC0004000001047E
:1052A000190419FC000400040000000000000003C1
:1052B00000010101190119FE0000000010041FFC8B
:1052C0000024004001B4010C01040000000010049F
:1052D00010041FFC0004000400000000010401FC95
:1052E0000104010001FC0104010000FC010401FCB7
:1052F000008401000100010400FC0004000000F82B
:10530000010401040104010400F80000010101FF8F
:105310000085010401040088007000000000007096
:10532000008801040104010501FF000101040104DA
:1053300001FC00840104010001800000000000CC99
:10534000012401240124012401980000000001002F
:10535000010007F80104010400000000010001F849
:10536000000400040004010801FC000401000180A5
:105370000170000C001001600180010001F0010CBF
:10538000003001C00030010C01F0010000000104F8
:10539000018C00740170018C010400000101018185
:1053A0000171000E001801600180010000000184FD
:1053B000010C013401440184010C000000000000D4
:1053C0000000000001003EFC40024002000000001E
:1053D00000000000FFFF000000000000000040028D
:1053E00040023EFC010000000000000000006000E0
:1053F0008000800040004000200020000000000FDE
:10540000FFF80FFFF80C0C000C0C000C0C00040C47
:1054100000060C00061C0003F80001F0000000006C
:105420000000000FFFF80FFFF80FF00000FF8000F2
:1054300007F80007F801FF000FE0000FFFF80FFF6B
:10544000F80000000000000180100780700600F0E6
:105450000C01D00C03900C07100E1C1007F8100361
:10546000E01000001000000000000000000000003C
:1054700038000038000000000000000000000000BC
:10548000000000000000000000000000000080009C
:1054900038E007F87007B010042018042018043012
:1054A00018043030043CF0041FE00003000000004A
:1054B00000000000000003FC0000003FFFC00000EF
:1054C0007FFFF00000FC01F80001E000780003C05D
:1054D000001C000380001C000300000E00030000FD
:1054E0000E000380001C0003C0003C0001F00078A7
:1054F0000000FFFFF000007FFFE000000FFF000052
:10550000000000000000000000000000000000009B
:10551000000000000000000000001C000000001857
:105520000000000038000000007000000000E000F3
:10553000000001FFFFFC0003FFFFFC0003FFFFFC76
:10554000000000000000000000000000000000005B
:10555000000000000000000000000000000000004B
:1055600000000000000000000000100000000070BB
:10557000001C0000F8003C0001E0007C0003C000BB
:10558000FC00038001EC00038003CC0003800F0CBF
:105590000003801E0C0003803C0C000380F80C000C
:1055A00001E7E00C0001FFC00C0000FF000C000050
:1055B00018000C00000000000000000000000000C7
:1055C0000000000000008000003000E000007000DB
:1055D000F00001F000780001C0003C000380001CD6
:1055E000000380600C000300E00C000300E00C00EE
:1055F0000380E01C000381F01C0001E7B878000183
:10560000FF3FF80000FE1FF000001807C000000078
:105610000000000000000000000003800000000700
:10562000800000001F800000003F800000007B80A1
:10563000000001E380000003C38000000F838000AE
:10564000001E038000007C03800000F00380000344
:10565000FFFFFC0003FFFFFC0003FFFFFC00000056
:1056600003800000000380000000038000000000B1
:1056700000000000000000000020E0000007E0F053
:105680000000FFE0780003FFC01C0003F1801C0055
:105690000383800E000383800E000383800E0003CB
:1056A00083800C000383801C000381C03C000381C5
:1056B000E078000380FFF80003807FE00000001F17
:1056C000800000000000000000000000000000005A
:1056D00000000007000000003FE0000000FFF000B5
:1056E0000003F8F8000007E03C00001FC01C0000A9
:1056F0003F800C0000F9800E0001F1800E0003C114
:10570000800E000301C00C000201C01C000000E07C
:105710007C000000FFF80000007FF00000001FC0C8
:105720000000000000000000000000000000000079
:1057300003800000000380000000038000000003DD
:1057400080001C00038000FC00038007FC00038035
:105750001FE00003807F00000381F800000387E062
:105760000000039F00000003FC00000003F00000A5
:105770000003E000000003800000000000000000C3
:105780000000000000000007E000007E1FF00000A5
:10579000FFBFF80001E7F83C000381F01C00038024
:1057A000E00C000380E00E000300E00E000380E048
:1057B0000E000380E00C000381F01C0001E7B83C00
:1057C0000000FF3FF800007E1FF00000000FE00027
:1057D00000000000000000000000000000000000C9
:1057E0003FC00000007FE0000000FFF0000001E08B
:1057F00078000003C03806000380181E00038018DC
:105800007E00038019F80003801FE00003803FC082
:105810000003C07F000001E1FC000000FFF0000079
:10582000007FC00000003F000000000000000000FA
:10583000000000000000C0E0F0F8FC0000000000E4
:10584000000000000000F03F000000000000F83FF2
:1058500000000000000000000000004003B8E23F2C
:10586000000000000000000006D0CF43EBFD4C3EDE
:10587000033333333333E33FFFAB6FDBB66DDB3FD3
:105880004D268F515555D53F01411DA96074D13F1B
:1058900065DBC9934A86CD3FEF4E454A287ECA3F15
:1058A0003E5555555555C53F93BDBE166CC166BF97
:1058B0002CDE25AF6A56113FF16BD2C541BDBBBE90
:1058C000D0A4BE726937663E0000000000000000F0
:1058D000F058000800000020600000001C2E0008A6
:1058E0005059000860000020A81A00002C2E000863
:1058F00000A24A04000000000000000001020304AE
:10590000060708090204060800000000010203045B
:10591000010203040607080900000000000000005F
:105920000000000000000000010000000000000076
:1059300000000000FFFF0000F138000841380008B7
:105940000000000000000000000000000000000057
:0400000508000131BD
:00000001FF
