:020000040800F2
:10000000982000204501000807210008A51D0008D0
:100010000521000891100008113B000800000000B5
:10002000000000000000000000000000C9240008DB
:100030009310000800000000B32300083D360008BC
:100040005F0100085F0100085F0100085F01000810
:100050005F0100085F0100085F0100085F01000800
:100060005F0100085F0100085F0100085F010008F0
:100070005F0100085F0100085F0100085F010008E0
:100080005F0100085F0100085F0100085F010008D0
:100090005F0100085F0100085F0100085F010008C0
:1000A0005F0100085F0100085F0100085F010008B0
:1000B0005F010008913600085F0100085F01000839
:1000C0005F0100085F0100085F0100085F01000890
:1000D0005F01000865380008CD380008393900088C
:1000E000F91B00085F0100085F0100085F010008BC
:1000F0005F0100085F0100085F0100085F01000860
:100100005F0100085F0100085F0100085F0100084F
:100110005F0100085F0100085F0100085F0100083F
:100120005F0100085F0100085F0100085F0100082F
:10013000DFF80CD000F0CCFB00480047E94600088F
:10014000982000200648804706480047FEE7FEE763
:10015000FEE7FEE7FEE7FEE7FEE7FEE7FEE7FEE777
:100160004136000831010008A0F14101192900D8E9
:100170002030704740EA01039B0703D009E008C91B
:10018000121F08C0042AFAD203E011F8013B00F85C
:10019000013B521EF9D27047D2B201E000F8012BA8
:1001A000491EFBD270470022F6E710B513460A46F7
:1001B00004461946FFF7F0FF204610BD30B505464E
:1001C0002A460B4612F8010B13F8014B08B1A04266
:1001D000F8D01CB1002802D06D1CF1E7284630BDD4
:1001E000421C10F8011B0029FBD1801A70470346FE
:1001F00011F8012B00F8012B002AF9D1184670479D
:1002000030B505460020034600E05B1C934205D252
:10021000EC5CC85C201A01D1002CF6D130BD2DE970
:10022000FE4F804681EA0300C00F0C46009021F08B
:10023000004123F00045B8EB0200A94105D2404639
:10024000214690461C460B46024623F000401043D0
:1002500047D0270DC7F30A00C3F30A510290401A92
:10026000019040286BDAC3F3130040F4801B009820
:10027000924620B10023D2EB030A63EB0B0B0198EB
:100280005946C0F14002504600F0D5F906460D46E9
:1002900050465946019A00F0EDF910EB0800614113
:1002A000002487EA115284EAE7731A4340D0009A87
:1002B00062B3019A012A4FEA075215DC001B61EB79
:1002C00002014FF0004202EA0752CDE90042001C51
:1002D00041F5801132462B4600F024FA03B0BDE808
:1002E000F08F40462146F9E7001B61EB0201001C3C
:1002F00041F5801300185B412018A2F5001747EB69
:10030000030140EAD570B6196D4111E06D084FEA5E
:10031000360645EAC0754FEA0752001B61EB020141
:10032000001C41F5801149084FEA30000019514185
:1003300032462B4603B0BDE8F04F00F0E4B9009818
:10034000012240000023D0EB020263EBE07300982F
:1003500021464FEAE074B8EB000061EB0401E9E7E5
:1003600083F000435BE781F0004158E72DE9FE4F41
:1003700081EA030404F0004421F0004100944FF0AE
:10038000000B23F0004350EA01045ED052EA03045C
:100390005BD0C3F30A54C1F30A552C44A4F2F334DE
:1003A0000194A0FB0254C1F3130141F48011C3F383
:1003B000130343F4801301FB024400FB034E840A41
:1003C000970A44EA815447EA8357A4FB07680295D9
:1003D0008D0A05FB07854FEA932C04FB0C54270577
:1003E000029D4FEA065847EA1637B5EB08056EEB53
:1003F000070C870E920E47EA811742EA8312A7FB89
:100400000201B6EB0B0164EB00042B0D43EA0C3345
:100410005E1844EB1C50DA465146E7FB0201C5F377
:1004200013044FEA0B3343EA14534FEA0432019C9E
:1004300043EA0603A4F10C040294009CCDE900B445
:1004400000F070F903B0BDE8F08F00200146F9E735
:1004500070B521F0004303430CD0C1F30A550024CA
:10046000D5EB040564EB0403D617AD1AB34102DBE8
:100470000020014670BD201841EB025170BD96234B
:100480000022114600F011B90EB5C10F80EAE070EC
:100490000844CA07002140F233438DE80E000A46A3
:1004A0000B4600F03FF903B000BD70B5C1F30A522E
:1004B00001F000450024C1F3130140F2FF3341F481
:1004C00080119A4201DA002070BD40F233439A4213
:1004D000A2F2334203DC524200F0BCF800E090404C
:1004E0002C43F1D0404270BDC1F30A5210B5C1F3A4
:1004F000130140F2FF3341F480119A4201DA0020E7
:1005000010BD40F233439A42A2F2334203DC52421E
:1005100000F0A0F810BD904010BD00F0004230F097
:1005200000400AD0C10D01F56071C0F3160042EA27
:100530000151C2084007114370470020014670472F
:1005400030B5041E71F1000404DB4FF0004440425A
:1005500064EB0101141E73F1000405DB1C464FF02F
:100560000043524263EB0403994208BF904230BDFE
:1005700001F0004330B421F0004150EA010206D0FE
:100580000A0DA2F56072C1F31301002A02DC30BC2F
:1005900000207047440F44EAC104C100E01830BC99
:1005A00000EBC25000F078B830B50B460146002091
:1005B0002022012409E021FA02F59D4205D303FA25
:1005C00002F5491B04FA02F52844151EA2F10102A6
:1005D000F1DC30BD2DE9F05F0546002092469B46D8
:1005E00088460646814640241BE028464146474649
:1005F000224600F02FF853465A46C01A914110D3B4
:1006000011461846224600F016F82D1A67EB01082D
:100610004F4622460120002100F00DF817EB00099B
:100620004E41201EA4F10104DFDC484631462A4633
:100630004346BDE8F09F202A04DB203A00FA02F18D
:10064000002070479140C2F1200320FA03F31943C0
:1006500090407047202A04DB203A21FA02F0002162
:10066000704721FA02F3D040C2F1200291400843C2
:1006700019467047202A06DBCB17203A41FA02F0D0
:1006800043EAE07306E041FA02F3D040C2F12002EF
:1006900091400843194670470029A8BF7047401C85
:1006A000490008BF20F00100704710B4B0FA80FC88
:1006B00000FA0CF050EA010404BF10BC704749B1C5
:1006C000CCF1200421FA04F411FA0CF118BF012135
:1006D00021430843A3EB0C01CB1D4FEA00614FEA15
:1006E000102042BF002010BC704700EBC3501044E4
:1006F0000029A4BF10BC7047401C490008BF20F06F
:10070000010010BC704710B5141E73F1000408DA24
:10071000401C41F1000192185B411A4301D120F0C5
:10072000010010BD2DE9F04D92469B4611B1B1FA82
:1007300081F202E0B0FA80F220329046FFF77BFFB0
:1007400004460F4640EA0A0041EA0B0153465A4666
:10075000084313D0114653EA010019D0C8F14002F2
:100760005046FFF777FF05460E465046594642462B
:10077000FFF761FF084305D0012004E02046394619
:10078000BDE8F08D0020054346EAE0762C43374370
:100790000A986305E40AA0EB08000022FD0A44EA77
:1007A00047540A3002D500200146E9E70105101937
:1007B0006941DDE9084500196941BDE8F04DA2E74E
:1007C0002DE9F04D81EA030404F0004B21F00045CF
:1007D00014464FF0000A23F0004150EA050220D0F1
:1007E00054EA01021DD0C5F30A570246C5F31303AC
:1007F000C1F31300C1F30A5640F4801543F480138B
:10080000A7EB0608101BD64608F2FD3873EB05006F
:1008100002D308F1010801E092185B41B8F1000F22
:1008200003DA00200146BDE8F08D00204FF480116E
:10083000064684460EE0171B73EB050705D3121B13
:1008400063EB050306434CEA010C49084FEA30000C
:1008500092185B4150EA0107EDD152EA030012D031
:1008600082EA040083EA0501084305D0101BAB416E
:1008700006D20122002306E000224FF0004302E0EE
:100880006FF0010253101AEB06004CEB085110EB0D
:100890000A0041EB0B01BDE8F04DFFF734BFC1F397
:1008A0000A52C1F3130140F2FF3341F480119A421E
:1008B00002DA00200146704740F233439A42A2F226
:1008C000334202DC5242FFF7C5BEFFF7B4BE000060
:1008D000064C074D06E0E06840F0010394E807008D
:1008E00098471034AC42F6D3FFF726FC686700083F
:1008F000886700082DE9F04D00231A461B1A8A412B
:1009000003DB00200146BDE8F08DC1F30A52C1F3BC
:10091000130141F480154FF0000BD10702D10018EC
:100920006D41521E0027044640F2FF11384601EB8C
:10093000620A3E468046024600204FF48011FFF7CF
:1009400089FEC2197141BB1846EB0100B4EB030CE0
:1009500075EB000C04D3E41A65EB000517460E4650
:10096000241908F101006D4180463428E3DDF919AE
:1009700046EB0600091BA84103D24FF0FF32134695
:1009800001E0002213461BEB070046EB0A51BDE8CD
:10099000F04DFFF7B8BE70B58C1810F8015B15F07C
:1009A000070301D110F8013B2A1106D110F8012BE1
:1009B00003E010F8016B01F8016B5B1EF9D12B0706
:1009C00005D40023521E0DD401F8013BFAE710F8BC
:1009D000013BCB1A921C03E013F8015B01F8015BA9
:1009E000521EF9D5A142D8D3002070BD002904D0F1
:1009F000816841F0010181607047816821F0010147
:100A00008160704710B5154988420AD1441501210B
:100A1000204601F0F5FC2046BDE81040002101F021
:100A2000EFBC0F4988420AD104150121204601F08C
:100A3000E7FC2046BDE81040002101F0E1BC094977
:100A400088420AD10121CC03204601F0D9FC20467E
:100A5000BDE81040002101F0D3BC10BD00240140CE
:100A600000280140003C01400146002089684907F8
:100A700000D501207047C06C80B27047024600204C
:100A800012680A4200D001207047014600208968A0
:100A9000090700D50120704770B500240025194EC4
:100AA000012207231146304600F054F80121304658
:100AB00000F08FF802213046FFF7E0FF0028F9D060
:100AC0003046FFF7D8FF0544022000F0E3FA641C2B
:100AD000E4B2052CE4D30520B5FBF0F0FFF7CFFC22
:100AE000FFF71BFD4FF06632074BFFF73FFC6FF03F
:100AF0000B02FFF7ADFC0122FFF7AAFCBDE8704036
:100B0000FFF736BD0024014066660A4010B5426812
:100B10000E4B1A400C790B6842EA042213434360DF
:100B200082680B4B1A40D1E9024323434C7942EAD5
:100B3000440213438360C26A22F47002097C491E96
:100B4000C9B242EA0151C16210BD0000FFFEF0FFD0
:100B5000FDF7F1FF70B5072609290AD9C568A1F18B
:100B60000A0404EB4404A640B543A3401D43C560FA
:100B700007E0056901EB4104A640B543A3401D43CE
:100B800005611F23072A09D2446B521E02EB820221
:100B900093409C4391400C43446370BD0D2A09D29D
:100BA000046BD21F02EB820293409C4391400C43A2
:100BB000046370BDC46A0D3A02EB820293409C4309
:100BC00091400C43C46270BD816841F008018160AE
:100BD0007047002904D0816841F4A001816070470A
:100BE000816821F4A00181607047816841F00401AF
:100BF0008160704730B587B001214FF4017001F07A
:100C0000F1FB4FF4004001F0D5FB0220ADF80400E9
:100C100000248DF8074001A9184801F065F8184D27
:100C20002846FFF7EFFE02948DF80C408DF80D403A
:100C30004FF460210491059401218DF8181002A948
:100C40002846FFF763FF01212846FFF7CFFE28461D
:100C5000FFF7BAFF2846FFF718FF0028FAD1284609
:100C6000FFF7C3FF2846FFF7FFFE0028FAD1012156
:100C70002846FFF7AEFF07B030BD00000008014076
:100C80000024014010B56FF0040002F0C9FC0948CF
:100C900009490068B0FBF1F00849C0B2087000EBE8
:100CA0004002C2EBC0104FF6FF7202EAC00048805B
:100CB00010BD00000000002000127A002800002073
:100CC0002DE9FF410121182001F08CFB012108468C
:100CD00001F088FB43F20200ADF80C0010208DF803
:100CE0000F0003208DF80E00244C03A9204600F0CD
:100CF000FBFF0221204601F051F86114204601F06B
:100D00004DF8A114204601F049F84FF4C040ADF869
:100D10000C0048208DF80F00194F03A9384600F049
:100D2000E3FF4FF4C06001F021FA28248DF8004061
:100D300000258DF801508DF8025001268DF80360D2
:100D4000684601F0E1F9F003ADF80C008DF80F40B2
:100D500003A9384600F0C8FF0F21022000F0B0FFC1
:100D600001948DF8085008208DF809008DF80A606C
:100D700001A800F06BFFBDE8FF810000000C0140FE
:100D800000100140012080F3138805480168054ADE
:100D900001F4E06111430160BFF34F8FFEE70000F3
:100DA0000CED00E00400FA057FB50121022001F0FE
:100DB0000BFB0920ADF8080041F61F40ADF8040018
:100DC0000024ADF80A40ADF806400E4D01A92846B2
:100DD00002F0FAFC01224121284602F0EAFC1D2122
:100DE0008DF800108DF8014003218DF802100121CB
:100DF0008DF80310684601F087F90121284602F0BA
:100E0000C0FC7FBD00040040F0B587B0064601215C
:100E1000480401F0D9FA0121042001F0E3FA042486
:100E2000ADF8184003258DF81A5018218DF81B10C5
:100E30001E4F06A9384600F057FF0821ADF81810DC
:100E40008DF81B4006A9384600F04EFF4FF4A06015
:100E500001F08CF926218DF804108DF80550022040
:100E60008DF8060001208DF8070001A801F04CF96B
:100E700002960020ADF80C00ADF80E00ADF81000A1
:100E8000ADF814000C20ADF81200094C02A9204660
:100E900002F0D8FD012240F22551204602F0B7FDB4
:100EA0000121204602F080FD07B0F0BD000801409E
:100EB0000044004070B586B005460121880401F069
:100EC00083FA0121082001F08DFA4FF48060ADF81B
:100ED000140003248DF8164018218DF817101F4EAA
:100EE00005A9304600F000FFF114ADF814100421FC
:100EF0008DF8171005A9304600F0F6FE4FF4A060FB
:100F000001F034F927208DF800008DF801408DF8AC
:100F1000024001208DF80300684601F0F5F80195C4
:100F20000020ADF80800ADF80A00ADF80C00ADF8EF
:100F300010000C20ADF80E00094C01A9204602F06B
:100F400081FD012240F22551204602F060FD012181
:100F5000204602F029FD06B070BD0000000C0140E3
:100F6000004800402DE9F04105460F4600240C4E94
:100F70000BE04021304602F023FD0028F9D0295D26
:100F8000304602F0C1FD641CA4B2BC42F1D3402142
:100F9000304602F015FD0028F9D0BDE8F0810000D0
:100FA0000048004070B54FF400512C4800F0EFFEAF
:100FB0002B4C0025A8B1A572A089B0F5967F4BD324
:100FC000A078642801D2401CA070FFF765FD606026
:100FD000244988423EDD2449884205DD6420607250
:100FE00039E00120A072E7E72049884202DD5A205B
:100FF000607230E01E49884202DB502060722AE0B5
:101000001C49884202DB4620607224E01A4988426B
:1010100002DD3C2060721EE01849884202DD322069
:10102000607218E01649884202DD2820607212E0E2
:101030001449884202DB1E2060720CE0124988428B
:1010400002DB1420607206E01049884203DB0A20AC
:10105000607200E06572A58170BD00000010014063
:10106000E4050020B81E6540B81E85405C8F8240B4
:101070007B147E409A9979408FC275405C8F724094
:10108000D7A3704052B86E40A4706D409A996940E1
:10109000FEE770470B49498848434FF0E02148611B
:1010A00000238B61086940F0010008610869C207EC
:1010B00001D0C003FAD5086920F0010008618B61F6
:1010C00070470000280000200B49097848434FF082
:1010D000E021486100238B61086940F0010008614C
:1010E0000869C20701D0C003FAD5086920F00100E1
:1010F00008618B6170470000280000202DE9F04155
:101100002B4C0127FD03207E2A4E4FF002080028B9
:1011100016D12946304600F03AFE80B1C820FFF7CC
:10112000B9FF2946304600F032FE48B12946304624
:1011300000F02DFE0028F9D184F8198000E06776D0
:10114000207E012814D12946304600F020FE78B1D7
:10115000C820FFF79FFF2946304600F018FE38B13F
:101160002946304600F013FE0028F9D184F8198092
:10117000207E022817D12946304600F008FE0028BC
:1011800011D0C820FFF786FF2946304600F0FFFD4A
:10119000002808D02946304600F0F9FD0028F9D192
:1011A000A07A10B16776BDE8F08103206076FAE797
:1011B000E4050020001001402DE9F0412B4C207E79
:1011C000627E90424FD001273E03294D022A10D162
:1011D0003146284600F0E2FD01F0D2F9227E62B1EC
:1011E0003146284600F0DCFDA77601F0A9F8022080
:1011F0002076607E012803D01EE001F04FFBF3E76C
:101200000221284600F0CAFD3146284600F0C6FDFE
:10121000227E12B1022A03D00DE001F03FFB0AE06A
:10122000002001F0B7FD01F039FB002020723146AB
:10123000284600F0B5FD2776607E032813D14FF4D1
:101240007A70FFF727FF0221284600F0A7FD3146FC
:10125000284600F0A3FD4FF40051284600F09EFD03
:1012600003202076FEE7BDE8F0810000E4050020C1
:10127000000C01402DE9F04180461746002400296A
:1012800001D00D4603E04046FEF7AAFF85B2134E9B
:1012900019E05FB1022C09D14021304602F090FBE9
:1012A0000028F9D03946304602F02EFC4021304665
:1012B00002F086FB0028F9D018F80410304602F03E
:1012C00023FC641CA4B2AC42E3D34021304602F0BC
:1012D00077FB0028F9D0BDE8F08100000044004011
:1012E00070B590B005460E463C2101A8FEF75BFFA5
:1012F0004FF4E130FFF788FD4FF47A742046FFF792
:10130000C9FE2046FFF7C6FE09E000F021FBC82217
:1013100039A13AA000F00CFC2046FFF7BBFEC82222
:1013200035A13AA000F004FC0028EED1C82232A179
:1013300038A000F0FDFB0028F8D1C8222EA137A06C
:1013400000F0F6FB0028F8D10A20FFF7A3FEC82220
:1013500029A139A000F0ECFB0028F8D1C82226A171
:1013600039A000F0E5FB0028F8D12046FFF792FEF7
:101370002046FFF78FFE2046FFF78CFE2046FFF742
:1013800089FE3C2101A8FEF70EFF33462A4631A113
:1013900001A802F0BFFB224617A101A800F0C8FB7C
:1013A0000028F8D1C82214A131A000F0C1FB002808
:1013B000F8D14FF4FA7422460FA131A000F0B8FB27
:1013C0000028F8D14FF496752A460BA139A000F0F9
:1013D000AFFB0028F8D1C82207A13AA000F0A8FB73
:1013E0000028F8D13B4B188021463B48FEF7DBFE36
:1013F00010B0002070BD00004F4B000041542B4343
:1014000049504D4F44453D300D0A000041540D0AEE
:1014100000000000415445300D0A000041542B5596
:101420004152543D3131353230302C382C312C3052
:101430002C300D0A0000000041542B43574D4F44FF
:10144000453D320D0A00000041542B5253540D0A01
:101450000000000041542B43575341503D22257357
:10146000222C222573222C312C340D0A000000007E
:1014700041542B4349504D55583D300D0A00000052
:1014800041542B43495053544152543D22554450EA
:10149000222C223235352E3235352E3235352E324C
:1014A0003535222C36303135362C34323235342C29
:1014B000300D0A0041542B4349504D4F44453D31B6
:1014C0000D0A000041542B43495053454E440D0A28
:1014D0000000000036000020FC0100200146002032
:1014E000054A1288130406D5044BC2F30E02985421
:1014F0001846FEF763BE704736000020FC0100204E
:101500002DE9F0475A4F3888000444D5594DDFF88B
:10151000688100262878594CDFF864914FF4FA7AF4
:1015200002282ED199F800007B282AD15146204666
:10153000FEF739FE6E806A8819F80200A0547D28F3
:1015400002D0521C6A80F6E74C4803F049F8286143
:10155000D8B14CA103F026F8026946484BA11430DB
:1015600002F0D8FA4AA1286903F01CF80269414840
:1015700046A1283002F0CEFA03202870286902F034
:10158000EDFF28780A2808D021E051463C48FEF7B4
:101590000AFEA8F80060BDE8F087388820F4004013
:1015A000E8800D2109F8001048440A214170514695
:1015B0003A48FEF7F8FD2F4A39A15032374802F079
:1015C000A9FA36492E4803F0F7F8012805D051460C
:1015D0002B48FEF7E8FD3E80DDE751462748FEF741
:1015E000E2FD6E80698819F801007B2802D0491C51
:1015F0006980F7E7AE80A888431819F803202254C1
:101600007D2A07D103EB090253780D2B02D1927882
:101610000A2A02D0401CA880EDE7184802F0E0FF3B
:101620002861E8B122A102F0BDFF01468069C969C5
:10163000FEF75AFF214CA07421A1286902F0B2FFE5
:1016400001468069C969FEF74FFFE074286902F01E
:1016500085FF51460A48FEF7A6FDA8F800609AE704
:1016600051460748FEF79FFDA8F8006093E7000089
:10167000360000203C000020380000200808002030
:10168000FC010020737369640000000025730000F2
:1016900070617373776F726400000000140600209D
:1016A0007374617475732F7365742F257300000054
:1016B00072656C617953746174757300E405002080
:1016C000726564002DE9FC47574E3078012836D00A
:1016D000564F4FF000084FF4FA61022836D0032825
:1016E0003DD0042841D00A254FF4FA79052849D085
:1016F0000A2822D1F88A88421FD349464C48FEF76F
:1017000052FDFB8D06F150024AA1494802F002FA4F
:10171000F06000280FDD0124CDE90045B0890023E9
:1017200082B2434953A000F0E5FB0028F4D14946BA
:101730005248FEF738FDA7F81680BDE8FC8750A197
:1017400052A0FFF7CDFD02203070F6E7B88A88423C
:10175000F3D353A000F01EFAA7F81480EDE759A0C8
:1017600000F018FA04203070E7E700F067F92E491E
:101770002831A1F1140000F025F90028F7D1052047
:101780003070DAE75948782120F8021B2649643185
:10179000FEF72DFD24495548C8313430FEF727FDAA
:1017A00021495248DC316630FEF721FDC82250A1A4
:1017B00050A000F0BDF90028F8D149461C48FEF7BA
:1017C000F2FC194A4FA13C321948B36802F0A2F961
:1017D0004A4647A1164800F0ABF90028F8D1C822C4
:1017E00043A14FA000F0A4F90028F8D1C82240A1DD
:1017F0004FA000F09DF90028F8D100F0D5FA00289C
:10180000FBD149460A48FEF7CEFC074A4CA15032AC
:10181000074802F07FF90C220021054800F008FC7F
:101820000028F8D1357088E73C000020E40500204E
:10183000140600207B226465766963654E756D220F
:101840003A222573222C2269734F6E6C696E6522D1
:101850003A312C2261697254656D706572617475DC
:101860007265223A25642C2272656D61726B223A90
:1018700022227D007374617475730000FC010020E6
:101880006173647177653938363700005869616F64
:1018900059695F494F545F416972426F7800000097
:1018A0007B22636F6465223A302C226D7367223A83
:1018B00022737461727420636F6E6E656374227D2F
:1018C000000000007B22636F6465223A312C226D98
:1018D0007367223A2267657457696669496E666F55
:1018E0003A73756363657373227D0000FA0B002001
:1018F0004F4B000041542B4349504D55583D300D3E
:101900000A00000041542B43495053544152543D66
:1019100022544350222C222573222C25640D0A00C8
:1019200041542B4349504D4F44453D310D0A000071
:1019300041542B43495053454E440D0A00000000CA
:101940007374617475732F7365742F2573000000B1
:1019500010B5184C4021204602F032F80028F9D08A
:101960002B21204602F0D0F80F20FFF793FB4021F7
:10197000204602F025F80028F9D02B21204602F05D
:10198000C3F80F20FFF786FB4021204602F018F82D
:101990000028F9D02B21204602F0B6F84FF4FA7057
:1019A000FFF778FBBDE81040142203A103A000F06C
:1019B000BFB80000004400404F4B000041540D0AE6
:1019C0000000000030B58FB004460D463C2168464B
:1019D000FEF7E9FB3C216846FEF7E5FB2B46224675
:1019E0000BA1684602F096F864220FA1684600F049
:1019F0009FF810B101200FB030BD0E4900200880C3
:101A00004FF4FA710C48FEF7CEFB0020F3E700001C
:101A100041542B43574A41503D222573222C222505
:101A200073220D0A000000005749464920474F54D1
:101A30002049500036000020FC01002070B54FF412
:101A4000E130FFF7E1F94FF47A742046FFF722FB0B
:101A50002046FFF71FFB4FF4487509E0FFF778FFBA
:101A6000C8221CA11CA000F063F82846FFF712FB57
:101A7000C82218A11CA000F05BF80028EED1C822F3
:101A800014A11BA000F054F80028F8D1C82211A11D
:101A900019A000F04DF80028F8D10A20FFF7FAFA53
:101AA000C8220CA11BA000F043F80028F8D1C822DE
:101AB00008A11CA000F03CF80028F8D12046FFF750
:101AC000E9FA2046FFF7E6FA2046FFF7E3FA01209D
:101AD00070BD00004F4B000041542B4349504D4F07
:101AE00044453D300D0A000041540D0A000000003D
:101AF000415445300D0A000041542B554152543D8C
:101B00003131353230302C382C312C302C300D0A1C
:101B10000000000041542B43574D4F44453D310DCB
:101B20000A00000041542B5253540D0A00000000DB
:101B30002DE9F04180460F461446144D00262E80B4
:101B40004FF4FA711248FEF72EFB00221146404670
:101B5000FFF790FBC7B18CB916E00A20FFF79AFA9D
:101B60002A8810040AD53846FFF7B8FC18B12E8031
:101B70000020BDE8F0812E800120FAE7641E2404D5
:101B8000240CEAD10120F4E70120F2E7360000201E
:101B9000FC0100200FB4F0B5CDB04FF4967102A84F
:101BA000FEF701FB002453AA02A8529901F0C6FFD8
:101BB0000020019002A8FEF713FB86B20D4F02AD84
:101BC0000BE04021384601F0FBFE0028F9D0295DEA
:101BD000384601F099FF641CA4B2B442F1D340210D
:101BE000384601F0EDFE0028F9D04DB00020F0BCE1
:101BF0005DF814FB0044004010B54FF4004420464B
:101C000000F014F8002808D0204600F009F8034836
:101C1000007E002801D1FFF7B5F810BDE4050020D3
:101C2000014908607047000014040140014600208B
:101C3000054A12680A40044B14331B680B4202D059
:101C4000002A00D0012070470004014030B51B4A33
:101C500083790168002B2AD013688B431360111D10
:101C60000B680468A3430B60017911440B68046896
:101C700023430B60114C08342168036899432160A9
:101C8000231D19680568A94319604179102905D0F9
:101C900011440A68006802430A6030BD2168026886
:101CA00011432160196800680143196030BD007953
:101CB000104402688A43026030BD00000004014005
:101CC00010B58A07120F0F23934021F00304054932
:101CD00021448C689C438C608B68904003438B60EC
:101CE00010BD0000000001402DE9F0410022CC7839
:101CF00004F00F03E40601D58C7823430C784FF0F1
:101D00000F0714F0FF0F4FF0010C1CD005680CFA00
:101D100002F40E882640A64211D1960007FA06F872
:101D200025EA080503FA06F848EA0505CE78282EC4
:101D300002D0482E02D002E0446100E00461521C4F
:101D4000082AE4D305600A88FF2A1ED945680022C4
:101D500002F108060CFA06F40E882640A64210D1BD
:101D6000960007FA06F825EA080503FA06F848EA95
:101D70000505CE78282E00D14461CE78482E00D1BA
:101D80000461521C082AE3D34560BDE8F081024695
:101D9000002092680A4200D00120704741617047DC
:101DA00001617047FEE700002DE9F0474D4D4FF40B
:101DB000FA794946A5F802904B48FEF7F4F94A4CE7
:101DC000102020704FF0000884F8018084F8028011
:101DD0000420E0704D212171512161715421A171C4
:101DE000E1712072C220607204F5FA763088010A2F
:101DF000A172E0720C20A880B01CFEF7F1F9C2B20B
:101E00002A70A88804F8008020444270801CB11C0D
:101E1000FEF7B0F9A88829780844801CA88004F54A
:101E20000A700646FEF7DCF9C2B22A70A88804F8E8
:101E3000008020444270801C3146FEF79BF9A88840
:101E400029780844801CA88004F25A200646FEF730
:101E5000C7F9C2B22A70A88804F8008020444270F2
:101E6000801C3146FEF786F9A88829780844801C32
:101E700086B2AE807F2E12D2B01E60701B4FA7F8C4
:101E8000008049461A48FEF78EF900223146204666
:101E9000FFF7F0F9688818B3154C02260FE001200F
:101EA000BDE8F0870A20FFF7F5F83888000406D56A
:101EB0002078B6EB101F02D16078022807D068881E
:101EC000401E0004000C6880ECD10120E8E7E078B7
:101ED00010B1A7F80080FEE7A7F800800020DFE738
:101EE0000120DDE740010020060A00203600002026
:101EF000FC0100202DE9FF5F8346DDE90E47924695
:101F00001E46474D4FF4FA794946A5F802904548D8
:101F1000FEF749F9F000434E00EB440030303070DA
:101F20004FF0000886F801800220A8805846FEF78E
:101F300057F9C2B22A70A88806F80080304442706F
:101F4000801C5946FEF716F9A88829780844801C99
:101F500080B2A880012C01D0022C05D1390A31545D
:101F600031184F70801CA8800AF0FF022A7042B11D
:101F7000A88801993044FEF7FDF8A888297808441C
:101F8000A880A5F80880A5F80A80AF88812F02D81C
:101F9000B81E70700EE0B81E80B200F07F0129817B
:101FA000C009E88030B141F08001298100F07F0054
:101FB000688171701C4EA6F8008049461B48FEF7E8
:101FC000F2F8AA7A39461748FFF754F9012C05D0E0
:101FD000022C03D0002004B0BDE8F09F6888C0B197
:101FE0004FF00409114F0EE00A20FFF753F8308834
:101FF000000408D53878B9EB101F04D1787802288E
:1020000001D1012C07D06888401E0004000C6880B4
:10201000EAD10120DFE7A6F800800020DBE700001E
:1020200040010020060A002036000020FC010020AC
:102030002DE9F0478246884691462E4C4FF4FA77B8
:10204000394667802C48FEF7AEF82B4D8220287069
:1020500000266E70AE70284680F803900420A080A1
:102060005046FEF7BDF8C2B22270A0882E54284414
:102070004270801C5146FEF77DF8A0882178084404
:10208000801C80B205F80080401C1FFA80F8A4F87C
:102090000480B8F17F0F13D2A8F102006870174DC9
:1020A0002E8039461648FEF77EF800224146124837
:1020B000FFF7E0F86088D8B1114F4FF009080FE042
:1020C0000120BDE8F0870A20FEF7E4FF288800041D
:1020D00006D53878B8EB101F02D12E800020F0E72B
:1020E0006088401E0004000C6080ECD10120E8E70D
:1020F0000120E6E740010020060A0020360000200B
:10210000FC010020FEE7704770B50F23C27801265E
:102110000178002A1ED0144A126802F4E062C2F567
:10212000E062120AC2F10404D3404578A5408278E7
:102130001A402A43120101F1E02181F800240078BD
:1021400000F01F018E404009800000F1E020C0F83F
:10215000006170BD01F01F0086404809800000F159
:10216000E020C0F8806170BD0CED00E0024908433A
:1021700002490860704700000000FA050CED00E01D
:1021800010B50021002400220378422B10D143789F
:102190004D2B0DD1435C1A4492B2491CC9B21E2981
:1021A000F8D3C17F807F01EB0020904200D1FF2453
:1021B000204610BD2DE9F0475D4C5E4D4FF0000606
:1021C000208800041AD55C48FFF7DAFFFF280FD1FA
:1021D00059484179027901EB02212985C179827937
:1021E00001EB02216985417A007A01EB0020A88584
:1021F00026804FF4FA715048FDF7D5FF288AB0F5D4
:10220000FA6F03D3E22000F0ABF82E82698C288DA0
:102210004A4F0A266FF0130A4FF482794FF0640890
:10222000814227D039880AEB9104B0FBF8F0C2B2A2
:1022300004F1080080B21032494600F00DFF288DED
:10224000B0FBF6F0B0FBF6F106FB110204F1100052
:1022500080B21032494600F0FFFE288DB0FBF6F147
:1022600006FB11021834A0B21032494600F0F4FE09
:10227000288D6884A98C688D814229D039880AEB21
:1022800051044FF0500AB0FBF8F0C2B204F108005C
:1022900080B21032514600F0DFFE688DB0FBF6F0E0
:1022A000B0FBF6F106FB110204F1100080B210320F
:1022B000514600F0D1FE688DB0FBF6F106FB11022D
:1022C0001834A0B21032514600F0C6FE688DA884C2
:1022D000A88DE98C884229D03988890801EB41040E
:1022E000103CB0FBF8F0C2B204F1080080B210322A
:1022F000494600F0B1FEA88DB0FBF6F0B0FBF6F158
:1023000006FB110204F1100080B21032494600F0C1
:10231000A3FEA88DB0FBF6F106FB11021834A0B2A3
:102320001032494600F098FEA88DE884BDE8F08799
:1023300038000020E4050020F0030020FC09002004
:1023400010B54FF41650FEF7B5FD02210348FFF714
:1023500027FDBDE810401420FEF79CBE000C014094
:1023600030B585B00546002414216846FDF71BFFF3
:10237000002142228DF800204D228DF801208DF899
:10238000025000208DF803008DF804006846425C7E
:10239000224494B2491CC9B20529F8D3200A8DF809
:1023A00005008DF8064007216846FEF7DBFD05B005
:1023B00030BD7047034A516821F4404101435160E8
:1023C0007047000000100240054A002903D0D1697F
:1023D0000143D1617047D1698143D16170470000E9
:1023E00000100240054A002903D091690143916120
:1023F000704791698143916170470000001002406D
:10240000054A002903D0D1680143D1607047D168E3
:102410008143D160704700000010024010B5264A89
:10242000516801F00C01254B002927D0042927D041
:10243000082927D00360516801F0F0010909204BF9
:102440005C5C0168E1404160546804F4E064240A83
:102450001C5D21FA04F48460546804F46054E40AB6
:102460001B5DD940C160526802F44042920B144B8C
:102470001B1F9A5CB1FBF2F1016110BD0360DAE74A
:102480000360D8E7516801F47011536803F4803396
:10249000022404EB914133B153689B0307D5094BE8
:1024A00059430160C7E7074B59430160C3E7034B3A
:1024B00059430160BFE700000010024000127A009B
:1024C0001800002000093D00704700F001B800002E
:1024D0000CB50022019200922748016841F4803136
:1024E00001604FF4A063016801F40031009101998B
:1024F000491C0191009911B901999942F3D10168E0
:10250000890302D50121009100E000920099012980
:1025100030D11A490A6842F010020A600A6822F0B3
:1025200003020A600A6842F002020A6041684160E0
:1025300041684160416841F480614160416821F433
:102540007C114160416841F4E8114160016841F04B
:102550008071016001688901FCD5416821F00301A7
:102560004160416841F0020141604168C1F381016D
:102570000229FAD10CBD00000010024000200240E8
:102580002DE9F0412D4C2088400861880325B1FBDE
:10259000F5F10A3189B22A4E47F6FF7232805A238A
:1025A000642200F0B1FC2088800800EB40006188C4
:1025B0000627B1FBF7F2B1FBF5F102EB410189B25D
:1025C0004FF6E07232802D23322200F09DFC2088ED
:1025D00080086188B1FBF7F2B1FBF5F102EB410134
:1025E00089B248F21F4232802D23322200F08CFC47
:1025F00020886FF0170101EB500080B2282100F015
:1026000004FF20886FF0130505EB500080B2B42161
:1026100000F020FF208805EB900080B2E6252946D7
:1026200000F0CEFE2088800800EB4000103880B219
:102630002946BDE8F04100F0A5BE0000FC090020DD
:102640002E0100202DE9F041914FF889B0F5FA7F75
:102650007BD3B878022878D300243846B97A007E34
:10266000012903D110B14FF4FC6403E0022801D129
:102670004FF6FF74787A397A002688427ED0DFF8E8
:10268000148250282ED3A8F800400C242346CD22D3
:102690002146CA2000F0DEFB641CE4B2132CF5D303
:1026A0000C242346D2222146CF2000F0D3FB641C09
:1026B000E4B2132CF5D30C242346D7222146D42090
:1026C00000F0C8FB641CE4B2132CF5D30C242346A1
:1026D000DC222146D92000F0BDFB641CE4B2132C9F
:1026E000F5D3CAE03C2831D3A8F800600C252B466E
:1026F000CD222946CA2000F0ADFB6D1CEDB2132D92
:10270000F5D3A8F800400C242346D2222146CF203E
:1027100000F0A0FB641CE4B2132CF5D30C24234678
:10272000D7222146D42000F095FB641CE4B2132C80
:10273000F5D30C242346DC222146D92000F08AFB65
:10274000641CE4B2132CF5D397E09EE0282832D322
:10275000A8F800600C252B46CD222946CA2000F09F
:1027600079FB6D1CEDB2132DF5D30C252B46D2222F
:102770002946CF2000F06EFB6D1C00E084E0EDB236
:10278000132DF3D3A8F800400C242346D72221466A
:10279000D42000F05FFB641CE4B2132CF5D30C24AE
:1027A0002346DC222146D92000F054FB641CE4B20D
:1027B000132CF5D361E0142830D3A8F800600C2561
:1027C0002B46CD222946CA2000F044FB6D1CEDB2F9
:1027D000132DF5D30C252B46D2222946CF2000F00D
:1027E00039FB6D1CEDB2132DF5D30C252B46D722EA
:1027F0002946D42000F02EFB6D1CEDB2132DF5D32D
:10280000A8F800400C242346DC222146D92000F001
:1028100021FB641CE4B2132CF5D32EE068B3A8F8B6
:1028200000600C242346CD222146CA2000F012FB72
:10283000641CE4B2132CF5D30C242346D222214687
:10284000CF2000F007FB641CE4B2132CF5D30C245A
:102850002346D7222146D42000F0FCFA641CE4B2BF
:10286000132CF5D30C242346DC222146D92000F07A
:10287000F1FA641CE4B2132CF5D34FF480510648EE
:10288000FFF78EFA787A3872FE81BDE8F081000099
:10289000E40500202E010020000C014010B518496D
:1028A0004FF6FF7008800923DE221946C82000F089
:1028B000D1FA1523DE221946C82000F0CBFAC8222F
:1028C00015230921104600F0C5FADE22152309213F
:1028D000104600F0BFFA0D23C8221946C52000F0AB
:1028E000B9FAC52211230D21104600F0B3FA1123C5
:1028F000C822BDE810401946C52000F0ABBA000060
:102900002E01002070B5404DA88BB0F5FA6F7AD338
:102910000024A87E3D49002647F6FF72012808D012
:10292000022814D0032821D004282ED005283BD01B
:1029300068E00A80234620222146002000F08AFA1F
:10294000641CE4B20D2CF5D30220A8765AE00A806C
:102950000F24234618222146002000F07BFA641C35
:10296000E4B21C2CF5D30320A8764BE00A801E2489
:10297000234610222146002000F06CFA641CE4B2C9
:102980002B2CF5D30420A8763CE00A802D24234686
:1029900008222146002000F05DFA641CE4B23A2CC3
:1029A000F5D30520A8762DE00E802346202221466F
:1029B000002000F04FFA641CE4B20D2CF5D30F2474
:1029C000234618222146002000F044FA641CE4B299
:1029D0001C2CF5D31E24234610222146002000F093
:1029E00039FA641CE4B22B2CF5D32D24234608229B
:1029F0002146002000F02EFA641CE4B23A2CF5D3F4
:102A00000120A876AE8370BDE40500202E010020D1
:102A100010B5112000F044FD1420FEF73BFBD02040
:102A200000F03EFD072000F05DFD422000F05AFD61
:102A30001D2000F057FDD12000F032FD002000F0F5
:102A400051FD1A2000F04EFD092000F04BFDD22070
:102A500000F026FD012000F045FD222000F042FD9F
:102A6000C02000F01DFD102000F03CFD3B2000F0D8
:102A700039FD002000F036FD022000F033FD11206A
:102A800000F030FDC52000F00BFD032000F02AFD12
:102A9000C82000F005FD002000F024FD252000F0F6
:102AA00021FD212000F01EFD052000F01BFD00206F
:102AB00000F018FD0A2000F015FD652000F012FD61
:102AC000252000F00FFD772000F00CFD502000F0D5
:102AD00009FD0F2000F006FD002000F003FDF820A6
:102AE00000F0DEFC012000F0FDFCFE2000F0D8FC30
:102AF000002000F0F7FC022000F0F4FC202000F0A1
:102B0000CFFC362000F0CCFC082000F0EBFC3A2093
:102B100000F0C6FC552000F0E5FC2B2000F0C0FCC6
:102B2000002000F0DFFC002000F0DCFC012000F0C1
:102B3000D9FC3F2000F0D6FC2A2000F0B1FC002098
:102B400000F0D0FC002000F0CDFC012000F0CAFC19
:102B5000DF2000F0C7FC7820FEF79CFABDE81040AB
:102B6000292000F09DBC10B5CF2000F099FC00207A
:102B700000F0B8FCC12000F0B5FC302000F0B2FC41
:102B8000ED2000F08DFC642000F0ACFC032000F090
:102B9000A9FC122000F0A6FC812000F0A3FCE82094
:102BA00000F07EFC852000F09DFC102000F09AFCD7
:102BB0007A2000F097FCCB2000F072FC392000F066
:102BC00091FC2C2000F08EFC002000F08BFC3420C7
:102BD00000F088FC022000F085FCF72000F060FC8B
:102BE000202000F07FFCEA2000F05AFC002000F0DA
:102BF00079FC002000F076FCC02000F051FC1B2086
:102C000000F070FCC12000F04BFC012000F06AFCD9
:102C1000C52000F045FC302000F064FC302000F0BE
:102C200061FCC72000F03CFCB72000F05BFC3620C4
:102C300000F036FC482000F055FC3A2000F030FC53
:102C4000552000F04FFCB12000F02AFC002000F0DD
:102C500049FC1A2000F046FCB62000F021FC0A20B6
:102C600000F040FCA22000F03DFCF22000F018FC37
:102C7000002000F037FC262000F012FC012000F0BC
:102C800031FCE02000F00CFC0F2000F02BFC2A208F
:102C900000F028FC282000F025FC082000F022FC91
:102CA0000E2000F01FFC082000F01CFC542000F057
:102CB00019FCA92000F016FC432000F013FC0A20A8
:102CC00000F010FC0F2000F00DFC002000F00AFCCA
:102CD000002000F007FC002000F004FC002000F0C1
:102CE00001FCE12000F0DCFB002000F0FBFB1520E4
:102CF00000F0F8FB172000F0F5FB072000F0F2FBD6
:102D0000112000F0EFFB062000F0ECFB2B2000F080
:102D1000E9FB562000F0E6FB3C2000F0E3FB052039
:102D200000F0E0FB102000F0DDFB0F2000F0DAFBEC
:102D30003F2000F0D7FB3F2000F0D4FB0F2000F035
:102D4000D1FB2B2000F0ACFB002000F0CBFB0020DF
:102D500000F0C8FB012000F0C5FB3F2000F0C2FBE3
:102D60002A2000F09DFB002000F0BCFB002000F0BA
:102D7000B9FB002000F0B6FBEF2000F0B3FB112000
:102D800000F08EFB7820FEF785F9BDE81040292081
:102D900000F086BB70B506460024094801884588C6
:102DA0004D430021084600F077FA00F0BDFB03E038
:102DB000304600F097FB641CAC42F9D370BD0000B4
:102DC000FC0900202DE9F003214A2C272A252B2677
:102DD00091884FF0F00C49F241384FF4A07446F658
:102DE000040300280CD0994227D001209071148050
:102DF000A2F802C0414516D1D771157256721CE077
:102E000000209071A2F800C05480414501D0994241
:102E100013D1D7711572567299420ED114804FF4A6
:102E2000F070508009E02220A1F50943893B09D0C8
:102E3000D0712120107220205072BDE8F0030020D4
:102E400000F07CB9D0714F2010724E205072F4E720
:102E5000FC0900202DE9FE4F4FF0000B0025002655
:102E6000171AA3EB010881468A46681E002F03DD6E
:102E70004FF00101019107E003D14FF000010191F2
:102E800002E00190C7F10007B8F1000F03DD4FF039
:102E90000100009007E003D14FF00000009002E035
:102EA0000090C8F10008474501DD3C4600E044467B
:102EB000601C029015E01FFA8AF11FFA89F000F0F9
:102EC00015F83D444644A54202DD2D1B019881447E
:102ED000A64202DD361B009882440BF1010B1FFA5B
:102EE0008BFB02988345E6DDBDE8FE8F10B500F050
:102EF000D3F900F019FB03484088BDE8104000F00A
:102F0000F1BA00002C0100202DE9FC5F80468B46C1
:102F100017469A4229D302FB02FA5B430093ABEBBC
:102F2000070085B20BEB070001901BE0A8EB070040
:102F300084B208EB0709A5EB0B060FE0A4EB080031
:102F4000404306FB0600504506D80099884203D945
:102F500029462046FFF7CAFF641CA4B2A145EDD85C
:102F60006D1CADB20198A842E0D8BDE8FC9F0000FE
:102F7000F8B501211C20FFF735FA4FF47070ADF859
:102F8000000010208DF8030003208DF80200694630
:102F90002F48FEF7A9FE2E484FF400711030016053
:102FA00040210160802101608115016000F0FAFA82
:102FB0003220FEF76FF83220FEF76CF8254C46F60B
:102FC000040649F24135A088FF2806D3A0F57F41C9
:102FD000FF3902D0B0F5134F29D1D32000F060FAA9
:102FE00000F08CF800F08AF800F088F80002A08069
:102FF00000F084F8A188C0B20843A080A84210D095
:10300000BF2000F04DFA00F079F800F077F800F0FA
:1030100075F80002A08000F071F8A188C0B20843E2
:10302000A080A088A84202D0B04200D0A580A0888D
:10303000A84202D1FFF797FD03E0B04201D1FFF7AC
:10304000E7FC0020FFF7BEFE0020FFF7A3FEF8BD5F
:10305000000C0140FC0900202DE9F84F07460C4602
:103060004FF00008A1462248DFF888A000EB0210CC
:10307000DFF884B00090009810F808600025300652
:1030800004D54FF6FF70AAF8020002E00020AAF86B
:10309000020021463846FFF729FF7006060E641C21
:1030A000A4B2BBF80000B84205D84FF6FF70AAF8EA
:1030B0000200BDE8F88FA4EB090010280BD06D1CAE
:1030C000EDB2082DDBD308F1010808F0FF08B8F1D4
:1030D000100FD0D3EDE74C467F1CBFB2BBF8000009
:1030E000B842F0D84FF6FF70AAF80200E1E70000FE
:1030F000A85C00082C010020FC0900202DE9F0410B
:1031000000F028FA0C4C4FF4807020608020206082
:103110004026201D0660451505600120FDF7D4FFFF
:1031200000F008FA07460120FDF7CEFF2660256073
:103130003846BDE8F0810000100C014070B5002455
:10314000544D46F604022946AB798988012B18D1E3
:10315000914216D0082814D2DFE800F00406080ACD
:103160000C0E101206200CE007200AE0042008E0F4
:10317000052006E0012004E0002002E0032000E03A
:103180000220A1F51343413B01D0914259D10828B7
:1031900012D2DFE800F0110406080A0C0E10802499
:1031A0000AE0402408E0C02406E0202404E0602473
:1031B00002E0A02400E0E024362044F0080491421C
:1031C00001D144F0020400F06BF9204600F08AF9C6
:1031D000A00606D528886988884208D22980688098
:1031E00005E028886988884201D929806880287A82
:1031F00000F056F9002000F075F9002000F072F997
:103200002888401EC0F30F2000F06CF92878401E7B
:10321000C0B200F067F9687A00F042F9002000F0CF
:1032200061F9002000F05EF96888401EC0F30F20AD
:1032300000F058F9A878BDE87040401EC0B200F018
:1032400051B9082812D2DFE800F0040608110A0C70
:103250000E1030240AE0102408E0202406E0382470
:1032600004E0282402E0182400E00824A1F5094025
:10327000893809D0032044F4805400F011F9204625
:10328000BDE8704000F02EB9112046F240010C4319
:10329000F3E70000FC09002070B504460E461A4D05
:1032A0002846AA88007AA2F51341413907D0A2F531
:1032B000D041043903D0A979012913D016E000F0D8
:1032C000EFF8200A00F00EF9E0B200F00BF9687A8E
:1032D00000F0E6F8300A00F005F9F0B2BDE8704001
:1032E00000F000B92988091B491E8CB200F0D8F8FB
:1032F000204600F0F7F8287A00F0D2F83046BDE812
:10330000704000F0EFB80000FC0900202DE9F84FF4
:1033100082460C460027A046184902EBC20001EB8A
:103320008000DFF85C9000900098C65D00254FF6A5
:10333000FF7B300602D5A9F802B002E00020A9F810
:10334000020021465046FFF7D1FD7006060E641CB0
:10335000A4B2A4EB0800182809D06D1CEDB2082D0A
:10336000E7D37F1CFFB2242FDED3BDE8F88F44469D
:103370000AF1010A1FFA8AFAF3E7000098620008CE
:103380002C01002070B504460D4630222946204607
:10339000FFF762FE04F1080080B22D222946FFF7F4
:1033A0005BFE04F1100080B211222946FFF754FEA3
:1033B0001834A0B22946BDE870401022FFF74CBE79
:1033C00070B504460D46302229462046FFF744FEDC
:1033D00004F1080080B22D222946FFF73DFE04F1DA
:1033E000100080B211222946FFF736FE04F11800C2
:1033F00080B20E222946FFF72FFE2034A0B22946C4
:10340000BDE870401022FFF727BE70B504460D4698
:10341000002229462046FFF779FF04F10C0080B214
:1034200001222946FFF772FF04F1180080B2022240
:103430002946FFF76BFF04F1240080B203222946DE
:10344000FFF764FF3034A0B22946BDE87040042283
:10345000FFF75CBF70B504460D465522294620464D
:10346000FFF7FAFD04F1080080B247222946FFF772
:10347000F3FD04F1100080B20F222946FFF7ECFDA6
:1034800004F1180080B24D222946FFF7E5FD2034F3
:10349000A0B22946BDE870401322FFF7DDBD000051
:1034A0002DE9F041064600F07DF80D4C4FF4807098
:1034B00020604020251F2860C70027600120FDF7FD
:1034C00003FE304600F096F80120FDF7FDFD802652
:1034D00026600120FDF7F8FD2E602F60BDE8F08129
:1034E000140C01402DE9F041064600F05BF80D4C4C
:1034F0004FF48070206040202060C500271D3D6093
:103500000120FDF7E1FD304600F074F80120FDF7E1
:10351000DBFD80263E600120FDF7D6FD266025609C
:10352000BDE8F081100C01400148C079FFF7B8BF39
:10353000FC09002005488068C1B2054800684FF4C6
:103540007F4202EAC000084480B270470010014088
:1035500008080140F8B5104C207801281AD0FF2047
:10356000ADF8000004268DF8036003258DF80250A5
:1035700069460A48FEF7B8FB4FF4FF50ADF800006B
:103580008DF803608DF8025069460548FEF7ACFBE4
:1035900001202070F8BD00002C0100200010014027
:1035A00000080140F8B5104C207802281AD0FF20FE
:1035B000ADF8000010268DF8036003258DF8025049
:1035C00069460A48FEF790FB4FF4FF50ADF8000043
:1035D0008DF803608DF8025069460548FEF784FBBC
:1035E00002202070F8BD00002C01002000100140D6
:1035F00000080140C1B2084A1161C943C9B2516112
:10360000010A4901054A11606FEA10200006C00C4A
:10361000111D0860704700000010014010080140B3
:103620004FF0E021042804D0086920F0040008616C
:103630007047086940F00400086170477047000057
:1036400010B50F48016841F00101016041680D4A61
:103650001140416001680C4A11400160016821F489
:1036600080210160416821F4FE0141604FF41F0197
:103670008160FEF72AFF05494FF00060086010BD29
:10368000001002400000FFF8FFFFF6FE08ED00E02A
:1036900010B5354C0121204600F07FF8002861D09C
:1036A0000121204600F06AF8304C314B002120887F
:1036B000A8B1020413D41A78C82A01D8521C1A706F
:1036C0001A78142A0DD35A88824205D140F400405A
:1036D00020805980197004E05880197001E0197039
:1036E0005980244C2088A8B1020413D45A78642A43
:1036F00001D8521C5A705A78142A0DD39A888242E3
:1037000005D140F4004020809980597004E09880F1
:10371000597001E05970998017494FF6E852088AAC
:10372000904201D2401C0882C889904201D2401CBC
:10373000C8818889904201D2401C8881888B904240
:1037400001D2401C8883088C904201D2401C08841E
:10375000888A904201D2401C8882C88A904201D255
:10376000401CC88210BD000000040040360000204C
:103770002C00002038000020E4050020C94301820D
:103780007047002904D0018841F001010180704791
:10379000018821F001010180704702460020138A50
:1037A0000B4092890A40002B02D0002A00D0012051
:1037B0007047002A03D082890A4382817047828938
:1037C0008A4382817047000030B502881B4C1C4D33
:1037D000A0420DD0A8420BD0B0F1804F08D0194BB9
:1037E000984205D0184B984202D0184B984203D10A
:1037F00022F070034A881A43154B984206D0154BA5
:10380000984203D022F44073CA881A4302808A88FF
:1038100082850A880285A0420AD0A84208D00E4AB2
:10382000904205D00D4A904202D00D4A904201D1FB
:10383000097A01860121818230BD0000002C0140FF
:10384000003401400004004000080040000C00402B
:1038500000100040001400400040014000440140BE
:103860000048014070B5164C40F2255529462046C7
:1038700000F0ADF888B1204600F042F9C3B211481B
:103880000288110409D410498B54521C92B2028050
:103890005A2A02D342F4004101800821204600F058
:1038A0008FF8012806D1204600F02AF90821204689
:1038B00000F076F829462046BDE8704000F070B868
:1038C00000380140320000205C01002070B5174D27
:1038D00040F225563146284600F079F890B1284646
:1038E00000F00EF9C4B212490B8818040AD4581C0F
:1038F00082B210480A80C454B2F5F07F02D342F479
:10390000004008800821284600F05AF8012806D116
:10391000284600F0F5F80821284600F041F8314625
:103920002846BDE8704000F03BB80000004400406D
:1039300036000020FC01002070B5164C40F22555E1
:103940002946204600F043F888B1204600F0D8F818
:10395000C3B211480288110409D410498B54521C77
:1039600092B202803B2A02D342F400410180082136
:10397000204600F025F8012806D1204600F0C0F8C6
:103980000821204600F00CF829462046BDE870408A
:1039900000F006B80048004034000020C0010020BC
:1039A0008A05C94301807047002904D0818941F408
:1039B000005181817047818921F4005181817047D4
:1039C0000246002012880A4200D00120704770B5DC
:1039D000002440F66A12C1F3421301F01F050126CC
:1039E00006FA05F2012B0CD0022B0DD0838A13406E
:1039F000090A8E40008830400BB100B101242046F6
:103A000070BD83891340F3E7038A1340F0E710B5D4
:103A100040F66A13C1F3421301F01F040121A140D3
:103A2000012B07D0022B07D014303AB102680A43A9
:103A3000026010BD0C30F8E71030F6E702688A43E8
:103A4000026010BD30B585B004460D46208A4CF6A4
:103A5000FF710840E98801432182A0894EF6F311E5
:103A60000840A9882A8911436A8902431143A18128
:103A7000A08A4FF6FF410840A9890143A182684608
:103A8000FEF7CCFC1D48844201D1039800E0029867
:103A9000A189090408D500EBC00101EB00102968D9
:103AA0004900B0FBF1F007E000EBC00101EB0010B2
:103AB00029688900B0FBF1F06422B0FBF2F1090142
:103AC0000B096FF018056B4300EB8300A3891D04FD
:103AD0004FF0320307D503EBC000B0FBF2F000F06B
:103AE0000700084306E003EB0010B0FBF2F000F023
:103AF0000F000843208105B030BD000000380140B0
:103B00008088C0F308007047C1F3080181807047C6
:103B1000FEE700000FB4084B10B504A902AA0398F1
:103B200000F080F9044602A9002000F012FD2046B2
:103B300010BC5DF814FB00005345000837B514466F
:103B40000846064B6A46214600F06CF90446694671
:103B5000002000F0FEFC20463EBD0000534500085A
:103B6000490050EAC12018BF04204A0D18BF40F098
:103B7000010040F2FF72B2EB515F08BF40F002005B
:103B8000012808BF052070472DE9F0414F1E00EBCA
:103B9000C7010446D1E9000115461E4637F006026A
:103BA0000DD02A463346FCF7E1FB7F1E04EBC7032A
:103BB000D3E90023FCF733FB37F00602F1D1022FE3
:103BC00025D0042F13D0062F18BFBDE8F0812A4658
:103BD0003346FCF7CBFBD4E90A23FCF720FB2A464B
:103BE0003346FCF7C3FBD4E90823FCF718FB2A464D
:103BF0003346FCF7BBFBD4E90623FCF710FB2A464F
:103C00003346FCF7B3FBD4E90423FCF708FB2A4650
:103C10003346FCF7ABFBD4E90223FCF700FB2A4652
:103C20003346FCF7A3FBD4E90023BDE8F041FCF7E1
:103C3000F6BA00000022134610460149FCF7C0BD49
:103C40000000F03FFCF7EBBA002213461046114685
:103C5000FCF7B6BD40F2013200204FF0E041FCF726
:103C6000F7BB0000024A00201107FCF7F1BB00007F
:103C700001FDFFFF02E008C8121F08C1002AFAD1A7
:103C800070477047002001E001C1121F002AFBD1DC
:103C9000704700000149086070470000580100208B
:103CA0002DE9FF5F82B00021DDE90430020DDDF86F
:103CB00040B0034318D044F61050A2F2FF32424302
:103CC0001514119801281FD0A5EB0B00401C5FEACA
:103CD000000A4FF000064E4FDFF83891B0465046CC
:103CE00015D5CAF1000413E0119801244AA3012854
:103CF00001D16FEA0B010298119AC0E90031C0E9C5
:103D0000024206B0BDE8F09FCBF10000DFE70446B9
:103D10000021404A491842EB0450CDE9001012E05E
:103D2000E00707D032463B4640464946FCF71EFBBB
:103D30008046894632463B4610461946FCF716FB3C
:103D400006460F466410002CEAD1DDE90401DDE9E6
:103D50000023BAF1000F06DAFCF708FB42464B4697
:103D6000FCF704FB05E0FCF72BFD42464B46FCF755
:103D700027FD04460E460022284BFCF7E1FB03D842
:103D80004FF0FF30014607E00022254B2046314628
:103D9000FCF745FAFCF783FD102409E0002C0ADB50
:103DA0000A220023FCF716FC039B30321A55641ECE
:103DB00050EA0102F2D1641C039AC4F111031444C5
:103DC000119A012A03D0012208430DD10AE00843C9
:103DD00004D000204FF0110B119072E7A3EB0B05FC
:103DE0006D1E0DE05B4504DD4FF0000205F101059D
:103DF00004E003DA4FF00002A5F10105002AECD03F
:103E000002981199C0E90231C0E9004579E7000044
:103E1000000014400000F03F300000000000F043BC
:103E20000000E03F2DE9FF4F95B09B4689460646CE
:103E300000250FE2252877D100242746F84A0121E2
:103E4000059400E0044316F8013F203B01FA03F01B
:103E50001042F7D130782A2811D06FF02F03307834
:103E6000A0F13002092A16D8059A44F0020402EBA8
:103E7000820203EB42021044761C0590EFE759F8EA
:103E8000042B0592002A03DA504244F400540590B2
:103E900044F00204761C30782E2816D116F8010F53
:103EA00044F004042A280DD06FF02F023078A0F1DE
:103EB0003003092B09D807EB870302EB4303C7182C
:103EC000761CF3E759F8047B761C30786C280FD009
:103ED00006DC4C2817D068280DD06A2814D104E0DD
:103EE000742810D07A280FD10DE044F400140AE0B1
:103EF00044F4801401E044F440147278824202D108
:103F000004F58014761C761C307866280BD013DC00
:103F1000582877D009DC002875D04528F6D04628E7
:103F2000F4D047281AD19DE118E0632835D06428E1
:103F300079D0652812D195E1702873D008DC672804
:103F4000F1D069286FD06E280DD06F2806D1B5E06A
:103F500073282CD0752875D0782874D05A461799B4
:103F600090476D1C75E1C4F30250022809D0032864
:103F70000DD0D9F8001004280DD00D6009F1040906
:103F800067E1D9F80010EA17C1E90052F6E7D9F85D
:103F900000100D80F2E70D70F0E719F8041B8DF8A2
:103FA000001000208DF80100EA46012003E059F8D6
:103FB00004AB4FF0FF3061074FF0000102D40DE079
:103FC00008F101018846B9420FDA8045F8DB1AF89A
:103FD00008100029F4D108E008F101018846814267
:103FE000FADB1AF808100029F6D105985B46A0EB19
:103FF000080721463846179A00F094FA284400EB47
:10400000080507E04DE029E10DE01AF8010B5A46DA
:1040100017999047B8F10108F7D25B462146384618
:10402000179A13E142E00A220092C4F302524FF0C1
:10403000000A022A08D059F804CB032A4FEAEC718F
:104040000AD00DE029E02AE009F1070121F007027A
:10405000F2E802C1914609E00FFA8CFC4FEAEC71DC
:10406000042A03D14FFA8CFC4FEAEC71002907DADD
:104070000A460021DCF1000C61EB02012D2202E076
:10408000220504D52B228DF80420012203E0E2074B
:1040900001D02022F7E7904659E00A2102E01022E1
:1040A0000DE010214FF0000A00910BE010224FF0BC
:1040B000000A44F004040827009203E008224FF0AD
:1040C000000A0092C4F30252022A05D059F804CB28
:1040D0000021032A08D009E009F1070121F00702B5
:1040E000F2E802C1914605E01FFA8CFC042A01D1D6
:1040F0000CF0FF0C4FF00008220728D5702806D0DE
:10410000009B83F0100353EA0A0305D00EE040221F
:104110008DF80420012208E05CEA010206D030227A
:104120008DF804208DF8050002229046009B83F054
:10413000080353EA0A030AD15CEA010201D16207CB
:1041400005D530228DF804204FF001087F1E582835
:1041500004D034A003900EA802900DE036A0F9E739
:1041600053466046009AFCF735FA84460398825C11
:104170000298401E029002705CEA0100F0D10298A1
:1041800006A9081A00F1200A600702D524F4803439
:1041900000E00127574502DDA7EB0A0000E0002000
:1041A00000EB0A01009005984144401A0590E00395
:1041B00006D45B462146179A059800F0B3F90544EA
:1041C000002706E001A85A46C05D179990476D1C6C
:1041D0007F1C4745F6DBE0030CD55B462146179A6A
:1041E000059800F09FF9054404E030205A461799DD
:1041F00090476D1C0099481E00900029F5DC08E0EE
:10420000029802995A460078491C029117999047E2
:104210006D1CBAF10001AAF1010AF1DC65E10000B0
:10422000092801003031323334353637383961628C
:104230006364656600000000303132333435363750
:1042400038394142434445460000000000F058F927
:104250000544761C307800287FF4ECAD19B0284670
:10426000BDE8F08F620700D4062709F1070222F0AB
:10427000070CFCE80223E14603F000485FEA080C63
:1042800002D00FF2702C0DE05FEA045C02D50FF251
:10429000682C07E05FEAC47C02D00FF2602C01E0DA
:1042A000AFF2700C4FF0FF3823F00043CDF850C050
:1042B00065280CD006DC452809D046281DD04728A3
:1042C0003DD13DE0662818D067287ED138E0002136
:1042D000112F01DB112000E0781CCDE9000106A9B7
:1042E0000EA8FFF7DDFCDDE90F010E9A0391002116
:1042F000009207F1010A04914DE04FF00040009751
:10430000CDE9011006A90EA8FFF7CAFCDDE90F02EE
:1043100003920E9B11990022DDF80CA000930492E9
:1043200011B9791C00EB010AB7EB0A0004D4C0F103
:10433000FF3007F1010A0490AAEB0700019044E066
:10434000012F00DA01270021112F01DD112000E0EB
:104350003846CDE9000106A90EA8FFF7A1FCDDE96A
:104360000F010E9A0391002104910092BA46210791
:104370000CD40399514500DA8A46BAF1010F05DDE4
:10438000009AAAF10101515C302908D0B84202DA42
:1043900010F1040F06DA0121CDE9011015E0AAF1B0
:1043A0000101E9E7002805DC049901440491AAEB26
:1043B000000102E0411C514500DD8A460499401A83
:1043C000401C01904FF000400290200704D4019857
:1043D000504501DBCDF8048000208DF84F00029895
:1043E0000DF14F07B0F1004F25D02B200E90029811
:1043F0004FF0020800280CDA404202902D200E9067
:1044000007E00A210298FCF7CFF83031029007F854
:10441000011DB8F10001A8F10108F2DC02980028A2
:10442000EFD1791E0E980870307800F0200040F02F
:10443000450007F8020D12A8C01B00F107081498E8
:10444000007800B1012000EB0A01019801EBE07156
:1044500005984144401A401E0590E00306D45B468F
:104460002146179A059800F05DF8054414980078E5
:1044700018B15A46179990476D1CE00324D55B4646
:104480002146179A059800F04DF805441CE0049861
:10449000002807DBDDE90301884203DD0098405C6A
:1044A000179901E0179930205A469047049805F172
:1044B0000105401C04900198401E019004D12E205B
:1044C0005A46179990476D1CBAF10001AAF1010AEA
:1044D000DDDC05E017F8010B5A46179990476D1C73
:1044E000B8F10001A8F10108F4DC5B462146179AF7
:1044F0000598ABE62D0000002B0000002000000016
:104500002DE9F041044600251E461746880404D4D0
:1045100005E039462020B0476D1C641EF9D52846B9
:10452000BDE8F0812DE9F041044600251E46904685
:10453000C80301D5302700E02027880404D505E012
:1045400041463846B0476D1C641EF9D52846BDE883
:10455000F0810A68531C0B601070704770B50446F8
:104560000F4E19E02568A089C00503D4A06808B1E2
:10457000FFF7F4FFA089C00503D4206908B1716872
:104580008847A089800503D4206A08B171688847EC
:104590007168204688472C46002CE3D170BD00008E
:1045A0003401002070B50D46846800E024682CB109
:1045B0002946206A00F04AF80028F7D1204670BD4D
:1045C00010B5064928200968884704461CB12821EF
:1045D0002046FBF7E8FD204610BD00003401002016
:1045E00000221146AFF300802DE9F04104460D464C
:1045F0009046FFF7E5FF0646134F0020B860C6B1AE
:10460000204601F0E7F80146304600F099FB0446E9
:104610008CB1B8F1000F13D0204601F0DBF804464E
:10462000207868B13046FFF799FFBC600020BDE8F4
:10463000F0810020FBE73046FFF790FF0020F6E70F
:1046400005B12C603046F2E73401002070B5044615
:104650000D46002C01D02DB10AE00DB1012070BD36
:10466000002070BD012070BD207898B1641C6D1CC5
:104670002078FBF779FD06462878FBF775FD864222
:10468000F2D02078FBF770FD04462878FBF76CFD2C
:10469000201A70BD002070BD10B5002821D0114B2C
:1046A0000022001F196803E0814203D80A464968C6
:1046B0000029F9D152B11368841A9C4204D10068D0
:1046C00018441060104602E0506000E0186039B1F4
:1046D00002680B1A934203D10B681A4402604968BE
:1046E000416010BD50010020FCF7CCFAFCF75CFBE8
:1046F000FCF7E6FAC820FCF7CDFCFCF77BFA4FF498
:104700007A70FCF7C7FCFEF733FC0F4C40F6B8306C
:104710002082E081A081A083C8206084A084E084FE
:10472000FCF7D0FFFCF7ECFEFCF73CFCFCF7E6FCEA
:10473000FCF742FD207E022803D1FEF7E3F8FDF7E7
:1047400039FDFDF77FFFEBE7E4050020F0B50B3006
:10475000154D20F007010024144A0FE003688B4236
:104760000BD38B4205D95E1A43184768C3E900672B
:1047700000E04368136002C004E0021D10680028D6
:10478000ECD12046002802D1286808B10020F0BDF5
:10479000064A07481060074A121A22F00702C0E9C9
:1047A000002401202860D7E7540100205001002098
:1047B0009C0C0020981C0020F0B500230D78C45CF0
:1047C000AC420DD100229E188F5C865DBE4207D19F
:1047D0008E18767816B1521C92B2F4E70120F0BD23
:1047E0000D2C03D1C21852780A2A02D05B1C9BB24E
:1047F000E5E70020F0BD00002DE9F041074608780C
:10480000234E5B2803D0B1600020BDE8F081052075
:10481000F860481C00F0DEFF044620785D2811D0C7
:10482000FFF7CEFE0546B86070B1204600F0D2FF1B
:104830000146284600F084FA00F0CCFF0446200030
:1048400004D016E0601CE0E70020DEE70020DCE793
:10485000FFF7B6FEB0B1286045600546601C00F069
:10486000B9FF0146284600F06BFA00F0B3FF04469A
:1048700054B120782C28EBD020785D2806D0B46085
:104880000020C2E70020C0E70020BEE7601CBCE7B4
:10489000340100200178A1F13002092A01D8114623
:1048A0000AE0A1F14102052A01D8373904E0A1F15B
:1048B0006102052A0AD857390A01401C0178A1F182
:1048C0003003092B04D8303A11440EE00020704721
:1048D000A1F14103052B02D8373A114405E0A1F1BB
:1048E0006103052B0BD8573A11440A01401C01788B
:1048F000A1F13003092B04D8303A11440EE0002016
:104900007047A1F14103052B02D8373A114405E065
:10491000A1F16103052B0AD8573A114409014078E7
:10492000A0F13002092A04D8303908447047002029
:104930007047A0F14102052A02D837390844704770
:10494000A0F16102052A02D85739084470470020B7
:10495000704700002DE9F34F85B08A4600242546B4
:1049600059490020CDE9020100263746834601203F
:1049700001909AF800002D2805D154490020CDE976
:1049800002010AF1010A9AF80000302801D10AF167
:10499000010A9AF800003138082817D89AF8000060
:1049A0003038FBF771FD804689460022484B20468F
:1049B0002946FBF7DBFC42464B46FBF730FC04463E
:1049C0000D461AF8010F30380928E7D99AF8000087
:1049D0002E2827D19AF80100302823D3392821D84E
:1049E0000AF1010A9AF800003038FBF74DFD8046C5
:1049F00089460022364B20462946FBF7B7FC424643
:104A00004B46FBF70CFC04460D4600222E4B30466D
:104A10003946FBF7A5FC06460F461AF8010F303859
:104A20000928DFD99AF80000652801D045281DD152
:104A30001AF8010F2B2802D02D2803D010E00AF11C
:104A4000010A0DE04FF0FF3001900AF1010A07E082
:104A50000BEB8B0100EB410B0AF1010AABF1300BC0
:104A60009AF80000A0F130010929F1D901980BFB57
:104A700000F0FBF709FD32463B46FBF7D0FB024650
:104A80000B460020124900F0B9F906460F46DDE951
:104A9000020122462B46FBF769FC32463B46FBF7F8
:104AA00065FC04460D460598C0E9064520462946A2
:104AB000FBF7FBFC0599486105980321C16007B02D
:104AC0005046BDE8F08F00000000F03F0000F0BF4E
:104AD000000024402DE9F04107460878384E7B2835
:104AE00003D0B1600020BDE8F0810620F860481CCA
:104AF00000F070FE054628787D2818D0FFF760FD8D
:104B00000446B860A8B1284600F064FE014620467D
:104B100000F058F800F05EFE68B1216921620027BC
:104B2000276101783A2908D0B0600020DBE7681CD3
:104B3000D9E70020D7E70020D5E7401C00F04AFE67
:104B40000146204600F0FCF800F044FE054628002F
:104B500028D1C8E7FFF734FDA8B1206044600446BF
:104B6000681C00F037FE0146204600F02BF800F0EC
:104B700031FE50B121692162276101783A2906D0BE
:104B8000B0600020AFE70020ADE70020ABE7401C9D
:104B900000F020FE0146204600F0D2F800F01AFE98
:104BA000054645B128782C28D4D028787D2804D013
:104BB000B560002097E7002095E7681C93E70000A8
:104BC000340100202DE9F04780460D466C1C002082
:104BD0002A785949222A06D08D60BDE8F087641CE6
:104BE0005C2A00D1641C2278222A02D00AB1401C1F
:104BF000F5D10968401C88470746380004D0681C76
:104C00003C464FF480691AE00020E6E75C2903D0B7
:104C100004F8011B401C12E0461C3078722825D095
:104C200006DC622816D0662818D06E2804D119E058
:104C300074281FD0752821D004F8010B701C01784E
:104C4000222901D00029E1D10021217001782229F7
:104C50006AD06AE0082004F8010BEFE70C2004F8A2
:104C6000010BEBE70A2004F8010BE7E70D2004F83D
:104C7000010BE3E7092004F8010BDFE7701CFFF7E5
:104C800009FE0546361DA5F55C404845D6D3002DE6
:104C9000D4D0A5F55840484513D270785C28CDD1C2
:104CA000B0787528CAD1F01CFFF7F4FDB61DA0F549
:104CB0005C414945C2D2C5F3090161F39F2000F56B
:104CC00080350421802D01D2012108E0B5F5006F67
:104CD00001D2022103E0B5F5803F00D20321601824
:104CE00001291AD0022911D0032908D0042919D189
:104CF00005F0BF0242F0800200F8012DAD0905F079
:104D0000BF0242F0800200F8012DAD0905F0BF029C
:104D100042F0800200F8012DAD09084A525C2A4396
:104D200000F8012D441889E7401CC8F810700421D0
:104D3000C8F80C1051E7000034010020D0660008CC
:104D400070B505460C46002C20D0042224A1204634
:104D5000FBF756FAE0B1052223A12046FBF750FAF3
:104D6000D0B1042222A12046FBF74AFAC0B1207834
:104D700022281AD02D2803D0A0F1300109291AD8F1
:104D800021462846BDE87040FFF7E4BD002070BD15
:104D90000220E860201D70BD0020E860601D70BD2D
:104DA0000120E8606861201D70BD21462846BDE8ED
:104DB0007040FFF707BF5B2805D07B2809D00E485D
:104DC0008460002070BD21462846BDE87040FFF792
:104DD00013BD21462846BDE87040FFF77BBE0000AA
:104DE0006E756C6C0000000066616C7365000000FD
:104DF0007472756500000000340100202DE9F04D4B
:104E00001D460C4698B0174621F0004123F00043A0
:104E1000002814BF4FF0010C4FF0000C0CEB440CB9
:104E2000FE4A0CEB02064FEA620C66452BD33E00AD
:104E300018BF012606EB45061644F94A964222D3CE
:104E4000F84A53EA070C02D0944205D148B918B089
:104E500000201146BDE8F08D002808BF4FF0000C7F
:104E600001D04FF0010C0CEB440212F5001F0AD8E0
:104E7000002F14BF4FF0010C4FF0000C0CEB45025B
:104E800012F5001F07D918B03A462B462146BDE857
:104E9000F04DFEF7D7BE0022DFF88CA3002CB8BF80
:104EA000534526DADFF884C36345A8BF022220DA1F
:104EB000DFF870C39C451CDCDFF874C30CEB235C8B
:104EC000BCF1140F08DDCCF1340627FA06FC0CFA0D
:104ED00006F6BE420DD108E05FB9CCF1140623FA04
:104EE00006FC0CFA06F69E4203D10CF00102C2F158
:104EF000020251EA000C19D1002D17DA002C18BF5C
:104F0000022A01D0012A07D00220FEF7C3FE18B002
:104F1000BDE8F04DFEF78EBE0220FEF7BBFEFEF7A9
:104F200089FE18B081F00041BDE8F08DB7F1000CAA
:104F30006CD1534525D104F1804212F5801201BF96
:104F400000280020B74918B008BFBDE8F08DB5486B
:104F5000884207DC002DA1BF6046294618B0BDE895
:104F6000F08D07E0281E05DA80F0004118B0604699
:104F7000BDE8F08DAF497944D1E9000118B0BDE832
:104F8000F08DDFF8A0C2634525D1002D1FDA19B1DD
:104F9000514512D1D8B909E0002840F0EC82A24A6C
:104FA000214618B062F31E01BDE8F08D00202146B5
:104FB00018B060F31E01BDE8F08D08DA18B0234682
:104FC000BDE8F04D024600206146FBF7F9BB18B082
:104FD0002146BDE8F08D514518DAB5F1804F0DD06E
:104FE000A5F1005CBCF1FF5C10D1B4F1000C0DDB4D
:104FF00018B06146BDE8F04D00F0F6BB234618B08E
:105000000246BDE8F04D1946FBF7B0B9060024F0A2
:10501000004C3BD1D9B1514533D1002C06DD002DD8
:10502000A1BF0020514618B0BDE8F08D002C01DD75
:10503000002D1BDB002C13DA002D11DB012A4FF0B1
:10504000000014BF78497C4918B0BDE8F08D022AF1
:1050500018BF002C0AD0012A08D1002C06DA0AE079
:10506000002CB8BF002D11DA012A04D0002018B09E
:105070000146BDE8F08D18B000204FF00041BDE8BA
:10508000F08DA1F14050B0F17F601AD0012000EB0B
:10509000E47050EA020421D0624C521E4FF0000B23
:1050A000104304BF4FF0000B644C654883427CDD25
:1050B000644A654893421FDD884217DB002D25DBDB
:1050C00037E0002C00DA4AB1022A0CBF01204FF071
:1050D000FF3018B0BDE8F04DFBF7D6B90120FEF760
:1050E000D9FD18B0BDE8F04DFEF7AEBD4D4A8A427D
:1050F00002DC002D0ADC1CE0814202DA002D18DA05
:1051000004E0484B994220DD002D12DD0220FEF71D
:10511000C1FDFEF79FFD05460E4600225346584648
:105120002146FBF723F918B066F31E012846BDE8B7
:10513000F08D0220FEF7AEFDFEF794FD0A462146F3
:1051400018B062F31E01BDE8F08D002230466146C2
:10515000FBF706F980460E466FF00102FBF778F97F
:105160004FF05532394BFBF7FEF842463346FBF71A
:10517000FDF80022364BFBF7F6F8824642463346EE
:10518000049110461946FBF7F1F85246049BFBF7D1
:10519000EDF88A4600904FF0C0422E4B4046314613
:1051A000FBF7E4F82C4A2B4B00E027E0CDE90601A1
:1051B00051460098FBF7DAF882460191274A284BBE
:1051C00040463146FBF7D2F85246019BFBF7C8F840
:1051D00082460B4602460591DDE90601FBF71FF802
:1051E000DDE90623002688463046FBF7B9F852462B
:1051F000059BFBF7B8F8024600F07EB90020B1F538
:10520000801F07DA352230466146FBF721F9064652
:105210006FF0340000EB215024E00000FFFF1F007E
:10522000FFFF0F000000F03F0000F07F0000404350
:1052300001FCFFFFE61700000000F0FF0000F0BFD8
:105240000000E0410000F043FFFFEF3F5555D53F20
:105250000000E03F4715F73FFE822B6544DF5DF815
:105260000BAE543EA0F2FF300190C1F3130040F0AA
:105270007F6141F040510291FE498842D8BF002031
:1052800004DDFD498142C8BF012001DD0D9008E029
:1052900000200D900198401C01900298A0F580100C
:1052A00002900299F54878440B910D9900EBC100EA
:1052B000D0E900230F9330460A920B99FBF750F880
:1052C000CDE90601DDE90A2130460F9BFAF7A7FF79
:1052D00002460B460020EA49FBF772FA05910246A6
:1052E0000B460090DDE90601FBF740F81490E54815
:1052F0008A464FF0000878440299006812904FF0F7
:10530000005040EA61010D980F9B01EB804000F5D1
:10531000002109910A9A1298FBF722F832460B9B5A
:10532000FBF721F842465346FBF720F80646029168
:1053300040465146099B129AFBF718F8DDE906230F
:10534000FBF711F83246029BFBF70AF8059B009A1F
:10535000FBF70CF80091149A049053461046194636
:10536000FBF704F806460246C7480B4602910621A1
:105370007844FEF709FCCDE90510029B3246104641
:105380001946FAF7F3FFDDE90532FAF7EFFF059169
:105390000646534640461946149AFAF740FF009BCA
:1053A000049AFAF7E3FF3246059BFAF738FFCDE996
:1053B00005104246534610461946FAF7D7FF002219
:1053C000B24B02910A90FAF72AFFDDE90532FAF7AB
:1053D00026FF0E464246AD4B4046FAF7C1FF029B00
:1053E0000A9AFAF7BDFFDDE90532FAF7BCFF42463B
:1053F00002910A90334610465146FAF7B7FFCDE9BD
:1054000006015346149A02990A98FAF7AFFF8A46A2
:1054100002903346424600990498FAF7A7FF534694
:10542000029AFAF7FCFE82460B4602460591DDE938
:105430000601FAF7F4FEDDE9062300208846064659
:10544000FAF78EFF5246059BFAF78DFF82460991C7
:105450004FF060428E4B30464146FAF787FF04908A
:1054600006918C4A8A4B50460999FAF77FFF82468B
:105470000291894A894B30464146FAF777FF5246F6
:10548000029BFAF7CCFE864B7B440D9A03EBC203DA
:10549000D3E90023FAF7C3FE0E9007910198FAF7BB
:1054A000F3FF0591DDE9061382460E9A0498FAF798
:1054B000B6FE7C4A7A440D9B02EBC303D3E900237A
:1054C00000930292FAF7ABFE5246059BFAF7A7FE4D
:1054D0000026884652463046059BFAF741FF009B5E
:1054E000029AFAF73DFF069B049AFAF739FF079BE9
:1054F0000E9AFAF738FF024600200B460290384613
:105500002946FAF733FF824601912B463846194661
:10551000029AFAF725FF32464346FAF727FF52462A
:10552000019BFAF77CFE07468A46324643462946E7
:105530000298FAF71BFF05460E463A465346FAF71D
:105540006EFE594A8846914221DBA8EB020353EADA
:10555000000210D12A463346FAF702FFCDE90401D2
:10556000524A534B38465146FAF759FEDDE90423B7
:10557000FAF7E6FF21D20220FEF78CFBFEF76AFB6A
:105580000A46214618B062F31E01BDE8F08D494B72
:1055900028F000429A4210D3474A08EB020353EA2C
:1055A00000027FF4C6AD2A463346FAF7D9FE3A46E2
:1055B0005346FAF7C5FF7FF6BCAD0022019228F0F2
:1055C00000403E493E4A01EB2051824223DA481C0A
:1055D0004FF4801121FA00F040443A4AC0F30A51D6
:1055E0007A44394BA1F2FF31CB4020EA0303C0F3E8
:1055F000130040F48010C1F11401C84012680190FA
:10560000B8F1000FBCBF4042019028463146FAF77E
:10561000A7FE05460E462A46334638465146FAF757
:10562000FEFD4FF000084246284B40460591FAF730
:105630009DFECDE90601264A264B40460599FAF71C
:1056400095FE009102902A46334640460599FAF7A6
:1056500087FE3A465346FAF786FE1F4A1F4BFAF773
:1056600085FE009B029AFAF7DAFD07468846024655
:105670000B4635E08E9803007AB60B002E1400001E
:105680000000F03F66140000941300000000084082
:1056900009C7EE3FFD033ADCF5015B14E02F3EBE87
:1056A0006C1200003012000000009040FE822B655A
:1056B0004715973C00CC904000346F3F01FCFFFF42
:1056C0000000E03F7C110000FFFF0F00432EE63F8B
:1056D000396CA80C615C20BEEF39FAFE422EE63F21
:1056E000DDE90601FAF79BFDDDE9062305460E46D6
:1056F000FAF736FE3A464346FAF735FE0F462A4693
:105700003346009010461946FAF730FE82460246AC
:105710002E4888460B4605217844FEF735FA524656
:105720004346FAF723FE2A463346FAF71CFE804624
:105730008A463B4628463146009AFAF717FE3B4612
:10574000009AFAF76CFD0691009000224FF080431A
:1057500040465146FAF704FE0F460C904246534627
:1057600028463146FAF702FE3B460C9AFBF728F82A
:10577000069B009AFAF7F4FD2A463346FAF7F0FD45
:105780000022134BFAF7EFFD054601980E4601EB98
:1057900000510815002810DC28463146019AFAF716
:1057A00057FEFEF7DDF9042808BFFEF75BFA28462E
:1057B0003146019AFAF74CFE05460B4618B02A46C8
:1057C00058462146BDE8F04DFAF7D0BD1C10000048
:1057D0000000F03F00E0401C002804D001780029C0
:1057E00001D02029F7D970472DE9F04106460F4630
:1057F000FBF780F8041E0D4618BF0120284320F057
:105800000040C0F17F6000F1E040C00F0ED0301CBE
:1058100018BF0120384320F00040C0F17F6000F144
:10582000E040C00F04BF0120FEF734FA20462946AD
:10583000BDE8F08100000000000000000000000052
:10584000000000003F4000000000000000003000A9
:10585000400030004000000009000BC03D000BC0BC
:105860003D00090018C024407FE022403180000044
:10587000180024C01B000D803240018003801C40B2
:1058800027401C800740004010006000000000001E
:10589000000000000000000000001F8020404020A9
:1058A0000000402020401F8000000000090006008A
:1058B0001F80060009000000040004003F8004006F
:1058C0000400000000100060000000000000000064
:1058D0000400040004000400040000000000004074
:1058E0000000000000000000002001C00600380099
:1058F000400000001F802040204020401F8000000A
:10590000000010403FC000400000000018C02140CF
:1059100022402440184000001080204024402440B1
:105920001B80000002000D0011003FC0014000007C
:105930003C80244024402440238000001F802440D9
:1059400024403440038000003000200027C038008D
:10595000200000001B802440244024401B800000C5
:105960001C0022C0224022401F80000000000000D6
:10597000084000000000000000000000046000007B
:1059800000000000000004000A00110020804040D8
:10599000090009000900090009000000000040405A
:1059A000208011000A000400180020002340240079
:1059B000180000001F802040274029401F400000A1
:1059C000004007C039000F0001C0004020403FC028
:1059D000244024401B8000001F80204020402040A5
:1059E0003080000020403FC0204020401F80000049
:1059F00020403FC024402E4030C0000020403FC027
:105A000024402E00300000000F0010802040224073
:105A10003380020020403FC0040004003FC020400B
:105A2000204020403FC02040204000000060202057
:105A300020203FC02000200020403FC024400B0019
:105A400030C0204020403FC020400040004000C007
:105A50003FC03C0003C03C003FC0000020403FC0AE
:105A60000C4023003FC020001F80204020402040E9
:105A70001F80000020403FC0244024001800000088
:105A80001F802140214020E01FA0000020403FC097
:105A90002440260019C0004018C024402440224061
:105AA00031800000300020403FC020403000000026
:105AB00020003F80004000403F80200020003E004A
:105AC00001C0070038002000380007C03C0007C0B4
:105AD00038000000204039C0060039C020400000D6
