:020000040800F2
:10000000A00C002045010008B5220008B91C00081A
:10001000B32200082D100008B53C000800000000C5
:100020000000000000000000000000007D26000825
:100030002F1000080000000067250008F1370008B5
:100040005F0100085F0100085F0100085F01000810
:100050005F0100085F0100085F0100085F01000800
:100060005F0100085F0100085F0100085F010008F0
:100070005F0100085F0100085F0100085F010008E0
:100080005F0100085F0100085F0100085F010008D0
:100090005F0100085F0100085F0100085F010008C0
:1000A0005F0100085F0100085F0100085F010008B0
:1000B0005F010008453800085F0100085F01000883
:1000C0005F0100085F0100085F0100085F01000890
:1000D0005F0100080D3A0008753A0008DD3A000893
:1000E0000D1B00085F0100085F0100085F010008A8
:1000F0005F0100085F0100085F0100085F01000860
:100100005F0100085F0100085F0100085F0100084F
:100110005F0100085F0100085F0100085F0100083F
:100120005F0100085F0100085F0100085F0100082F
:10013000DFF80CD000F0C4FB00480047B1480008CD
:10014000A00C00200648804706480047FEE7FEE76F
:10015000FEE7FEE7FEE7FEE7FEE7FEE7FEE7FEE777
:10016000F537000831010008A0F14101192900D834
:100170002030704740EA01039B0703D009E008C91B
:10018000121F08C0042AFAD203E011F8013B00F85C
:10019000013B521EF9D27047D2B201E000F8012BA8
:1001A000491EFBD270470022F6E710B513460A46F7
:1001B00004461946FFF7F0FF204610BD30B505464E
:1001C0002A460B4612F8010B13F8014B08B1A04266
:1001D000F8D01CB1002802D06D1CF1E7284630BDD4
:1001E000421C10F8011B0029FBD1801A704730B562
:1001F00005460020034600E05B1C934205D2EC5C00
:10020000C85C201A01D1002CF6D130BD2DE9FE4F7B
:10021000804681EA0300C00F0C46009021F00041A7
:1002200023F00045B8EB0200A94105D24046214623
:1002300090461C460B46024623F00040104347D030
:10024000270DC7F30A00C3F30A510290401A019028
:1002500040286BDAC3F3130040F4801B00989246E9
:1002600020B10023D2EB030A63EB0B0B0198594634
:10027000C0F14002504600F0D6F906460D46504601
:100280005946019A00F0EEF910EB08006141002494
:1002900087EA115284EAE7731A4340D0009A62B3A6
:1002A000019A012A4FEA075215DC001B61EB02019B
:1002B0004FF0004202EA0752CDE90042001C41F52E
:1002C000801132462B4600F025FA03B0BDE8F08FCE
:1002D00040462146F9E7001B61EB0201001C41F595
:1002E000801300185B412018A2F5001747EB0301AB
:1002F00040EAD570B6196D4111E06D084FEA360637
:1003000045EAC0754FEA0752001B61EB0201001C71
:1003100041F5801149084FEA300000195141324639
:100320002B4603B0BDE8F04F00F0E5B9009801227C
:1003300040000023D0EB020263EBE07300982146FB
:100340004FEAE074B8EB000061EB0401E9E783F0E9
:1003500000435BE781F0004158E72DE9FE4F81EA59
:10036000030404F0004421F0004100944FF0000B1E
:1003700023F0004350EA01045ED052EA03045BD04C
:10038000C3F30A54C1F30A552C44A4F2F334019484
:10039000A0FB0254C1F3130141F48011C3F3130312
:1003A00043F4801301FB024400FB034E840A970AC6
:1003B00044EA815447EA8357A4FB076802958D0AF3
:1003C00005FB07854FEA932C04FB0C542705029D7F
:1003D0004FEA065847EA1637B5EB08056EEB070CEF
:1003E000870E920E47EA811742EA8312A7FB0201A9
:1003F000B6EB0B0164EB00042B0D43EA0C335E18E3
:1004000044EB1C50DA465146E7FB0201C5F31304E6
:100410004FEA0B3343EA14534FEA0432019C43EA98
:100420000603A4F10C040294009CCDE900B400F092
:1004300071F903B0BDE8F08F00200146F9E770B50F
:1004400021F0004303430CD0C1F30A550024D5EB3F
:10045000040564EB0403D617AD1AB34102DB002098
:10046000014670BD201841EB025170BD9623002259
:10047000114600F012B90EB5C10F80EAE0700844D1
:10048000CA07002140F233438DE80E000A460B46AE
:1004900000F040F903B000BD70B5C1F30A5201F09D
:1004A00000450024C1F3130140F2FF3341F48011F1
:1004B0009A4201DA002070BD40F233439A42A2F220
:1004C000334203DC524200F0BDF800E090402C4380
:1004D000F1D0404270BDC1F30A5210B5C1F313010F
:1004E00040F2FF3341F480119A4201DA002010BD3E
:1004F00040F233439A42A2F2334203DC524200F00C
:10050000A1F810BD904010BD00F0004230F0004056
:100510000AD0C10D01F56071C0F3160042EA015125
:10052000C208400711437047002001467047000091
:1005300030B5041E71F1000404DB4FF0004440426A
:1005400064EB0101141E73F1000405DB1C464FF03F
:100550000043524263EB0403994208BF904230BD0E
:1005600001F0004330B421F0004150EA010206D00E
:100570000A0DA2F56072C1F31301002A02DC30BC3F
:1005800000207047440F44EAC104C100E01830BCA9
:1005900000EBC25000F078B830B50B4601460020A1
:1005A0002022012409E021FA02F59D4205D303FA35
:1005B00002F5491B04FA02F52844151EA2F10102B6
:1005C000F1DC30BD2DE9F05F0546002092469B46E8
:1005D00088460646814640241BE028464146474659
:1005E000224600F02FF853465A46C01A914110D3C4
:1005F00011461846224600F016F82D1A67EB01083E
:100600004F4622460120002100F00DF817EB0009AB
:100610004E41201EA4F10104DFDC484631462A4643
:100620004346BDE8F09F202A04DB203A00FA02F19D
:10063000002070479140C2F1200320FA03F31943D0
:1006400090407047202A04DB203A21FA02F0002172
:10065000704721FA02F3D040C2F1200291400843D2
:1006600019467047202A06DBCB17203A41FA02F0E0
:1006700043EAE07306E041FA02F3D040C2F12002FF
:1006800091400843194670470029A8BF7047401C95
:10069000490008BF20F00100704710B4B0FA80FC98
:1006A00000FA0CF050EA010404BF10BC704749B1D5
:1006B000CCF1200421FA04F411FA0CF118BF012145
:1006C00021430843A3EB0C01CB1D4FEA00614FEA25
:1006D000102042BF002010BC704700EBC3501044F4
:1006E0000029A4BF10BC7047401C490008BF20F07F
:1006F000010010BC704710B5141E73F1000408DA35
:10070000401C41F1000192185B411A4301D120F0D5
:10071000010010BD2DE9F04D92469B4611B1B1FA92
:1007200081F202E0B0FA80F220329046FFF77BFFC0
:1007300004460F4640EA0A0041EA0B0153465A4676
:10074000084313D0114653EA010019D0C8F1400202
:100750005046FFF777FF05460E465046594642463B
:10076000FFF761FF084305D0012004E02046394629
:10077000BDE8F08D0020054346EAE0762C43374380
:100780000A986305E40AA0EB08000022FD0A44EA87
:1007900047540A3002D500200146E9E70105101947
:1007A0006941DDE9084500196941BDE8F04DA2E75E
:1007B0002DE9F04D81EA030404F0004B21F00045DF
:1007C00014464FF0000A23F0004150EA050220D001
:1007D00054EA01021DD0C5F30A570246C5F31303BC
:1007E000C1F31300C1F30A5640F4801543F480139B
:1007F000A7EB0608101BD64608F2FD3873EB050080
:1008000002D308F1010801E092185B41B8F1000F32
:1008100003DA00200146BDE8F08D00204FF480117E
:10082000064684460EE0171B73EB050705D3121B23
:1008300063EB050306434CEA010C49084FEA30001C
:1008400092185B4150EA0107EDD152EA030012D041
:1008500082EA040083EA0501084305D0101BAB417E
:1008600006D20122002306E000224FF0004302E0FE
:100870006FF0010253101AEB06004CEB085110EB1D
:100880000A0041EB0B01BDE8F04DFFF734BFC1F3A7
:100890000A52C1F3130140F2FF3341F480119A422E
:1008A00002DA00200146704740F233439A42A2F236
:1008B000334202DC5242FFF7C5BEFFF7B4BE000070
:1008C000064C074D06E0E06840F0010394E807009D
:1008D00098471034AC42F6D3FFF72EFCA869000805
:1008E000C86900082DE9F04D00231A461B1A8A41F9
:1008F00003DB00200146BDE8F08DC1F30A52C1F3CD
:10090000130141F480154FF0000BD10702D10018FC
:100910006D41521E0027044640F2FF11384601EB9C
:10092000620A3E468046024600204FF48011FFF7DF
:1009300089FEC2197141BB1846EB0100B4EB030CF0
:1009400075EB000C04D3E41A65EB000517460E4660
:10095000241908F101006D4180463428E3DDF919BE
:1009600046EB0600091BA84103D24FF0FF321346A5
:1009700001E0002213461BEB070046EB0A51BDE8DD
:10098000F04DFFF7B8BE002904D0816841F00101A5
:1009900081607047816821F001018160704700002B
:1009A00010B5154988420AD144150121204601F0AD
:1009B00001FE2046BDE81040002101F0FBBD0F49BB
:1009C00088420AD104150121204601F0F3FD20469A
:1009D000BDE81040002101F0EDBD094988420AD16F
:1009E0000121CC03204601F0E5FD2046BDE8104082
:1009F000002101F0DFBD10BD0024014000280140AE
:100A0000003C0140014600208968490700D50120CB
:100A10007047C06C80B270470246002012680A42DC
:100A200000D001207047014600208968090700D5E1
:100A30000120704770B500240025194E01220723BC
:100A40001146304600F054F80121304600F08FF88E
:100A500002213046FFF7E0FF0028F9D03046FFF7CB
:100A6000D8FF0544022000F0E3FA641CE4B2052C30
:100A7000E4D30520B5FBF0F0FFF7F8FCFFF744FDE9
:100A80004FF06632074BFFF768FC6FF00B02FFF781
:100A9000D6FC0122FFF7D3FCBDE87040FFF760BD34
:100AA0000024014066660A4010B542680E4B1A40A9
:100AB0000C790B6842EA04221343436082680B4BB3
:100AC0001A40D1E9024323434C7942EA44021343DA
:100AD0008360C26A22F47002097C491EC9B242EAEC
:100AE0000151C16210BD0000FFFEF0FFFDF7F1FFF4
:100AF00070B5072609290AD9C568A1F10A0404EBD3
:100B00004404A640B543A3401D43C56007E0056902
:100B100001EB4104A640B543A3401D4305611F23DB
:100B2000072A09D2446B521E02EB820293409C4377
:100B300091400C43446370BD0D2A09D2046BD21F4F
:100B400002EB820293409C4391400C43046370BDCE
:100B5000C46A0D3A02EB820293409C4391400C43DD
:100B6000C46270BD816841F008018160704700294E
:100B700004D0816841F4A00181607047816821F44C
:100B8000A00181607047816841F004018160704775
:100B900030B587B001214FF4017001F0FDFC4FF436
:100BA000004001F0E1FC0220ADF8040000248DF8C3
:100BB000074001A9184801F021F8184D2846FFF711
:100BC000EFFE02948DF80C408DF80D404FF460213B
:100BD0000491059401218DF8181002A92846FFF709
:100BE00063FF01212846FFF7CEFE2846FFF7BAFF34
:100BF0002846FFF718FF0028FAD12846FFF7C3FF61
:100C00002846FFF7FFFE0028FAD101212846FFF70A
:100C1000AEFF07B030BD00000008014000240140D5
:100C200010B56FF0040002F0D5FD094809490068CD
:100C3000B0FBF1F00849C0B2087000EB4002C2EB13
:100C4000C0104FF6FF7202EAC000488010BD0000DD
:100C50000000002000127A00280000202DE9FF414A
:100C60000121182001F098FC0121084601F094FCB4
:100C700043F20200ADF80C0010208DF80F000320A5
:100C80008DF80E00244C03A9204600F0B7FF022186
:100C9000204601F00DF86114204601F009F8A11476
:100CA000204601F005F84FF4C040ADF80C00482094
:100CB0008DF80F00194F03A9384600F09FFF4FF43D
:100CC000C06001F02BFB28248DF8004000258DF832
:100CD00001508DF8025001268DF80360684601F03E
:100CE000EBFAF003ADF80C008DF80F4003A938467D
:100CF00000F084FF0F21022000F06CFF01948DF8BA
:100D0000085008208DF809008DF80A6001A800F04D
:100D100027FFBDE8FF810000000C014000100140EA
:100D2000012080F3138805480168054A01F4E06159
:100D300011430160BFF34F8FFEE700000CED00E0B0
:100D40000400FA057FB50121022001F017FC0920FB
:100D5000ADF8080041F61F40ADF804000024ADF8DE
:100D60000A40ADF806400E4D01A9284602F000FEEB
:100D700001224121284602F0F0FD1D218DF80010CE
:100D80008DF8014003218DF8021001218DF8031028
:100D9000684601F091FA0121284602F0C6FD7FBDA8
:100DA00000040040F0B587B006460121480401F078
:100DB000E5FB0121042001F0EFFB0424ADF818400D
:100DC00003258DF81A5018218DF81B101E4F06A907
:100DD000384600F013FF0821ADF818108DF81B40BD
:100DE00006A9384600F00AFF4FF4A06001F096FA19
:100DF00026218DF804108DF8055002208DF806008C
:100E000001208DF8070001A801F056FA0296002093
:100E1000ADF80C00ADF80E00ADF81000ADF8140000
:100E20000C20ADF81200094C02A9204602F0DCFEAD
:100E3000012240F22551204602F0BBFE012120464E
:100E400002F084FE07B0F0BD0008014000440040FD
:100E500070B586B005460121880401F08FFB0121A1
:100E6000082001F099FB4FF48060ADF814000324D2
:100E70008DF8164018218DF817101F4E05A9304621
:100E800000F0BCFEF114ADF8141004218DF8171019
:100E900005A9304600F0B2FE4FF4A06001F03EFA22
:100EA00027208DF800008DF801408DF802400120C8
:100EB0008DF80300684601F0FFF901950020ADF8B8
:100EC0000800ADF80A00ADF80C00ADF810000C20D9
:100ED000ADF80E00094C01A9204602F085FE012262
:100EE00040F22551204602F064FE0121204602F026
:100EF0002DFE06B070BD0000000C0140004800400F
:100F00002DE9F04105460F4600240C4E0BE0402130
:100F1000304602F027FE0028F9D0295D304602F065
:100F2000C5FE641CA4B2BC42F1D34021304602F09D
:100F300019FE0028F9D0BDE8F0810000004800400B
:100F400070B54FF400512C4800F0ABFE2B4C00253F
:100F5000A8B1A572A089B0F5967F4BD3A07864287C
:100F600001D2401CA070FFF765FD606024498842F3
:100F70003EDD2449884205DD6420607239E00120AD
:100F8000A072E7E72049884202DD5A20607230E013
:100F90001E49884202DB502060722AE01C498842C8
:100FA00002DB4620607224E01A49884202DD3C20C0
:100FB00060721EE01849884202DD3220607218E03B
:100FC0001649884202DD2820607212E014498842E6
:100FD00002DB1E2060720CE01249884202DB142002
:100FE000607206E01049884203DB0A20607200E06C
:100FF0006572A58170BD0000001001403402002020
:10100000B81E6540B81E85405C8F82407B147E40D0
:101010009A9979408FC275405C8F7240D7A3704017
:1010200052B86E40A4706D409A996940FEE77047CF
:101030000B49498848434FF0E021486100238B6108
:10104000086940F0010008610869C20701D0C003C7
:10105000FAD5086920F0010008618B617047000033
:10106000280000200B49097848434FF0E0214861EF
:1010700000238B61086940F0010008610869C2071C
:1010800001D0C003FAD5086920F0010008618B6126
:1010900070470000280000202DE9F0412B4C01276B
:1010A000FD03207D2A4E4FF00208002816D1294664
:1010B000304600F0F6FD80B1C820FFF7B9FF2946A1
:1010C000304600F0EEFD48B12946304600F0E9FD1B
:1010D0000028F9D184F8158000E06775207D01288B
:1010E00014D12946304600F0DCFD78B1C820FFF766
:1010F0009FFF2946304600F0D4FD38B129463046DE
:1011000000F0CFFD0028F9D184F81580207D022859
:1011100017D12946304600F0C4FD002811D0C82060
:10112000FFF786FF2946304600F0BBFD002808D0B7
:101130002946304600F0B5FD0028F9D1A07A10B15B
:101140006775BDE8F08103206075FAE7340200207E
:10115000001001402DE9F0412B4C207D627D904232
:101160004FD001273E03294D022A10D1314628468F
:1011700000F09EFD01F0DEFA227D62B13146284684
:1011800000F098FDA77501F0B5F902202075607D8B
:10119000012803D01EE001F05BFCF3E702212846A2
:1011A00000F086FD3146284600F082FD227D12B116
:1011B000022A03D00DE001F04BFC0AE0002001F010
:1011C000C3FE01F045FC002020723146284600F0A5
:1011D00071FD2775607D032813D14FF47A70FFF7F6
:1011E00027FF0221284600F063FD3146284600F023
:1011F0005FFD4FF40051284600F05AFD0320207592
:10120000FEE7BDE8F081000034020020000C014040
:101210000FB4F0B5B3B0C82101A8FEF7C4FF002495
:1012200039AA01A8389902F05BFD0020009001A8BE
:10123000FEF7D6FF86B20D4F01AD0BE040213846D8
:1012400002F090FC0028F9D0295D384602F02EFD0E
:10125000641CA4B2B442F1D34021384602F082FCAF
:101260000028F9D033B0F0BC5DF814FB0044004016
:1012700070B590B005460E463C2101A8FEF793FFDD
:101280004FF4E130FFF78EFD4FF47A742046FFF7FC
:10129000CFFE2046FFF7CCFE09E000F085FAC82219
:1012A00039A13AA000F0ACFB2046FFF7C1FEC822EE
:1012B00035A13AA000F0A4FB0028EED1C82232A14B
:1012C00037A000F09DFB0028F8D1C8222EA136A03F
:1012D00000F096FB0028F8D10A20FFF7A9FEC822EB
:1012E00029A137A000F08CFB0028F8D1C82226A144
:1012F00036A000F085FB0028F8D12046FFF798FEC5
:101300002046FFF795FE2046FFF792FE2046FFF7A6
:101310008FFE3C2101A8FEF746FF33462A462DA149
:1013200001A802F0C9FC224617A101A800F068FB41
:101330000028F8D1C82214A12CA000F061FB0028DD
:10134000F8D14FF4FA7422460FA12BA000F058FBFD
:101350000028F8D14FF4967422460BA133A000F078
:101360004FFB0028F8D1C82207A134A000F048FBA9
:101370000028F8D13449088064213448FEF713FF6F
:1013800010B0002070BD00004F4B000041542B43B3
:1013900049504D4F44453D3000000000415400008D
:1013A000415445300000000041542B554152543DFA
:1013B0003131353230302C382C312C302C3000008B
:1013C00041542B43574D4F44453D320041542B521D
:1013D0005354000041542B43575341503D22257331
:1013E000222C222573222C312C34000041542B4313
:1013F00049504D55583D300041542B4349505354AA
:101400004152543D22554450222C223235352E3241
:1014100035352E3235352E323535222C36303135B4
:10142000362C34323235342C3000000041542B43FA
:1014300049504D4F44453D310000000041542B437D
:10144000495053454E440000360000206C010020F6
:1014500001460020054A1288130406D5044BC2F346
:101460000E0298541846FEF7A9BE704736000020B9
:101470006C0100202DE9F041324D288800045ED532
:10148000314C0026207802283DD1304A10787B2844
:1014900039D1A6802E4BA088115C19547D2902D029
:1014A000401CA080F7E72A4803F07EF9206100285D
:1014B0003FD028A1274603F059F901468069C96940
:1014C000FFF709F8B860A0F56A41FC3914D123A1EF
:1014D000386903F04BF9026922A1234802F0ECFBC2
:1014E00022A1386903F042F902691F481DA1143096
:1014F00002F0E2FB03203870386903F013F964212D
:101500001348FEF750FE20780A2818D12A78627016
:101510000F480E496430FEF72DFE64210B48FEF79C
:1015200042FE2E80BDE8F041094813A16430FEF769
:1015300045BE64210548FEF736FE11480680BDE829
:10154000F0810000360000203C0000206C010020EB
:1015500030050020706F72740000000073736964BE
:1015600000000000257300006002002070617373AA
:10157000776F726400000000434C4F5345440000F5
:1015800038000020F0B589B0484D022428780128A1
:101590001BD0474E00244FF4FA62718A02281AD0F9
:1015A000042703281ED0042821D005282BD00A2880
:1015B00009D1914262D33F48E96800F044FD3D48BB
:1015C00000F052FA748209B0F0BD3BA13DA0FFF7D4
:1015D0004FFE2C70F7E79142F5D33FA000F044FA9C
:1015E0007482F0E745A000F03FFA2F70EBE700F0BF
:1015F00093F94D49A1F1140000F00EF90028F8D13B
:1016000005202870DFE72948143007723C21018348
:1016100045491431C160963101644131C164847619
:101620004FF4C87631462348FEF7BDFDEE601F4AF1
:10163000314614321F4800F02FFC3C4804801D48FE
:1016400000F012FA3A4A1B48E96800F0F9FB022858
:1016500005D1184A07A908A8EB6800F02EFB35A0B1
:1016600000F0E2FD39A000F0DFFD3EA000F0DCFD5F
:1016700009B043A0BDE8F04000F0D6BD40F2DC5018
:101680008142A0D3202101A8FEF78DFD01208DF815
:1016900004408DF805408DF806403A468DF8070065
:1016A00001A93EA000F0A1FD74828CE73C0000205F
:1016B00034020020A003002061736471776539381B
:1016C000363700005869616F59695F494F545F416F
:1016D0006972426F780000007B22636F6465223A72
:1016E0002230222C226D7367223A22737461727445
:1016F00020636F6E6E656374227D00007B22636FD2
:101700006465223A2231222C226D7367223A2267C5
:10171000657457696669496E666F3A737563636588
:101720007373227D00000000740200203600002048
:10173000CD1A00087374617475732F7365742F3735
:10174000434446413130343941444100737461743B
:1017500075732F6765742F374344464131303439F0
:101760004144410073657474696E672F7365742F0B
:101770003743444641313034394144410000000090
:1017800073657474696E672F6765742F37434446B9
:1017900041313034394144410000000064657669CC
:1017A00063655F696E666F0010B5184C4021204676
:1017B00002F0D8F90028F9D02B21204602F076FA61
:1017C0000F20FFF735FC4021204602F0CBF900281E
:1017D000F9D02B21204602F069FA0F20FFF728FCF0
:1017E0004021204602F0BEF90028F9D02B212046E6
:1017F00002F05CFA4FF4FA70FFF71AFCBDE81040F3
:10180000142203A103A000F0FBB800000044004034
:101810004F4B00004154000030B58FB004460D46D8
:101820003C216846FEF7BFFC3C216846FEF7BBFC46
:101830002B46224618A1684602F03EFA64221BA1FC
:10184000684600F0DDF810B101200FB030BDC822AD
:1018500019A11AA000F0D4F80028F8D1C82216A1C6
:1018600019A000F0CDF80028F8D1C82212A121A0BB
:1018700000F0C6F80028F8D114220FA121A000F032
:10188000BFF80028F8D12249088064212148FEF7DA
:101890008AFC0020D9E7000041542B43574A4150AD
:1018A0003D222573222C22257322000057494649E8
:1018B00020474F54204950004F4B000041542B43C8
:1018C00049504D55583D300041542B4349505354D5
:1018D0004152543D22554450222C223139322E316E
:1018E00036382E312E36222C383038362C383038D7
:1018F000362C300041542B4349504D4F44453D3127
:101900000000000041542B43495053454E44000011
:10191000360000206C01002070B54FF4E130FFF775
:1019200041FA4FF47A742046FFF782FB2046FFF716
:101930007FFB4FF4487509E0FFF736FFC8221DA171
:101940001DA000F05DF82846FFF772FBC82219A120
:101950001DA000F055F80028EED1C82215A11BA04B
:1019600000F04EF80028F8D1C82212A119A000F00A
:1019700047F80028F8D10A20FFF75AFBC8220DA12A
:101980001AA000F03DF80028F8D1C82209A11AA039
:1019900000F036F80028F8D12046FFF749FB204632
:1019A000FFF746FB2046FFF743FB2046FFF740FBCF
:1019B000012070BD4F4B000041542B4349504D4F07
:1019C00044453D3000000000415400004154453082
:1019D0000000000041542B554152543D3131353205
:1019E00030302C382C312C302C30000041542B431B
:1019F000574D4F44453D310041542B525354000044
:101A00002DE9F04180460F461446134D00262E80E6
:101A100064211248FEF7C7FB414611A0FFF7F8FB0F
:101A2000C7B18CB916E00A20FFF702FB2888000432
:101A30000AD53846FFF70CFD18B12E800020BDE80E
:101A4000F0812E800120FAE7641E2404240CEAD1E0
:101A50000120F4E70120F2E7360000206C010020AD
:101A600025730D0A000000000FB4F0B5B3B0C82113
:101A700001A8FEF798FB002439AA01A8389902F0C2
:101A80002FF90020009001A8FEF7AAFB86B20E4FA6
:101A900001AD0BE04021384602F064F80028F9D08F
:101AA000295D384602F002F9641CA4B2B442F1D3B5
:101AB0004021384602F056F80028F9D033B0002013
:101AC000F0BC5DF814FB00000044004070B5064611
:101AD0000D460B4C0FE00C4C0A4861882A46014425
:101AE0003046FEF747FB608828446080284670BD7A
:101AF0000A20FFF79DFA23881B04F9D5EBE70000C5
:101B0000360000206C0100203C00002010B54FF48E
:101B10000044204600F014F8002808D0204600F0C9
:101B200009F80348007D002801D1FFF7F9F810BD3E
:101B3000340200200149086070470000140401408D
:101B400001460020054A12680A40044B14331B6802
:101B50000B4202D0002A00D001207047000401404F
:101B600030B51B4A83790168002B2AD013688B4358
:101B70001360111D0B680468A3430B6001791144C5
:101B80000B68046823430B60114C08342168036818
:101B900099432160231D19680568A943196041799B
:101BA000102905D011440A68006802430A6030BD5C
:101BB00021680268114321601968006801431960B7
:101BC00030BD0079104402688A43026030BD0000D5
:101BD0000004014010B58A07120F0F23934021F033
:101BE0000304054921448C689C438C608B689040B9
:101BF00003438B6010BD0000000001402DE9F0415F
:101C00000022CC7804F00F03E40601D58C7823433E
:101C10000C784FF00F0714F0FF0F4FF0010C1CD0A1
:101C200005680CFA02F40E882640A64211D19600EF
:101C300007FA06F825EA080503FA06F848EA050552
:101C4000CE78282E02D0482E02D002E0446100E077
:101C50000461521C082AE4D305600A88FF2A1ED9B1
:101C60004568002202F108060CFA06F40E882640A8
:101C7000A64210D1960007FA06F825EA080503FAED
:101C800006F848EA0505CE78282E00D14461CE78C2
:101C9000482E00D10461521C082AE3D34560BDE8F8
:101CA000F0810246002092680A4200D0012070476D
:101CB0004161704701617047FEE77FB505460E46FA
:101CC0000020039002920024009002A803F046FE38
:101CD0008DF80C000398C0F3031002281AD101A953
:101CE000029800F079F8029904464218029201988D
:101CF0001044801A02280DDB02A803F02FFE8DF895
:101D00000000009800F00100287002A803F026FEF1
:101D10003070012404B0204670BD2DE9FE4F82468C
:101D20000C980E4614461F464FF00009CDF8089057
:101D30000190C84601A803F011FE8DF80800029832
:101D4000C0F30310092827D16946019800F044F830
:101D5000019980460844019000994518281A0228E4
:101D60001ADB01A803F000FEAAF80000C4F80090F6
:101D70000DE02068B04202DD4FF0FF380CE001A812
:101D800003F0ECFD2268511C216047F82200019805
:101D9000A842EED34FF001084046BDE8FE8FF8B5EB
:101DA00007460E4601240025002030606D1C042DDE
:101DB0000FDC01216846B84701280AD19DF80020B0
:101DC000306802F07F0101FB04003060E40110067E
:101DD000ECD42846F8BD0000024A10600248FFF724
:101DE000DEBF0000BC0000200147000810B504461B
:101DF0000020CA1701EB526323F07F02891ACAB28E
:101E0000D911002901DD42F08002034600F10100F2
:101E1000E254EEDC10BD0000401C802801DA401CBA
:101E20007047B0F5804F01DA801C70470349884243
:101E300001DAC01C7047001D70470000FFFF1F0043
:101E40002DE9FC4104460F4615464FF0FF360020B1
:101E50000190009001212046A847012818D1694629
:101E60002846FFF79CFF601C0099FFF7BFFF401C4E
:101E700000990A18BA420BDC21B12044A847009906
:101E8000884205D120788DF804000198C0F303162C
:101E90003046BDE8FC8100002DE9FE4305460F46B3
:101EA00014460295002601960096204600F092F80E
:101EB0008046FFF7B1FFB84202DDB01EBDE8FE83E9
:101EC0008DF80460019820F0F000103001909DF82A
:101ED000041002A803F095FD41460298FFF786FF23
:101EE000029908440290207A042813D035A102A850
:101EF00003F073FD032102A803F083FD8DF8006059
:101F0000A17E009861F341000090E17E59B140F05C
:101F100004000AE02DA102A803F05FFD042102A83D
:101F200003F06FFDEAE720F004000090410708D5B8
:101F300094F83D1061F3C40094F83C1061F345102F
:101F40000090206C08B9A06C18B1009840F0800097
:101F50000090E06C08B9606D18B1009840F0400046
:101F600000909DF8001002A803F04BFD218B02A801
:101F700003F04DFDD4E9042302A8E16803F056FD07
:101F8000E07E58B1D4E90A2302A8616A03F04EFD4D
:101F9000D4E90D2302A8216B03F048FD009E300612
:101FA00005D5D4E9112302A8216C03F03FFD70068A
:101FB00004D54C3402A80ECC03F038FD0298401B27
:101FC0007CE700004D514973647000004D5154543A
:101FD0000000000070B504460025207A032802D0D6
:101FE000042802D002E00C2500E00A25D4E90412FE
:101FF000E06800F053F90544AD1CE07E68B1D4E917
:102000000A12606A00F04AF9D4E90D120646206B04
:1020100000F044F9304405442D1D206C08B9A16C32
:1020200029B1D4E9111200F039F90544AD1CE06C76
:1020300008B9616D29B1D4E9141200F02FF90544F3
:10204000AD1C284670BD0C2200F0B2B82DE9FE4F41
:102050000546DDE90C9A129E0F4690461C460295F5
:10206000002001900EA900960EC9204600F032F81B
:102070008346FFF7D1FEB84203DD6FF00100BDE8F3
:10208000FE8F302068F3C30064F3420069F3000060
:1020900001909DF8041002A803F0B3FC5946029881
:1020A000FFF7A4FE0299084402900EA902A80EC9E7
:1020B00003F0BCFC002C03DD514602A803F0A7FC92
:1020C000324611990298FEF755F802983044029072
:1020D000401BD4E77FB50546089C01A807C800F05F
:1020E000DDF82044801C002D00DD801C04B070BD94
:1020F0002DE9FF4F83B00646DDE91189109F8A461E
:10210000934602960025019500244146384600F08A
:1021100039F80090FFF780FE504503DDA01E07B0A0
:10212000BDE8F08F8DF80450019820F0F000803069
:102130006BF3C30020F00600801C01909DF8041092
:1021400002A803F05EFC00990298FFF74FFE029987
:102150000844029002A8069903F059FC0DE004EB34
:10216000440008EB800502A80ECD03F05FFC19F8CF
:10217000241002A803F045FC641CBC42EFDB02986B
:10218000801BCCE72DE9F04106460F4602250024CE
:1021900009E004EB440007EB800307CB00F07EF876
:1021A0000544ED1C641CB442F3DB2846BDE8F08115
:1021B0001CB50446002001900094022901DA801E1B
:1021C0001CBD8DF80400019862F3071001909DF882
:1021D0000410684603F015FC00210098FFF706FE86
:1021E000009901440091081B1CBDF0B5EFB00446F6
:1021F0000F4615464FF4C87631460BA8FDF7D3FFBE
:1022000000230894CDE905750898CDE902030493ED
:1022100000930BA81A4631460193FFF717FF0BA84E
:10222000FFF722FC6FB0F0BD70B5BCB00646C82108
:102230000AA8FDF7B8FFC82500240994079408945C
:10224000069606A90123CDE9003109A802900022D3
:1022500029460AA8FFF74CFF0E4804800AA8FFF79A
:1022600003FC0D4A29460AA8FFF7EAFD092802D017
:1022700000203CB070BD0AA8CDE9000503AB04AA5C
:10228000012105A8FFF749FD039808B10020F0E7F8
:102290000120EEE736000020CD1A000817B40098A0
:1022A000002803D000981EBCFDF79ABF01981EBC01
:1022B0007047FEE77047000070B50F23C278012613
:1022C0000178002A1ED0144A126802F4E062C2F5B6
:1022D000E062120AC2F10404D3404578A540827836
:1022E0001A402A43120101F1E02181F8002400780C
:1022F00000F01F018E404009800000F1E020C0F88E
:10230000006170BD01F01F0086404809800000F1A7
:10231000E020C0F8806170BD0CED00E00249084388
:1023200002490860704700000000FA050CED00E06B
:1023300010B50021002400220378422B10D14378ED
:102340004D2B0DD1435C1A4492B2491CC9B21E29CF
:10235000F8D3C17F807F01EB0020904200D1FF24A1
:10236000204610BD2DE9F0475E4C5F4D4FF0000652
:102370002088000419D55D48FFF7DAFFFF280FD148
:102380005A484179027901EB0221A984C179827905
:1023900001EB0221E984417A007A01EB00202885D3
:1023A000268064215148FDF7FEFE288AB0F5FA6FB9
:1023B00003D3E22000F0AEF82E82E98BA88C6427CC
:1023C000DFF82C810A266FF0130A4FF482798142DC
:1023D00028D0B8F800100AEB9104B0FBF7F0C2B2B5
:1023E00004F1080080B21032494600F00FFFA88CBB
:1023F000B0FBF6F0B0FBF6F106FB110204F11000A1
:1024000080B21032494600F001FFA88CB0FBF6F113
:1024100006FB11021834A0B21032494600F0F6FE55
:10242000A88CE883298CE88C81422AD0B8F8001067
:102430000AEB51044FF0500AB0FBF7F0C2B204F1BE
:10244000080080B21032514600F0E0FEE88CB0FB8C
:10245000F6F0B0FBF6F106FB110204F1100080B2B9
:102460001032514600F0D2FEE88CB0FBF6F106FBCC
:1024700011021834A0B21032514600F0C7FEE88CA9
:102480002884288D698C88422AD0B8F800108908E1
:1024900001EB4104103CB0FBF7F0C2B204F10800BC
:1024A00080B21032494600F0B1FE288DB0FBF6F044
:1024B000B0FBF6F106FB110204F1100080B21032FD
:1024C000494600F0A3FE288DB0FBF6F106FB110291
:1024D0001834A0B21032494600F098FE288D688466
:1024E000BDE8F0873800002034020020D001002031
:1024F0009406002010B54FF41650FEF7A9FC0221F7
:102500000348FFF7D7FBBDE810401420FEF790BD4D
:10251000000C014030B585B0054600241421684602
:10252000FDF741FE002142228DF800204D228DF85A
:1025300001208DF8025000208DF803008DF8040072
:102540006846425C224494B2491CC9B20529F8D3BA
:10255000200A8DF805008DF8064007216846FEF731
:10256000CFFC05B030BD7047034A516821F44041AB
:10257000014351607047000000100240054A0029E5
:1025800003D0D1690143D1617047D1698143D161E1
:102590007047000000100240054A002903D09169ED
:1025A00001439161704791698143916170470000D7
:1025B00000100240054A002903D0D1680143D160D0
:1025C0007047D1688143D16070470000001002401D
:1025D00010B5264A516801F00C01254B002927D07F
:1025E000042927D0082927D00360516801F0F001A1
:1025F0000909204B5C5C0168E1404160546804F4C7
:10260000E064240A1C5D21FA04F48460546804F434
:102610006054E40A1B5DD940C160526802F4404234
:10262000920B144B1B1F9A5CB1FBF2F1016110BDC0
:102630000360DAE70360D8E7516801F4701153686A
:1026400003F48033022404EB914133B153689B03BC
:1026500007D5094B59430160C7E7074B5943016050
:10266000C3E7034B59430160BFE70000001002407D
:1026700000127A001800002000093D00704700F0A9
:1026800001B800000CB500220192009227480168B1
:1026900041F4803101604FF4A063016801F400311E
:1026A00000910199491C0191009911B90199994230
:1026B000F3D10168890302D50121009100E0009265
:1026C0000099012930D11A490A6842F010020A60C3
:1026D0000A6822F003020A600A6842F002020A60F5
:1026E0004168416041684160416841F480614160F6
:1026F000416821F47C114160416841F4E811416076
:10270000016841F08071016001688901FCD5416870
:1027100021F003014160416841F0020141604168DC
:10272000C1F381010229FAD10CBD00000010024062
:10273000002002402DE9F0412D4C2088400861889E
:102740000325B1FBF5F10A3189B22A4E47F6FF7233
:1027500032805A23642200F0B1FC2088800800EB0C
:10276000400061880627B1FBF7F2B1FBF5F102EBFF
:10277000410189B24FF6E07232802D23322200F0FF
:102780009DFC208880086188B1FBF7F2B1FBF5F170
:1027900002EB410189B248F21F4232802D233222DE
:1027A00000F08CFC20886FF0170101EB500080B224
:1027B000282100F004FF20886FF0130505EB50007E
:1027C00080B2B42100F020FF208805EB900080B299
:1027D000E625294600F0CEFE2088800800EB400068
:1027E000103880B22946BDE8F04100F0A5BE0000D7
:1027F00094060020AA0000202DE9F041914FF889AD
:10280000B0F5FA7F7BD3B878022878D30024384615
:10281000B97A007D012903D110B14FF4FC6403E0C3
:10282000022801D14FF6FF74787A397A002688425F
:102830007ED0DFF8148250282ED3A8F800400C2454
:102840002346CD222146CA2000F0DEFB641CE4B200
:10285000132CF5D30C242346D2222146CF2000F09E
:10286000D3FB641CE4B2132CF5D30C242346D722EB
:102870002146D42000F0C8FB641CE4B2132CF5D32D
:102880000C242346DC222146D92000F0BDFB641C29
:10289000E4B2132CF5D3CAE03C2831D3A8F8006089
:1028A0000C252B46CD222946CA2000F0ADFB6D1C1D
:1028B000EDB2132DF5D3A8F800400C242346D22204
:1028C0002146CF2000F0A0FB641CE4B2132CF5D30A
:1028D0000C242346D7222146D42000F095FB641C0B
:1028E000E4B2132CF5D30C242346DC222146D92054
:1028F00000F08AFB641CE4B2132CF5D397E09EE051
:10290000282832D3A8F800600C252B46CD22294672
:10291000CA2000F079FB6D1CEDB2132DF5D30C2508
:102920002B46D2222946CF2000F06EFB6D1C00E022
:1029300084E0EDB2132DF3D3A8F800400C24234615
:10294000D7222146D42000F05FFB641CE4B2132C94
:10295000F5D30C242346DC222146D92000F054FB79
:10296000641CE4B2132CF5D361E0142830D3A8F82A
:1029700000600C252B46CD222946CA2000F044FBDE
:102980006D1CEDB2132DF5D30C252B46D222294612
:10299000CF2000F039FB6D1CEDB2132DF5D30C25C3
:1029A0002B46D7222946D42000F02EFB6D1CEDB219
:1029B000132DF5D3A8F800400C242346DC22214631
:1029C000D92000F021FB641CE4B2132CF5D32EE0D7
:1029D00068B3A8F800600C242346CD222146CA2003
:1029E00000F012FB641CE4B2132CF5D30C24234634
:1029F000D2222146CF2000F007FB641CE4B2132C46
:102A0000F5D30C242346D7222146D42000F0FCFA2B
:102A1000641CE4B2132CF5D30C242346DC2221469B
:102A2000D92000F0F1FA641CE4B2132CF5D34FF472
:102A300080510648FFF73EF9787A3872FE81BDE88A
:102A4000F081000034020020AA000020000C0140A8
:102A500010B518494FF6FF7008800923DE22194689
:102A6000C82000F0D1FA1523DE221946C82000F054
:102A7000CBFAC82215230921104600F0C5FADE2240
:102A800015230921104600F0BFFA0D23C82219466C
:102A9000C52000F0B9FAC52211230D21104600F01F
:102AA000B3FA1123C822BDE810401946C52000F032
:102AB000ABBA0000AA00002070B5404D288BB0F5DD
:102AC000FA6F7AD30024A87D3D49002647F6FF72AD
:102AD000012808D0022814D0032821D004282ED0A1
:102AE00005283BD068E00A802346202221460020AA
:102AF00000F08AFA641CE4B20D2CF5D30220A8750C
:102B00005AE00A800F24234618222146002000F0B4
:102B10007BFA641CE4B21C2CF5D30320A8754BE0AF
:102B20000A801E24234610222146002000F06CFA61
:102B3000641CE4B22B2CF5D30420A8753CE00A8079
:102B40002D24234608222146002000F05DFA641C53
:102B5000E4B23A2CF5D30520A8752DE00E8023466B
:102B600020222146002000F04FFA641CE4B20D2C14
:102B7000F5D30F24234618222146002000F044FA02
:102B8000641CE4B21C2CF5D31E24234610222146DB
:102B9000002000F039FA641CE4B22B2CF5D32D246C
:102BA000234608222146002000F02EFA641CE4B2DD
:102BB0003A2CF5D30120A8752E8370BD3402002075
:102BC000AA00002010B5112000F044FD1420FEF7EB
:102BD0002FFAD02000F03EFD072000F05DFD4220DE
:102BE00000F05AFD1D2000F057FDD12000F032FD0D
:102BF000002000F051FD1A2000F04EFD092000F0E9
:102C00004BFDD22000F026FD012000F045FD2220E2
:102C100000F042FDC02000F01DFD102000F03CFD42
:102C20003B2000F039FD002000F036FD022000F0CE
:102C300033FD112000F030FDC52000F00BFD032016
:102C400000F02AFDC82000F005FD002000F024FD62
:102C5000252000F021FD212000F01EFD052000F0C0
:102C60001BFD002000F018FD0A2000F015FD652076
:102C700000F012FD252000F00FFD772000F00CFD84
:102C8000502000F009FD0F2000F006FD002000F0AC
:102C900003FDF82000F0DEFC012000F0FDFCFE202A
:102CA00000F0D8FC002000F0F7FC022000F0F4FC5B
:102CB000202000F0CFFC362000F0CCFC082000F0F3
:102CC000EBFC3A2000F0C6FC552000F0E5FC2B2080
:102CD00000F0C0FC002000F0DFFC002000F0DCFC75
:102CE000012000F0D9FC3F2000F0D6FC2A2000F0A3
:102CF000B1FC002000F0D0FC002000F0CDFC012051
:102D000000F0CAFCDF2000F0C7FC7820FEF790F945
:102D1000BDE81040292000F09DBC10B5CF2000F088
:102D200099FC002000F0B8FCC12000F0B5FC302078
:102D300000F0B2FCED2000F08DFC642000F0ACFC53
:102D4000032000F0A9FC122000F0A6FC812000F076
:102D5000A3FCE82000F07EFC852000F09DFC102004
:102D600000F09AFC7A2000F097FCCB2000F072FC77
:102D7000392000F091FC2C2000F08EFC002000F0A7
:102D80008BFC342000F088FC022000F085FCF7204A
:102D900000F060FC202000F07FFCEA2000F05AFCEC
:102DA000002000F079FC002000F076FCC02000F04C
:102DB00051FC1B2000F070FCC12000F04BFC0120F6
:102DC00000F06AFCC52000F045FC302000F064FCF7
:102DD000302000F061FCC72000F03CFCB72000F080
:102DE0005BFC362000F036FC482000F055FC3A2011
:102DF00000F030FC552000F04FFCB12000F02AFC20
:102E0000002000F049FC1A2000F046FCB62000F03B
:102E100021FC0A2000F040FCA22000F03DFCF22042
:102E200000F018FC002000F037FC262000F012FC17
:102E3000012000F031FCE02000F00CFC0F2000F03D
:102E40002BFC2A2000F028FC282000F025FC08207C
:102E500000F022FC0E2000F01FFC082000F01CFCFB
:102E6000542000F019FCA92000F016FC432000F0CB
:102E700013FC0A2000F010FC0F2000F00DFC0020D5
:102E800000F00AFC002000F007FC002000F004FC29
:102E9000002000F001FCE12000F0DCFB002000F04D
:102EA000FBFB152000F0F8FB172000F0F5FB0720D6
:102EB00000F0F2FB112000F0EFFB062000F0ECFB2D
:102EC0002B2000F0E9FB562000F0E6FB3C2000F050
:102ED000E3FB052000F0E0FB102000F0DDFB0F20FD
:102EE00000F0DAFB3F2000F0D7FB3F2000F0D4FBDE
:102EF0000F2000F0D1FB2B2000F0ACFB002000F0F5
:102F0000CBFB002000F0C8FB012000F0C5FB3F20F8
:102F100000F0C2FB2A2000F09DFB002000F0BCFB6B
:102F2000002000F0B9FB002000F0B6FBEF2000F01D
:102F3000B3FB112000F08EFB7820FEF779F8BDE896
:102F40001040292000F086BB70B5064600240948D1
:102F5000018845884D430021084600F077FA00F0CB
:102F6000BDFB03E0304600F097FB641CAC42F9D394
:102F700070BD0000940600202DE9F003214A2C27A3
:102F80002A252B2691884FF0F00C49F241384FF456
:102F9000A07446F6040300280CD0994227D00120E3
:102FA00090711480A2F802C0414516D1D7711572F4
:102FB00056721CE000209071A2F800C05480414578
:102FC00001D0994213D1D7711572567299420ED120
:102FD00014804FF4F070508009E02220A1F50943DD
:102FE000893B09D0D0712120107220205072BDE899
:102FF000F003002000F07CB9D0714F2010724E20F9
:103000005072F4E7940600202DE9FE4F4FF0000BBC
:1030100000250026171AA3EB010881468A46681E80
:10302000002F03DD4FF00101019107E003D14FF0C4
:103030000001019102E00190C7F10007B8F1000F13
:1030400003DD4FF00100009007E003D14FF00000D6
:10305000009002E00090C8F10008474501DD3C46C1
:1030600000E04446601C029015E01FFA8AF11FFA46
:1030700089F000F015F83D444644A54202DD2D1BC1
:1030800001988144A64202DD361B009882440BF170
:10309000010B1FFA8BFB02988345E6DDBDE8FE8F2E
:1030A00010B500F0D3F900F019FB03484088BDE8E3
:1030B000104000F0F1BA0000A80000202DE9FC5FEC
:1030C00080468B4617469A4229D302FB02FA5B439D
:1030D0000093ABEB070085B20BEB070001901BE000
:1030E000A8EB070084B208EB0709A5EB0B060FE07D
:1030F000A4EB0800404306FB0600504506D80099A3
:10310000884203D929462046FFF7CAFF641CA4B2AF
:10311000A145EDD86D1CADB20198A842E0D8BDE83C
:10312000FC9F0000F8B501211C20FFF735FA4FF491
:103130007070ADF8000010208DF8030003208DF8AA
:10314000020069462F48FEF759FD2E484FF40071E2
:103150001030016040210160802101608115016013
:1031600000F0FAFA3220FDF763FF3220FDF760FF2E
:10317000254C46F6040649F24135A088FF2806D3BF
:10318000A0F57F41FF3902D0B0F5134F29D1D320EC
:1031900000F060FA00F08CF800F08AF800F088F88F
:1031A0000002A08000F084F8A188C0B20843A0808B
:1031B000A84210D0BF2000F04DFA00F079F800F0DE
:1031C00077F800F075F80002A08000F071F8A1888F
:1031D000C0B20843A080A088A84202D0B04200D06C
:1031E000A580A088A84202D1FFF797FD03E0B04276
:1031F00001D1FFF7E7FC0020FFF7BEFE0020FFF73C
:10320000A3FEF8BD000C0140940600202DE9F84F04
:1032100007460C464FF00008A1462248DFF888A078
:1032200000EB0210DFF884B00090009810F80860FE
:103230000025300604D54FF6FF70AAF8020002E020
:103240000020AAF8020021463846FFF729FF700641
:10325000060E641CA4B2BBF80000B84205D84FF6B5
:10326000FF70AAF80200BDE8F88FA4EB090010284F
:103270000BD06D1CEDB2082DDBD308F1010808F06E
:10328000FF08B8F1100FD0D3EDE74C467F1CBFB25A
:10329000BBF80000B842F0D84FF6FF70AAF8020061
:1032A000E1E70000E65E0008A80000209406002088
:1032B0002DE9F04100F028FA0C4C4FF480702060AA
:1032C000802020604026201D0660451505600120F5
:1032D000FDF7C8FE00F008FA07460120FDF7C2FE20
:1032E000266025603846BDE8F0810000100C0140E2
:1032F00070B50024544D46F604022946AB798988FE
:10330000012B18D1914216D0082814D2DFE800F022
:103310000406080A0C0E101206200CE007200AE032
:10332000042008E0052006E0012004E0002002E07F
:10333000032000E00220A1F51343413B01D091425C
:1033400059D1082812D2DFE800F0110406080A0C4F
:103350000E1080240AE0402408E0C02406E0202467
:1033600004E0602402E0A02400E0E024362044F0E1
:103370000804914201D144F0020400F06BF92046A8
:1033800000F08AF9A00606D528886988884208D204
:103390002980688005E028886988884201D92980C9
:1033A0006880287A00F056F9002000F075F90020B6
:1033B00000F072F92888401EC0F30F2000F06CF96D
:1033C0002878401EC0B200F067F9687A00F042F930
:1033D000002000F061F9002000F05EF96888401ECE
:1033E000C0F30F2000F058F9A878BDE87040401EE7
:1033F000C0B200F051B9082812D2DFE800F004068C
:1034000008110A0C0E1030240AE0102408E02024D1
:1034100006E0382404E0282402E0182400E0082410
:10342000A1F50940893809D0032044F4805400F004
:1034300011F92046BDE8704000F02EB9112046F287
:1034400040010C43F3E700009406002070B50446E9
:103450000E461A4D2846AA88007AA2F51341413932
:1034600007D0A2F5D041043903D0A979012913D09E
:1034700016E000F0EFF8200A00F00EF9E0B200F0DC
:103480000BF9687A00F0E6F8300A00F005F9F0B2BE
:10349000BDE8704000F000B92988091B491E8CB2B4
:1034A00000F0D8F8204600F0F7F8287A00F0D2F8BB
:1034B0003046BDE8704000F0EFB8000094060020F0
:1034C0002DE9F84F82460C460027A046184902EB2A
:1034D000C20001EB8000DFF85C9000900098C65DB0
:1034E00000254FF6FF7B300602D5A9F802B002E0B6
:1034F0000020A9F8020021465046FFF7D1FD7006D2
:10350000060E641CA4B2A4EB0800182809D06D1C98
:10351000EDB2082DE7D37F1CFFB2242FDED3BDE828
:10352000F88F44460AF1010A1FFA8AFAF3E700000D
:10353000D6640008A800002070B504460D4630226D
:1035400029462046FFF762FE04F1080080B22D22D2
:103550002946FFF75BFE04F1100080B211222946D4
:10356000FFF754FE1834A0B22946BDE8704010227F
:10357000FFF74CBE70B504460D4630222946204662
:10358000FFF744FE04F1080080B22D222946FFF720
:103590003DFE04F1100080B211222946FFF736FEED
:1035A00004F1180080B20E222946FFF72FFE2034C6
:1035B000A0B22946BDE870401022FFF727BE70B5C3
:1035C00004460D46002229462046FFF779FF04F104
:1035D0000C0080B201222946FFF772FF04F11800A7
:1035E00080B202222946FFF76BFF04F1240080B26B
:1035F00003222946FFF764FF3034A0B22946BDE814
:1036000070400422FFF75CBF70B504460D4655229A
:1036100029462046FFF7FAFD04F1080080B2472250
:103620002946FFF7F3FD04F1100080B20F2229466E
:10363000FFF7ECFD04F1180080B24D222946FFF798
:10364000E5FD2034A0B22946BDE870401322FFF703
:10365000DDBD00002DE9F041064600F07DF80D4C7F
:103660004FF4807020604020251F2860C70027602D
:103670000120FDF7F7FC304600F096F80120FDF739
:10368000F1FC802626600120FDF7ECFC2E602F6007
:10369000BDE8F081140C01402DE9F041064600F030
:1036A0005BF80D4C4FF48070206040202060C50016
:1036B000271D3D600120FDF7D5FC304600F074F871
:1036C0000120FDF7CFFC80263E600120FDF7CAFCFB
:1036D00026602560BDE8F081100C01400148C079EA
:1036E000FFF7B8BF9406002005488068C1B20548BE
:1036F00000684FF47F4202EAC000084480B270477D
:103700000010014008080140F8B5104C207801284D
:103710001AD0FF20ADF8000004268DF803600325C1
:103720008DF8025069460A48FEF768FA4FF4FF50D8
:10373000ADF800008DF803608DF802506946054829
:10374000FEF75CFA01202070F8BD0000A800002000
:103750000010014000080140F8B5104C2078022804
:103760001AD0FF20ADF8000010268DF80360032565
:103770008DF8025069460A48FEF740FA4FF4FF50B0
:10378000ADF800008DF803608DF8025069460548D9
:10379000FEF734FA02202070F8BD0000A8000020D7
:1037A0000010014000080140C1B2084A1161C9433C
:1037B000C9B25161010A4901054A11606FEA10203E
:1037C0000006C00C111D0860704700000010014089
:1037D000100801404FF0E021042804D0086920F0CF
:1037E000040008617047086940F0040008617047F0
:1037F0007047000010B50F48016841F001010160F9
:1038000041680D4A1140416001680C4A1140016055
:10381000016821F480210160416821F4FE014160CA
:103820004FF41F018160FEF72AFF05494FF0006049
:10383000086010BD001002400000FFF8FFFFF6FE18
:1038400008ED00E010B5324C0121204600F079F877
:1038500000285CD00121204600F064F82D4C2E4B4E
:1038600000212088A8B1020413D41A78C82A01D8EC
:10387000521C1A701A78142A0DD35A88824205D124
:1038800040F4004020805980197004E0588019707D
:1038900001E019705980214C2088A8B1020413D48A
:1038A0005A78642A01D8521C5A705A78142A0DD3B7
:1038B0009A88824205D140F4004020809980597056
:1038C00004E09880597001E05970998014494FF6CE
:1038D000E852088A904201D2401C0882C88990426E
:1038E00001D2401CC8818889904201D2401C888145
:1038F000088B904201D2401C0883888B904201D2F1
:10390000401C8883488A904201D2401C488210BDE6
:1039100000040040360000202C0000203800002069
:1039200034020020C94301827047002904D0018875
:1039300041F0010101807047018821F001010180FF
:10394000704702460020138A0B4092890A40002BE0
:1039500002D0002A00D001207047002A03D08289BB
:103960000A438281704782898A43828170470000BE
:1039700030B502881B4C1C4DA0420DD0A8420BD084
:10398000B0F1804F08D0194B984205D0184B98429F
:1039900002D0184B984203D122F070034A881A4390
:1039A000154B984206D0154B984203D022F4407331
:1039B000CA881A4302808A8882850A880285A042C2
:1039C0000AD0A84208D00E4A904205D00D4A904233
:1039D00002D00D4A904201D1097A018601218182EB
:1039E00030BD0000002C01400034014000040040C4
:1039F00000080040000C004000100040001400408F
:103A000000400140004401400048014070B5164CA0
:103A100040F225552946204600F0ABF888B12046F3
:103A200000F040F9C3B211480288110409D41049CA
:103A30008B54521C92B202805A2A02D342F40041A3
:103A400001800821204600F08DF8012806D120468B
:103A500000F028F90821204600F074F82946204695
:103A6000BDE8704000F06EB8003801403200002020
:103A7000CC00002070B5164D40F225563146284640
:103A800000F077F888B1284600F00CF9C4B211496B
:103A90000B88180409D4581C82B20F480A80C454F9
:103AA0005A2A02D342F4004008800821284600F038
:103AB00059F8012806D1284600F0F4F808212846D4
:103AC00000F040F831462846BDE8704000F03AB8B2
:103AD00000440040360000206C01002070B5164CF8
:103AE00040F225552946204600F043F888B120468B
:103AF00000F0D8F8C3B211480288110409D4104963
:103B00008B54521C92B202803B2A02D342F40041F1
:103B100001800821204600F025F8012806D1204622
:103B200000F0C0F80821204600F00CF82946204695
:103B3000BDE8704000F006B80048004034000020A6
:103B4000300100208A05C94301807047002904D054
:103B5000818941F4005181817047818921F40051AC
:103B6000818170470246002012880A4200D001205D
:103B7000704770B5002440F66A12C1F3421301F099
:103B80001F05012606FA05F2012B0CD0022B0DD0E1
:103B9000838A1340090A8E40008830400BB100B17F
:103BA0000124204670BD83891340F3E7038A134044
:103BB000F0E710B540F66A13C1F3421301F01F0499
:103BC0000121A140012B07D0022B07D014303AB1BC
:103BD00002680A43026010BD0C30F8E71030F6E7C7
:103BE00002688A43026010BD30B585B004460D46B8
:103BF000208A4CF6FF710840E98801432182A089A0
:103C00004EF6F3110840A9882A8911436A890243B4
:103C10001143A181A08A4FF6FF410840A9890143C1
:103C2000A1826846FEF7D4FC1D48844201D1039866
:103C300000E00298A189090408D500EBC00101EB5E
:103C4000001029684900B0FBF1F007E000EBC0016B
:103C500001EB001029688900B0FBF1F06422B0FB91
:103C6000F2F109010B096FF018056B4300EB8300BB
:103C7000A3891D044FF0320307D503EBC000B0FB4E
:103C8000F2F000F00700084306E003EB0010B0FB81
:103C9000F2F000F00F000843208105B030BD0000B5
:103CA000003801408088C0F308007047C1F3080164
:103CB00081807047FEE700000FB4084B10B504A9DF
:103CC00002AA039800F080F9044602A9002000F03F
:103CD00012FD204610BC5DF814FB0000F7460008FA
:103CE00037B514460846064B6A46214600F06CF983
:103CF00004466946002000F0FEFC20463EBD000060
:103D0000F7460008490050EAC12018BF04204A0DB8
:103D100018BF40F0010040F2FF72B2EB515F08BFE4
:103D200040F00200012808BF052070472DE9F0414E
:103D30004F1E00EBC7010446D1E9000115461E469F
:103D400037F006020DD02A463346FCF706FB7F1EED
:103D500004EBC703D3E90023FCF758FA37F0060257
:103D6000F1D1022F25D0042F13D0062F18BFBDE8A4
:103D7000F0812A463346FCF7F0FAD4E90A23FCF72F
:103D800045FA2A463346FCF7E8FAD4E90823FCF75B
:103D90003DFA2A463346FCF7E0FAD4E90623FCF75D
:103DA00035FA2A463346FCF7D8FAD4E90423FCF75F
:103DB0002DFA2A463346FCF7D0FAD4E90223FCF761
:103DC00025FA2A463346FCF7C8FAD4E90023BDE8B1
:103DD000F041FCF71BBA00000022134610460149CF
:103DE000FCF7E6BC0000F03FFCF710BA00221346D7
:103DF00010461146FCF7DCBC40F2013200204FF0C7
:103E0000E041FCF71CBB0000024A00201107FCF750
:103E100016BB000001FDFFFF02E008C8121F08C129
:103E2000002AFAD170477047002001E001C1121F3B
:103E3000002AFBD17047000001490860704700006C
:103E4000C80000202DE9FF5F82B00021DDE90430C9
:103E5000020DDDF840B0034318D044F61050A2F232
:103E6000FF3242431514119801281FD0A5EB0B0017
:103E7000401C5FEA000A4FF000064E4FDFF8389111
:103E8000B046504615D5CAF1000413E0119801243C
:103E90004AA3012801D16FEA0B010298119AC0E9E7
:103EA0000031C0E9024206B0BDE8F09FCBF100004E
:103EB000DFE704460021404A491842EB0450CDE9AF
:103EC000001012E0E00707D032463B464046494624
:103ED000FCF743FA8046894632463B46104619466F
:103EE000FCF73BFA06460F466410002CEAD1DDE9E8
:103EF0000401DDE90023BAF1000F06DAFCF72DFA20
:103F000042464B46FCF729FA05E0FCF751FC4246D5
:103F10004B46FCF74DFC04460E460022284BFCF7AE
:103F200007FB03D84FF0FF30014607E00022254B86
:103F300020463146FCF76AF9FCF7A9FC102409E099
:103F4000002C0ADB0A220023FCF73CFB039B3032E7
:103F50001A55641E50EA0102F2D1641C039AC4F19E
:103F600011031444119A012A03D0012208430DD1F0
:103F70000AE0084304D000204FF0110B119072E7C3
:103F8000A3EB0B056D1E0DE05B4504DD4FF0000259
:103F900005F1010504E003DA4FF00002A5F1010587
:103FA000002AECD002981199C0E90231C0E900451D
:103FB00079E70000000014400000F03F30000000EE
:103FC0000000F0430000E03F2DE9FF4F95B09B4615
:103FD0008946064600250FE2252877D1002427468A
:103FE000F84A0121059400E0044316F8013F203B04
:103FF00001FA03F01042F7D130782A2811D06FF07F
:104000002F033078A0F13002092A16D8059A44F01F
:10401000020402EB820203EB42021044761C05907C
:10402000EFE759F8042B0592002A03DA504244F4D2
:104030000054059044F00204761C30782E2816D1E6
:1040400016F8010F44F004042A280DD06FF02F0257
:104050003078A0F13003092B09D807EB870302EB76
:104060004303C718761CF3E759F8047B761C3078B5
:104070006C280FD006DC4C2817D068280DD06A2891
:1040800014D104E0742810D07A280FD10DE044F444
:1040900000140AE044F4801401E044F440147278FF
:1040A000824202D104F58014761C761C3078662892
:1040B0000BD013DC582877D009DC002875D04528B0
:1040C000F6D04628F4D047281AD19DE118E063289D
:1040D00035D0642879D0652812D195E1702873D045
:1040E00008DC6728F1D069286FD06E280DD06F28C2
:1040F00006D1B5E073282CD0752875D0782874D0F7
:104100005A46179990476D1C75E1C4F30250022876
:1041100009D003280DD0D9F8001004280DD00D6067
:1041200009F1040967E1D9F80010EA17C1E9005262
:10413000F6E7D9F800100D80F2E70D70F0E719F8F6
:10414000041B8DF8001000208DF80100EA460120C4
:1041500003E059F804AB4FF0FF3061074FF0000166
:1041600002D40DE008F101018846B9420FDA80451A
:10417000F8DB1AF808100029F4D108E008F1010171
:1041800088468142FADB1AF808100029F6D1059812
:104190005B46A0EB080721463846179A00F094FAD0
:1041A000284400EB080507E04DE029E10DE01AF88E
:1041B000010B5A4617999047B8F10108F7D25B46B0
:1041C00021463846179A13E142E00A220092C4F3CE
:1041D00002524FF0000A022A08D059F804CB032AF1
:1041E0004FEAEC710AD00DE029E02AE009F107015D
:1041F00021F00702F2E802C1914609E00FFA8CFCB7
:104200004FEAEC71042A03D14FFA8CFC4FEAEC71AF
:10421000002907DA0A460021DCF1000C61EB0201FB
:104220002D2202E0220504D52B228DF80420012244
:1042300003E0E20701D02022F7E7904659E00A2187
:1042400002E010220DE010214FF0000A00910BE077
:1042500010224FF0000A44F004040827009203E003
:1042600008224FF0000A0092C4F30252022A05D03D
:1042700059F804CB0021032A08D009E009F107010D
:1042800021F00702F2E802C1914605E01FFA8CFC1A
:10429000042A01D10CF0FF0C4FF00008220728D5AA
:1042A000702806D0009B83F0100353EA0A0305D060
:1042B0000EE040228DF80420012208E05CEA0102B1
:1042C00006D030228DF804208DF805000222904699
:1042D000009B83F0080353EA0A030AD15CEA010257
:1042E00001D1620705D530228DF804204FF0010876
:1042F0007F1E582804D034A003900EA802900DE031
:1043000036A0F9E753466046009AFCF75BF984460D
:104310000398825C0298401E029002705CEA0100E1
:10432000F0D1029806A9081A00F1200A600702D508
:1043300024F4803400E00127574502DDA7EB0A0092
:1043400000E0002000EB0A01009005984144401A6B
:104350000590E00306D45B462146179A059800F0C5
:10436000B3F90544002706E001A85A46C05D179935
:1043700090476D1C7F1C4745F6DBE0030CD55B4680
:104380002146179A059800F09FF9054404E0302073
:104390005A46179990476D1C0099481E00900029B5
:1043A000F5DC08E0029802995A460078491C02910F
:1043B000179990476D1CBAF10001AAF1010AF1DCCE
:1043C00065E10000092801003031323334353637D9
:1043D0003839616263646566000000003031323351
:1043E00034353637383941424344454600000000F1
:1043F00000F058F90544761C307800287FF4ECADC5
:1044000019B02846BDE8F08F620700D4062709F1ED
:10441000070222F0070CFCE80223E14603F0004803
:104420005FEA080C02D00FF2702C0DE05FEA045C2A
:1044300002D50FF2682C07E05FEAC47C02D00FF2CD
:10444000602C01E0AFF2700C4FF0FF3823F0004316
:10445000CDF850C065280CD006DC452809D0462888
:104460001DD047283DD13DE0662818D067287ED171
:1044700038E00021112F01DB112000E0781CCDE98C
:10448000000106A90EA8FFF7DDFCDDE90F010E9A79
:1044900003910021009207F1010A04914DE04FF0D1
:1044A00000400097CDE9011006A90EA8FFF7CAFC4D
:1044B000DDE90F0203920E9B11990022DDF80CA09A
:1044C0000093049211B9791C00EB010AB7EB0A00C2
:1044D00004D4C0F1FF3007F1010A0490AAEB0700F1
:1044E000019044E0012F00DA01270021112F01DDA6
:1044F000112000E03846CDE9000106A90EA8FFF71B
:10450000A1FCDDE90F010E9A0391002104910092B4
:10451000BA4621070CD40399514500DA8A46BAF10C
:10452000010F05DD009AAAF10101515C302908D084
:10453000B84202DA10F1040F06DA0121CDE90110C8
:1045400015E0AAF10101E9E7002805DC049901441E
:104550000491AAEB000102E0411C514500DD8A46AE
:104560000499401A401C01904FF00040029020072F
:1045700004D40198504501DBCDF8048000208DF86B
:104580004F0002980DF14F07B0F1004F25D02B20BE
:104590000E9002984FF0020800280CDA4042029078
:1045A0002D200E9007E00A210298FBF7F5FF30312D
:1045B000029007F8011DB8F10001A8F10108F2DC32
:1045C00002980028EFD1791E0E980870307800F01C
:1045D000200040F0450007F8020D12A8C01B00F1B2
:1045E00007081498007800B1012000EB0A01019837
:1045F00001EBE07105984144401A401E0590E0032C
:1046000006D45B462146179A059800F05DF80544EC
:104610001498007818B15A46179990476D1CE0031A
:1046200024D55B462146179A059800F04DF80544BD
:104630001CE00498002807DBDDE90301884203DD64
:104640000098405C179901E0179930205A4690472E
:10465000049805F10105401C04900198401E01904A
:1046600004D12E205A46179990476D1CBAF10001CB
:10467000AAF1010ADDDC05E017F8010B5A4617998B
:1046800090476D1CB8F10001A8F10108F4DC5B460D
:104690002146179A0598ABE62D0000002B0000007C
:1046A000200000002DE9F041044600251E46174673
:1046B000880404D405E039462020B0476D1C641EF0
:1046C000F9D52846BDE8F0812DE9F04104460025E2
:1046D0001E469046C80301D5302700E020278804F5
:1046E00004D505E041463846B0476D1C641EF9D537
:1046F0002846BDE8F0810A68531C0B6010707047B3
:1047000070B5054608460022054C05E0236813F8FD
:10471000016B2E702360521C8242F7DB70BD0000DB
:10472000BC00002070B504460F4E19E02568A08932
:10473000C00503D4A06808B1FFF7F4FFA089C00545
:1047400003D4206908B171688847A089800503D423
:10475000206A08B1716888477168204688472C46EE
:10476000002CE3D170BD0000B000002070B50D46F4
:10477000846800E024682CB12946206A00F04AF8D9
:104780000028F7D1204670BD10B5064928200968D9
:10479000884704461CB128212046FBF704FD20462B
:1047A00010BD0000B000002000221146AFF30080D1
:1047B0002DE9F04104460D469046FFF7E5FF064619
:1047C000134F0020B860C6B1204601F0D6F801466C
:1047D000304600F079FB04468CB1B8F1000F13D0DD
:1047E000204601F0CAF80446207868B13046FFF749
:1047F00099FFBC600020BDE8F0810020FBE7304657
:10480000FFF790FF0020F6E705B12C603046F2E795
:10481000B000002070B504460D46002C01D02DB12B
:104820000AE00DB1012070BD002070BD012070BDF7
:10483000207898B1641C6D1C2078FBF795FC064627
:104840002878FBF791FC8642F2D02078FBF78CFCAD
:1048500004462878FBF788FC201A70BD002070BD44
:1048600010B5002821D0114B0022001F196803E069
:10487000814203D80A4649680029F9D152B1136828
:10488000841A9C4204D1006818441060104602E06B
:10489000506000E0186039B102680B1A934203D1EE
:1048A0000B681A4402604968416010BDC0000020D6
:1048B000FCF7B6F9FCF746FAFCF7D0F9C820FCF78C
:1048C000B7FBFCF765F94FF4FA70FCF7B1FBFEF7A4
:1048D00029FC0F4C40F6B8302082E081A081208373
:1048E000C820E08320846084FCF74CFEFCF7C2FD06
:1048F000FCF726FBFCF7D0FBFCF72CFC207D022804
:1049000003D1FEF7D9F8FDF72DFDFDF775FFEBE7B5
:1049100034020020F0B50B30154D20F007010024C3
:10492000144A0FE003688B420BD38B4205D95E1A01
:1049300043184768C3E9006700E04368136002C09A
:1049400004E0021D10680028ECD12046002802D1A6
:10495000286808B10020F0BD064A07481060074AE1
:10496000121A22F00702C0E9002401202860D7E7CC
:10497000C4000020C0000020A4060020A0080020E1
:104980002DE9F04107460878234E5B2803D0B1603B
:104990000020BDE8F0810520F860481C00F0EDFF24
:1049A000044620785D2811D0FFF7EEFE0546B8607A
:1049B00070B1204600F0E1FF0146284600F084FA7D
:1049C00000F0DBFF0446200004D016E0601CE0E7A6
:1049D0000020DEE70020DCE7FFF7D6FEB0B128605C
:1049E00045600546601C00F0C8FF0146284600F0FF
:1049F0006BFA00F0C2FF044654B120782C28EBD0AB
:104A000020785D2806D0B4600020C2E70020C0E70F
:104A10000020BEE7601CBCE7B00000200178A1F1D7
:104A20003002092A01D811460AE0A1F14102052A03
:104A300001D8373904E0A1F16102052A0AD85739B3
:104A40000A01401C0178A1F13003092B04D8303A47
:104A500011440EE000207047A1F14103052B02D85C
:104A6000373A114405E0A1F16103052B0BD8573A01
:104A700011440A01401C0178A1F13003092B04D82C
:104A8000303A11440EE000207047A1F14103052B9C
:104A900002D8373A114405E0A1F16103052B0AD889
:104AA000573A114409014078A0F13002092A04D88C
:104AB00030390844704700207047A0F14102052AB0
:104AC00002D8373908447047A0F16102052A02D89C
:104AD0005739084470470020704700002DE9F34F14
:104AE00085B08A460024254659490020CDE90201B7
:104AF000002637468346012001909AF800002D28B1
:104B000005D154490020CDE902010AF1010A9AF8C1
:104B10000000302801D10AF1010A9AF8000031386A
:104B2000082817D89AF800003038FBF7A4FC804614
:104B300089460022484B20462946FBF70EFC424698
:104B40004B46FBF763FB04460D461AF8010F30385D
:104B50000928E7D99AF800002E2827D19AF80100F1
:104B6000302823D3392821D80AF1010A9AF8000005
:104B70003038FBF780FC804689460022364B2046C1
:104B80002946FBF7EAFB42464B46FBF73FFB044650
:104B90000D4600222E4B30463946FBF7D8FB064621
:104BA0000F461AF8010F30380928DFD99AF80000AB
:104BB000652801D045281DD11AF8010F2B2802D0F5
:104BC0002D2803D010E00AF1010A0DE04FF0FF306C
:104BD00001900AF1010A07E00BEB8B0100EB410B9E
:104BE0000AF1010AABF1300B9AF80000A0F1300194
:104BF0000929F1D901980BFB00F0FBF73CFC324688
:104C00003B46FBF703FB02460B460020124900F02F
:104C1000B9F906460F46DDE9020122462B46FBF7AD
:104C20009CFB32463B46FBF798FB04460D46059835
:104C3000C0E9064520462946FBF72EFC0599486148
:104C400005980321C16007B05046BDE8F08F000011
:104C50000000F03F0000F0BF000024402DE9F041CB
:104C600007460878384E7B2803D0B1600020BDE8A5
:104C7000F0810620F860481C00F07FFE0546287889
:104C80007D2818D0FFF780FD0446B860A8B12846FB
:104C900000F073FE0146204600F058F800F06DFE6B
:104CA00068B1216921620027276101783A2908D07B
:104CB000B0600020DBE7681CD9E70020D7E70020C0
:104CC000D5E7401C00F059FE0146204600F0FCF8F4
:104CD00000F053FE0546280028D1C8E7FFF754FD31
:104CE000A8B1206044600446681C00F046FE0146FE
:104CF000204600F02BF800F040FE50B121692162FF
:104D0000276101783A2906D0B0600020AFE7002083
:104D1000ADE70020ABE7401C00F02FFE0146204627
:104D200000F0D2F800F029FE054645B128782C287D
:104D3000D4D028787D2804D0B560002097E70020E3
:104D400095E7681C93E70000B00000202DE9F047CC
:104D500080460D466C1C00202A785949222A06D02C
:104D60008D60BDE8F087641C5C2A00D1641C227849
:104D7000222A02D00AB1401CF5D10968401C88479C
:104D80000746380004D0681C3C464FF480691AE09E
:104D90000020E6E75C2903D004F8011B401C12E068
:104DA000461C3078722825D006DC622816D066288A
:104DB00018D06E2804D119E074281FD0752821D08E
:104DC00004F8010B701C0178222901D00029E1D1DF
:104DD00000212170017822296AD06AE0082004F8B5
:104DE000010BEFE70C2004F8010BEBE70A2004F8B5
:104DF000010BE7E70D2004F8010BE3E7092004F8B5
:104E0000010BDFE7701CFFF709FE0546361DA5F50F
:104E10005C404845D6D3002DD4D0A5F55840484530
:104E200013D270785C28CDD1B0787528CAD1F01C27
:104E3000FFF7F4FDB61DA0F55C414945C2D2C5F3AC
:104E4000090161F39F2000F580350421802D01D2F6
:104E5000012108E0B5F5006F01D2022103E0B5F5AC
:104E6000803F00D20321601801291AD0022911D0F5
:104E7000032908D0042919D105F0BF0242F08002AD
:104E800000F8012DAD0905F0BF0242F0800200F8E4
:104E9000012DAD0905F0BF0242F0800200F8012D9E
:104EA000AD09084A525C2A4300F8012D441889E7ED
:104EB000401CC8F810700421C8F80C1051E700001D
:104EC000B00000200E69000870B505460C46002CA5
:104ED00020D0042224A12046FBF789F9E0B1052265
:104EE00023A12046FBF783F9D0B1042222A120465A
:104EF000FBF77DF9C0B1207822281AD02D2803D0E5
:104F0000A0F1300109291AD821462846BDE8704091
:104F1000FFF7E4BD002070BD0220E860201D70BDD9
:104F20000020E860601D70BD0120E8606861201D00
:104F300070BD21462846BDE87040FFF707BF5B28DB
:104F400005D07B2809D00E488460002070BD214622
:104F50002846BDE87040FFF713BD21462846BDE84E
:104F60007040FFF77BBE00006E756C6C00000000A7
:104F700066616C7365000000747275650000000066
:104F8000B00000202DE9F04D1D460C4698B01746A4
:104F900021F0004123F00043002814BF4FF0010C22
:104FA0004FF0000C0CEB440CFE4A0CEB02064FEAEF
:104FB000620C66452BD33E0018BF012606EB450662
:104FC0001644F94A964222D3F84A53EA070C02D013
:104FD000944205D148B918B000201146BDE8F08DC3
:104FE000002808BF4FF0000C01D04FF0010C0CEB73
:104FF000440212F5001F0AD8002F14BF4FF0010C15
:105000004FF0000C0CEB450212F5001F07D918B049
:105010003A462B462146BDE8F04DFEF7E5BE00229C
:10502000DFF88CA3002CB8BF534526DADFF884C321
:105030006345A8BF022220DADFF870C39C451CDC60
:10504000DFF874C30CEB235CBCF1140F08DDCCF16A
:10505000340627FA06FC0CFA06F6BE420DD108E02B
:105060005FB9CCF1140623FA06FC0CFA06F69E4250
:1050700003D10CF00102C2F1020251EA000C19D175
:10508000002D17DA002C18BF022A01D0012A07D000
:105090000220FEF7D1FE18B0BDE8F04DFEF79CBE31
:1050A0000220FEF7C9FEFEF797FE18B081F000411E
:1050B000BDE8F08DB7F1000C6CD1534525D104F15A
:1050C000804212F5801201BF00280020B74918B0B5
:1050D00008BFBDE8F08DB548884207DC002DA1BFB0
:1050E0006046294618B0BDE8F08D07E0281E05DAB5
:1050F00080F0004118B06046BDE8F08DAF497944BA
:10510000D1E9000118B0BDE8F08DDFF8A0C2634519
:1051100025D1002D1FDA19B1514512D1D8B909E0B6
:10512000002840F0EC82A24A214618B062F31E012A
:10513000BDE8F08D0020214618B060F31E01BDE8E7
:10514000F08D08DA18B02346BDE8F04D0246002085
:105150006146FBF72DBB18B02146BDE8F08D5145E7
:1051600018DAB5F1804F0DD0A5F1005CBCF1FF5C01
:1051700010D1B4F1000C0DDB18B06146BDE8F04D64
:1051800000F005BC234618B00246BDE8F04D1946B4
:10519000FBF7E3B8060024F0004C3BD1D9B15145F0
:1051A00033D1002C06DD002DA1BF0020514618B0E0
:1051B000BDE8F08D002C01DD002D1BDB002C13DA87
:1051C000002D11DB012A4FF0000014BF78497C4903
:1051D00018B0BDE8F08D022A18BF002C0AD0012AB1
:1051E00008D1002C06DA0AE0002CB8BF002D11DA35
:1051F000012A04D0002018B00146BDE8F08D18B097
:1052000000204FF00041BDE8F08DA1F14050B0F119
:105210007F601AD0012000EBE47050EA020421D034
:10522000624C521E4FF0000B104304BF4FF0000BB6
:10523000644C654883427CDD644A654893421FDDC7
:10524000884217DB002D25DB37E0002C00DA4AB15D
:10525000022A0CBF01204FF0FF3018B0BDE8F04D1E
:10526000FBF709B90120FEF7E7FD18B0BDE8F04DE6
:10527000FEF7BCBD4D4A8A4202DC002D0ADC1CE070
:10528000814202DA002D18DA04E0484B994220DD11
:10529000002D12DD0220FEF7CFFDFEF7ADFD054625
:1052A0000E460022534658462146FBF756F818B0E2
:1052B00066F31E012846BDE8F08D0220FEF7BCFD16
:1052C000FEF7A2FD0A46214618B062F31E01BDE8B2
:1052D000F08D002230466146FBF739F880460E46D5
:1052E0006FF00102FBF7ABF84FF05532394BFBF78B
:1052F00031F842463346FBF730F80022364BFBF7D5
:1053000029F8824642463346049110461946FBF777
:1053100024F85246049BFBF720F88A4600904FF091
:10532000C0422E4B40463146FBF717F82C4A2B4B18
:1053300000E027E0CDE9060151460098FBF70DF8A3
:1053400082460191274A284B40463146FBF705F833
:105350005246019BFAF7FBFF82460B460246059137
:10536000DDE90601FAF752FFDDE90623002688464B
:105370003046FAF7ECFF5246059BFAF7EBFF024680
:1053800000F07EB90020B1F5801F07DA35223046E3
:105390006146FBF754F806466FF0340000EB2150ED
:1053A00024E00000FFFF1F00FFFF0F000000F03FA0
:1053B0000000F07F0000404301FCFFFF9E1800004A
:1053C0000000F0FF0000F0BF0000E0410000F043EB
:1053D000FFFFEF3F5555D53F0000E03F4715F73F32
:1053E000FE822B6544DF5DF80BAE543EA0F2FF3029
:1053F0000190C1F3130040F07F6141F040510291F0
:10540000FE498842D8BF002004DDFD498142C8BF63
:10541000012001DD0D9008E000200D900198401C56
:1054200001900298A0F5801002900299F548784406
:105430000B910D9900EBC100D0E900230F9330468A
:105440000A920B99FAF783FFCDE90601DDE90A21FB
:1054500030460F9BFAF7DAFE02460B460020EA4977
:10546000FBF7A6F9059102460B460090DDE906011F
:10547000FAF773FF1490E5488A464FF00008784425
:105480000299006812904FF0005040EA61010D98B7
:105490000F9B01EB804000F5002109910A9A1298B8
:1054A000FAF755FF32460B9BFAF754FF4246534634
:1054B000FAF753FF0646029140465146099B129A5D
:1054C000FAF74BFFDDE90623FAF744FF3246029B69
:1054D000FAF73DFF059B009AFAF73FFF0091149AF7
:1054E0000490534610461946FAF737FF064602461F
:1054F000C7480B46029106217844FEF717FCCDE918
:105500000510029B324610461946FAF726FFDDE9E0
:105510000532FAF722FF05910646534640461946E2
:10552000149AFAF773FE009B049AFAF716FF3246B4
:10553000059BFAF76BFECDE905104246534610462F
:105540001946FAF70AFF0022B24B02910A90FAF7C5
:105550005DFEDDE90532FAF759FE0E464246AD4BD7
:105560004046FAF7F4FE029B0A9AFAF7F0FEDDE9EC
:105570000532FAF7EFFE424602910A903346104692
:105580005146FAF7EAFECDE906015346149A02990C
:105590000A98FAF7E2FE8A4602903346424600999C
:1055A0000498FAF7DAFE5346029AFAF72FFE82467B
:1055B0000B4602460591DDE90601FAF727FEDDE913
:1055C0000623002088460646FAF7C1FE5246059B90
:1055D000FAF7C0FE824609914FF060428E4B30468A
:1055E0004146FAF7BAFE049006918C4A8A4B50461F
:1055F0000999FAF7B2FE82460291894A894B3046F0
:105600004146FAF7AAFE5246029BFAF7FFFD864B87
:105610007B440D9A03EBC203D3E90023FAF7F6FDAE
:105620000E9007910198FAF726FF0591DDE9061320
:1056300082460E9A0498FAF7E9FD7C4A7A440D9B5B
:1056400002EBC303D3E9002300930292FAF7DEFDD5
:105650005246059BFAF7DAFD002688465246304648
:10566000059BFAF774FE009B029AFAF770FE069B00
:10567000049AFAF76CFE079B0E9AFAF76BFE024645
:1056800000200B46029038462946FAF766FE82460D
:1056900001912B4638461946029AFAF758FE3246CF
:1056A0004346FAF75AFE5246019BFAF7AFFD07460A
:1056B0008A463246434629460298FAF74EFE054688
:1056C0000E463A465346FAF7A1FD594A884691429A
:1056D00021DBA8EB020353EA000210D12A4633462D
:1056E000FAF735FECDE90401524A534B384651468C
:1056F000FAF78CFDDDE90423FAF71AFF21D2022024
:10570000FEF79AFBFEF778FB0A46214618B062F3D3
:105710001E01BDE8F08D494B28F000429A4210D39B
:10572000474A08EB020353EA00027FF4C6AD2A465B
:105730003346FAF70CFE3A465346FAF7F9FE7FF67F
:10574000BCAD0022019228F000403E493E4A01EBE8
:105750002051824223DA481C4FF4801121FA00F0D4
:1057600040443A4AC0F30A517A44394BA1F2FF311E
:10577000CB4020EA0303C0F3130040F48010C1F1D2
:105780001401C84012680190B8F1000FBCBF40423C
:10579000019028463146FAF7DAFD05460E462A46BC
:1057A000334638465146FAF731FD4FF0000842467D
:1057B000284B40460591FAF7D0FDCDE90601264A6F
:1057C000264B40460599FAF7C8FD009102902A46FB
:1057D000334640460599FAF7BAFD3A465346FAF77A
:1057E000B9FD1F4A1F4BFAF7B8FD009B029AFAF762
:1057F0000DFD0746884602460B4635E08E980300AD
:105800007AB60B00E61400000000F03F1E15000001
:105810004C1400000000084009C7EE3FFD033ADCCD
:10582000F5015B14E02F3EBE24130000E8120000D7
:1058300000009040FE822B654715973C00CC9040BD
:1058400000346F3F01FCFFFF0000E03F3412000016
:10585000FFFF0F00432EE63F396CA80C615C20BEB1
:10586000EF39FAFE422EE63FDDE90601FAF7CEFCFB
:10587000DDE9062305460E46FAF769FD3A4643463A
:10588000FAF768FD0F462A4633460090104619463F
:10589000FAF763FD824602462E4888460B460521EC
:1058A0007844FEF743FA52464346FAF756FD2A4635
:1058B0003346FAF74FFD80468A463B462846314636
:1058C000009AFAF74AFD3B46009AFAF79FFC0691C8
:1058D000009000224FF0804340465146FAF737FDD2
:1058E0000F460C904246534628463146FAF735FD9E
:1058F0003B460C9AFAF75CFF069B009AFAF727FDE5
:105900002A463346FAF723FD0022134BFAF722FD0D
:10591000054601980E4601EB00510815002810DCE1
:1059200028463146019AFAF78AFDFEF7EBF904287A
:1059300008BFFEF769FA28463146019AFAF77FFD5B
:1059400005460B4618B02A4658462146BDE8F04D9C
:10595000FAF703BDD41000000000F03F016811F811
:10596000012B01601046704701684A7811F8023B2C
:1059700002EB032201601046704700E0401C002843
:1059800004D00178002901D02029F7D970472DE9EA
:10599000F04106460F46FAF7A5FF041E0D4618BF54
:1059A0000120284320F00040C0F17F6000F1E0407A
:1059B000C00F0ED0301C18BF0120384320F000402B
:1059C000C0F17F6000F1E040C00F04BF0120FEF78E
:1059D00033FA20462946BDE8F08170B504460E46EC
:1059E0003046FAF7FDFB05462946204600F00FF841
:1059F0002A4631462068FAF7BDFB2068284420601B
:105A000070BD026811700168491C0160704710B5D3
:105A1000CA17046801EB12631A0A22700268521C4A
:105A2000026011700168491C016010BD1FB5044679
:105A3000029800280DDD20460299FFF7E8FFDDE916
:105A400002212068FAF796FB20680299084420603A
:105A50001FBD019830B1019904B02046BDE8104047
:105A6000FFF7BBBF04B02046BDE810400021FFF7A0
:105A7000CEBF000000000000000000000000000099
:105A800000003F4000000000000000003000400027
:105A900030004000000009000BC03D000BC03D007D
:105AA000090018C024407FE0224031800000180027
:105AB00024C01B000D803240018003801C40274021
:105AC0001C80074000401000600000000000000043
:105AD00000000000000000001F8020404020000067
